:100000000C942A000C9447000C9447000C94470071
:100010000C9447000C9447000C9447000C94DB03AD
:100020000C9447000C9447000C9447000C94470034
:100030000C9447000C9447000C9447000C94470024
:100040000C9447000C9447000C9447000C94470014
:100050000C94470011241FBECFE5D8E0DEBFCDBF12
:1000600010E0A0E6B0E0E2EDF1E202C005900D92F2
:10007000A039B107D9F713E0A0E9B0E001C01D92A3
:10008000A934B107E1F70E947F000C94E7100C94AB
:10009000000082E062E04FEF0E94E50F82E062E044
:1000A0000E946F1082E062E00E94841088EB9BE067
:1000B0000E94B40DF7CF82E061E04FEF0E94E50FA0
:1000C00082E061E00E946F1082E061E00E94841093
:1000D00080ED97E00E94B40DF7CF82E060E04FEF33
:1000E0000E94E50F82E060E00E946F1082E060E015
:1000F0000E94841088EE93E00E94B40DF7CFEF9237
:10010000FF920F938DE690E060E670E045E550E0E9
:1001100020E030E001E0EE24FF240E94A50E8BE5F4
:1001200090E066E670E045E550E020E030E00E94B7
:10013000A50E89E490E06CE670E045E550E020E033
:1001400030E00E94A50E0E949F0FFFCFFC010FB66A
:10015000F8940F922081318160957095622373230A
:10016000718360830F900FBEC9010895FC018081E7
:1001700091810895BA010E94A6000895CF93DF935C
:10018000EC010E94A70806C08F81988560E072E0AC
:100190000E944F0A8A818823B9F7CE010E942E025D
:1001A0000E94EF0BDF91CF910895CF92DF92EF92F3
:1001B000FF920F931F93CF93DF93EC018B0185E0A8
:1001C000E82EF12CEC0EFD1E0E94A708EF81F885A9
:1001D00088819981802B912B9983888300E010E09E
:1001E00024C0D280C38080819181BC016070AC0149
:1001F00050702881398192FD05C024233523232B9B
:1002000031F40FC0242335232417350751F470FF30
:1002100002C0042B152B688179817260CF010E9486
:100220004F0A8D2D9C2D9C01F901EE15FF05C9F695
:1002300000951095888199818023912399838883E3
:100240000E94EF0B88819981DF91CF911F910F91CF
:10025000FF90EF90DF90CF900895BA010E94D500F3
:100260000895AF92BF92CF92DF92EF92FF920F93D9
:100270001F93CF93DF936C017B01A42EB22E0E94BB
:10028000A708F60120813181C70182239323BB2077
:1002900021F4892B09F05AC004C08E159F0509F47A
:1002A00055C00115110559F4E9011BC0C70180951E
:1002B000909582239323F601918380834AC0AA20DC
:1002C00019F060E071E002C060E070E0B1107460AD
:1002D0006E297F29C6010296A8010E949B0DC0E0ED
:1002E000D0E00E94EF0B012B29F1882311F40E942A
:1002F000DE030E94570991FD1BC00FB6F8940F92C0
:10030000F60180819181970128233923BB2019F4BC
:10031000232B19F50BC02E153F0541F41EC0E094A8
:10032000F094E822F922F601F182E0820F900FBEEC
:10033000EC01D070CE01DF91CF911F910F91FF9012
:10034000EF90DF90CF90BF90AF900895AA2009F072
:10035000ADCFE90100E010E0C4CFAA2001F7E6CF5D
:10036000AF92BF92CF92DF92EF92FF920F931F93C3
:10037000CF93DF936C018B017A0159010E94A7088A
:10038000F601C081D181C601B8010E94D500C02B01
:10039000D12BC7018C239D238E159F0569F49701EE
:1003A00020953095F601808191818223932391835A
:1003B0008083AA24BB2410C0A114B10451F0B7015A
:1003C0007560C6010296A5010E949B0DC0E0D0E0B9
:1003D00003C0F601C081D1810E94EF0BAB28F9F078
:1003E000882311F40E94DE030E9457099C0191FDAD
:1003F00014C00FB6F8940F92F60120813181C70125
:10040000822393238E159F0531F4E094F094E22229
:10041000F322F182E0820F900FBEE901D070CE018D
:10042000DF91CF911F910F91FF90EF90DF90CF90D0
:10043000BF90AF900895CF93DF938BE090E00E9440
:100440003E02EC01009731F0FC0111921192CF01B4
:100450000E947002CE01DF91CF910895089510920D
:10046000910010929000089527E532E0809190006D
:1004700090919100281B390BC9010895CF93DF9308
:10048000EC010E94A7088091920090919300892B23
:1004900031F485E990E0909393008093920020914D
:1004A000900030919100CE01820F931F42E087357A
:1004B000940770F42817390758F4C0919200D0912E
:1004C0009300C20FD31F909391008093900002C0BD
:1004D000C0E0D0E00E94EF0BCE01DF91CF910895F4
:1004E000FC019C012D5F3F4F328321838FEF9FEFF3
:1004F00094838383368325833087278310820895EE
:10050000FC01118610860895AC01FC01A181B28125
:10051000FB01B383A28314968D919C9115979583CB
:1005200084831496ED91FC911597738362831596DD
:100530007C936E931497FB0151874087FA01808169
:100540008F5F80830895CF93DF939C01EB014881F7
:1005500059818FEF4F3F580721F4F901A781B085EA
:100560000DC0D90113961296ED91FC9113978081DD
:1005700091814817590710F0DF01F5CF1296ED91E0
:10058000FC911397FB83EA83D583C483BD83AC833B
:100590001396DC93CE93129739872887F9018081CF
:1005A0008F5F8083DF91CF910895CF93DF93DC013C
:1005B0001896CD91DC91199712964D915C911397F5
:1005C00014968D919C911597FA01958384831496C6
:1005D0002D913C911597F9015383428389819A812A
:1005E0008A179B0711F43A83298319961C921E924D
:1005F00018978881815088838881DF91CF910895F1
:10060000FC0191E1908322E2229383E3829362933F
:100610007293129280E88293129282E0829383E036
:10062000829384E0829385E0829386E0829387E0E0
:10063000829388E0829389E0829380E1829392930F
:1006400082E1829383E1829384E1829385E18293C4
:1006500086E1829387E1829388E1829389E18293A4
:1006600080E2829381E28293229383E28293429397
:10067000529386E2829387E2829388E2829389E2B0
:10068000829380E3829381E382933197CF0108952F
:100690001BBC8CE78ABD8BE08EBD89B7806189BFAA
:1006A000A091EC02B091ED02CD91CDBFDD91DEBF06
:1006B000FF91EF91DF91CF91BF91AF919F918F917A
:1006C0007F916F915F914F913F912F911F910F916A
:1006D000FF90EF90DF90CF90BF90AF909F908F9062
:1006E0007F906F905F904F903F902F901F900F9052
:1006F0000FBE0F90089581E0089508950F920FB6F0
:10070000F8940F921F9211242F923F924F925F9272
:100710006F927F928F929F92AF92BF92CF92DF9211
:10072000EF92FF920F931F932F933F934F935F93FB
:100730006F937F938F939F93AF93BF93CF93DF93E9
:10074000EF93FF93A091EC02B091ED020DB60D92E4
:100750000EB60D920E94C10A882311F00E94CC08A7
:10076000A091EC02B091ED02CD91CDBFDD91DEBF45
:10077000FF91EF91DF91CF91BF91AF919F918F91B9
:100780007F916F915F914F913F912F911F910F91A9
:10079000FF90EF90DF90CF90BF90AF909F908F90A1
:1007A0007F906F905F904F903F902F901F900F9091
:1007B0000FBE0F9008950E947E0318950F920FB6FA
:1007C000F8940F921F9211242F923F924F925F92B2
:1007D0006F927F928F929F92AF92BF92CF92DF9251
:1007E000EF92FF920F931F932F933F934F935F933B
:1007F0006F937F938F939F93AF93BF93CF93DF9329
:10080000EF93FF93A091EC02B091ED020DB60D9223
:100810000EB60D920E94CC08A091EC02B091ED02B0
:10082000CD91CDBFDD91DEBFFF91EF91DF91CF91F3
:10083000BF91AF919F918F917F916F915F914F91F8
:100840003F912F911F910F91FF90EF90DF90CF90EC
:10085000BF90AF909F908F907F906F905F904F90E0
:100860003F902F901F900F900FBE0F900895FC01A6
:100870000FB6F8940F92828D0F900FBE0895FC0171
:100880000FB6F8940F92928D0F900FBE838D891B37
:100890000895FC01828D0895FC01828D90E08823EB
:1008A00009F491E0892F0895FC01928D20E0838D59
:1008B000981709F421E0822F08950E942E020895CE
:1008C000FC01562FA72F248D2223B9F08681978112
:1008D000820F911D97838683248135818217930728
:1008E00020F08081918197838683448D6681778112
:1008F000852F9A2F50E00E94DE1008950F931F93CA
:10090000CF93DF93EC018A8D882341F00E811F8104
:10091000CE010E9460041F830E8381E0DF91CF919E
:100920001F910F9108950F931F93CF93DF93EC01C5
:10093000042F1A8D4C8D4423C1F10023B1F48A8118
:100940009B8150E00E94DE108C8D2A813B81280F14
:10095000311D3B832A838C819D812817390728F11B
:10096000888199819B838A8320C08E819F8150E0FA
:100970000E94DE108C8D90E044275527481B590BB0
:100980008E819F81840F951F9F838E83288139815B
:100990008217930730F48C819D81840F951F9F836C
:1009A0008E83023011F4111111501F5F1A8F80E0F5
:1009B000DF91CF911F910F910895EF92FF920F93C6
:1009C0001F93CF93DF93EC017A011A8D112311F459
:1009D00080E01AC00D8D0E94600411501A8F0F3FE5
:1009E00081F48885882379F0CE0108960E94810AD7
:1009F000882349F0E114F10431F081E0F7018083AC
:100A000003C00F5F0D8F81E0DF91CF911F910F9198
:100A1000FF90EF900895CF93DF93FC01EB01928D4F
:100A2000838D981710F080E016C0868D9F5F928F9F
:100A30008F3F71F48189882369F0CF0141960E942C
:100A4000810A882339F0209729F081E0888303C048
:100A50008F5F868F81E0DF91CF910895EF92FF92B3
:100A60001F93CF93DF93EC017A019A8D8B8D9817AA
:100A700020F0223011F080E01AC01E8DCE01422FEE
:100A80000E9493041F3F81F48989882379F0CE0165
:100A900041960E94810A882349F0E114F10431F063
:100AA00081E0F701808303C01F5F1E8F81E0DF912B
:100AB000CF911F91FF90EF900895EF92FF921F93B7
:100AC000CF93DF93EC010FB6F8940F921E8D91E156
:100AD000E92EF12CEC0EFD1E0BC08989882351F004
:100AE000C7010E94810A882311F00E945309115006
:100AF00011169CF38FEF8E8F0F900FBE0FB6F894E8
:100B00000F921D8D88E0E82EF12CEC0EFD1E0BC01F
:100B10008885882351F0C7010E94810A882311F03B
:100B20000E945309115011169CF38FEF8D8F0F9077
:100B30000FBEDF91CF911F91FF90EF9008958F929C
:100B40009F92AF92BF92CF92DF92EF92FF920F935C
:100B50001F93DF93CF9300D000D00F92CDB7DEB7B5
:100B60007C015B015D834C8341E1C42ED12CC80E16
:100B7000D91E20E08E010F5F1F4F34E0832E912C91
:100B80008C0E9D1E01C021E00FB6F8940F92F70164
:100B9000828D8823B9F006811781C701B5010E94B3
:100BA0006004F701178306838189882339F0C60121
:100BB0000E94810A882311F00E94DE030F900FBE6D
:100BC00081E054C08C819D81892B21F40F900FBE50
:100BD00080E04CC0222319F4C8010E9416090F902E
:100BE0000FBE0E94A7080FB6F8940F92F701858DEB
:100BF0008F3F09F4158EF701868D8F3F09F4168E0D
:100C00000F900FBEC801B4010E9421098823F9F496
:100C10000FB6F8940F92F701828D0F900FBE8823C4
:100C200081F46C817D81C6010E94F60DC7010E948E
:100C30005D050E94EF0B882309F0A5CF0E94DE031B
:100C4000A2CFC7010E945D050E94EF0B9CCFC70198
:100C50000E945D050E94EF0B0FB6F8940F92F7010A
:100C6000828D0F900FBE882309F08DCF0F900F90CB
:100C70000F900F900F90CF91DF911F910F91FF90E8
:100C8000EF90DF90CF90BF90AF909F908F9008959E
:100C9000AF92BF92CF92DF92EF92FF920F931F938A
:100CA000DF93CF9300D000D00F92CDB7DEB78C0189
:100CB0007D836C8361E1E62EF12CE80EF91E20E0C5
:100CC0006E010894C11CD11C54E0A52EB12CAC0EB1
:100CD000BD1E01C021E00FB6F8940F92F801828D7D
:100CE000882389F08150828F8085882341F0C80154
:100CF00008960E94810A882311F00E94DE030F905B
:100D00000FBE81E054C08C819D81892B21F40F900E
:100D10000FBE80E04CC0222319F4C6010E941609C0
:100D20000F900FBE0E94A7080FB6F8940F92F8011B
:100D3000858D8F3F09F4158EF801868D8F3F09F45C
:100D4000168E0F900FBEC601B5010E94210988239F
:100D5000F9F40FB6F8940F92F801828D0F900FBE40
:100D6000882381F46C817D81C7010E94F60DC80142
:100D70000E945D050E94EF0B882309F0ABCF0E9413
:100D8000DE03A8CFC8010E945D050E94EF0BA2CF31
:100D9000C8010E945D050E94EF0B0FB6F8940F92F8
:100DA000F801828D0F900FBE882309F093CF0F902A
:100DB0000F900F900F900F90CF91DF911F910F9197
:100DC000FF90EF90DF90CF90BF90AF9008956F921B
:100DD0007F928F929F92AF92BF92CF92DF92FF92BB
:100DE0000F931F93DF93CF9300D000D00F92CDB716
:100DF000DEB78C015B015D834C83E1E1CE2ED12C0B
:100E0000C80ED91E20E04E010894811C911C74E08C
:100E1000672E712C6C0E7D1E01C021E00FB6F89478
:100E20000F92F801F28CFF20B1F0C801B5010E94C9
:100E30006004FA94F801F28E8085882341F0C8019D
:100E400008960E94810A882311F00E94DE030F9009
:100E50000FBE81E054C08C819D81892B21F40F90BD
:100E60000FBE80E04CC0222319F4C4010E94160971
:100E70000F900FBE0E94A7080FB6F8940F92F801CA
:100E8000858D8F3F09F4158EF801868D8F3F09F40B
:100E9000168E0F900FBEC401B3010E942109882352
:100EA000F9F40FB6F8940F92F801828D0F900FBEEF
:100EB000882381F46C817D81C6010E94F60DC801F2
:100EC0000E945D050E94EF0B882309F0A6CF0E94C7
:100ED000DE03A3CFC8010E945D050E94EF0B9DCFEA
:100EE000C8010E945D050E94EF0B0FB6F8940F92A7
:100EF000F801828D0F900FBE882309F08ECF0F90DE
:100F00000F900F900F900F90CF91DF911F910F9145
:100F1000FF90DF90CF90BF90AF909F908F907F9089
:100F20006F9008956F927F929F92AF92BF92CF92EF
:100F3000DF92EF92FF920F931F93DF93CF9300D036
:100F400000D00F92CDB7DEB78C016B015D834C836F
:100F5000922EA8E0EA2EF12CE80EF91E20E05E01A8
:100F60000894A11CB11CF4E06F2E712C6C0E7D1E38
:100F700001C021E00FB6F8940F92F801928D838D95
:100F8000981718F0F2E09F16C9F4C801B601492D70
:100F90000E949304982FF8018189882339F0C801B1
:100FA00041960E94810A882329F002C0992311F0FA
:100FB0000E94DE030F900FBE81E04CC08C819D81AA
:100FC000892B19F40F900FBE44C0222319F4C501D8
:100FD0000E9416090F900FBE0E94A7080FB6F89442
:100FE0000F92F801858D8F3F09F4158EF801868DDB
:100FF0008F3F09F4168E0F900FBEC501B3010E94FA
:101000002109882309F50FB6F8940F92F801928D03
:101010000F900FBEF801838D981781F46C817D814C
:10102000C7010E94F60DC8010E945D050E94EF0BEA
:10103000882309F09ECF0E94DE039BCFC8010E9447
:101040005D050E94EF0B95CFC8010E945D050E94CF
:10105000EF0B80E00F900F900F900F900F90CF91BB
:10106000DF911F910F91FF90EF90DF90CF90BF9095
:10107000AF909F907F906F900895CF93DF93EC0196
:101080000FB6F8940F92EC8D2B8DE29FC0011124C6
:1010900048815981840F951F9D838C831A8E5B83B1
:1010A0004A8330E021503040F0E02E9FC0012F9F56
:1010B000900D3E9F900D1124480F591F5F834E8362
:1010C0008FEF8D8F8E8F662361F48885882389F05A
:1010D000CE0108960E94810A882359F00E94DE03FF
:1010E00008C0CE0108960E947002CE0141960E946F
:1010F00070020F900FBE81E0DF91CF9108950F93A2
:101100001F93CF93DF93082F162F662319F480E0E7
:1011100090E003C0689FC00111244F960E943E02D8
:10112000EC01009771F0112319F49983888303C0AF
:101130004F96998388830B8F1C8FCE0161E00E94AC
:101140003D08CE01DF91CF911F910F9108958091BD
:10115000EE028F5F8093EE0208950FB6F8940F921F
:101160002091F1023091F2020F900FBEC901089553
:101170002091F1023091F202C90108958091F702A5
:101180000895009721F48091EC029091ED029C016A
:10119000275E3F4FC90108958091EE02882321F018
:1011A00081E08093F00208951092F0022091EF0206
:1011B00099E001C02150299FD0011124A350BD4FB7
:1011C0008C918823B9F31196ED91FC9112970280CE
:1011D000F381E02D1296FC93EE931197CD010396C7
:1011E000E817F90731F48281938112969C938E93CC
:1011F00011971196ED91FC911297868197819093AA
:10120000ED028093EC022093EF020895FC010FB6EB
:10121000F8940F928091F50280838091F102909171
:10122000F202928381830F900FBE0895FC0180919A
:10123000F50280838091F1029091F2029283818382
:101240000895FC01DB010FB6F8940F924091F10272
:101250005091F202218132819091F502808198179C
:1012600019F042175307D8F4CA01821B930B9C0153
:101270008D919C9111972817390778F4821B930B55
:101280008D939C938091F50280838091F1029091DF
:10129000F2029283818380E003C01D921C9281E060
:1012A0000F900FBE089581E08093F0020895E091C1
:1012B000EC02F091ED0284859585A091EC02B0914D
:1012C000ED02E091EC02F091ED02468924E030E07D
:1012D000241B31091D963C932E931C97089500976B
:1012E00011F0FC0104C0E091EC02F091ED020FB6A8
:1012F000F8940F9285A1823011F080E002C015A20F
:1013000081E00F900FBE0895EF92FF920F931F930D
:10131000CF93DF93EC017B012DA182E08DA389A106
:101320009AA1ABA1BCA10196A11DB11D89A39AA34D
:10133000ABA3BCA3213089F58091EE028823A9F4E8
:101340008E010E5F1F4FC8010E94D5029E898091B9
:10135000EF02891710F49093EF0289E0989FC00183
:10136000112483509D4FB80105C0BE01645F7F4FBB
:1013700087E393E00E948402E091EC02F091ED0299
:101380009E898689891748F4E114F10419F081E0F7
:10139000F701808381E08093F002DF91CF911F916C
:1013A0000F91FF90EF900895EF92FF920F931F938C
:1013B000CF93DF93EC01F8010115110541F089A1EC
:1013C0009AA1ABA1BCA180839183A283B3833DA1E9
:1013D00082E08DA3223099F0233018F4213019F5E2
:1013E00005C02330E1F02430F1F415C089A19AA1A1
:1013F000ABA1BCA1842B952BA62BB72B07C089A131
:101400009AA1ABA1BCA10196A11DB11D89A39AA36C
:10141000ABA3BCA308C0323011F480E039C049A3AB
:101420005AA36BA37CA3313091F58091EE028823FF
:10143000A9F48E010E5F1F4FC8010E94D5029E893C
:101440008091EF02891710F49093EF0289E0989F42
:10145000C001112483509D4FB80105C0BE01645FD7
:101460007F4F87E393E00E948402E091EC02F091C9
:10147000ED029E898689891750F4E114F10419F070
:1014800081E0F701808381E08093F00201C081E078
:10149000DF91CF911F910F91FF90EF9008950F93DF
:1014A0001F93CF93DF93FC01706871836083C681C3
:1014B000D7810E94D5028E010E5F1F4FC8010E9486
:1014C000D5029E898091EF02891710F49093EF0264
:1014D00089E0989FC001112483509D4FB8010E945C
:1014E0008402E091EC02F091ED029E8986898917D1
:1014F00018F481E08093F002DF91CF911F910F915A
:1015000008950F931F93CF93DF93DC011596ED9110
:10151000FC911697C681D7818E01045F1F4FC801C9
:101520000E94D5028091EE028823A1F48E010E5F05
:101530001F4FC8010E94D5029E898091EF02891732
:1015400010F49093EF0289E0989FC001112483501A
:101550009D4F02C087E393E0B8010E948402E091AE
:10156000EC02F091ED029E898689891710F080E0E7
:1015700003C081E08093F002DF91CF911F910F9122
:101580000895CF92DF92EF92FF920F931F93CF9324
:10159000DF938091EE02882309F0A1C00091F1024F
:1015A0001091F2020F5F1F4F1093F2020093F102AD
:1015B0000115110579F520913303309134038091A1
:1015C0003503909136039093340380933303309323
:1015D0003603209335038091F5028F5F8093F502E7
:1015E000E0913303F09134038081882319F48FEF65
:1015F0009FEF0CC0E0913303F09134030580F68136
:10160000E02D0680F781E02D828193819093F40292
:101610008093F3028091F3029091F4020817190766
:1016200008F44BC0DD2499E0C92EE0913303F0911A
:1016300034038081882319F48FEF9FEF0EC0E0916F
:101640003303F09134030580F681E02DC681D78104
:101650008A819B810817190728F49093F4028093DC
:10166000F3022CC082E0E82EF12CEC0EFD1EC70127
:101670000E94D5028C899D89892B21F0CE010C9680
:101680000E94D5029E898091EF02891710F49093F1
:10169000EF029C9DC001112483509D4FB7010E9411
:1016A0008402E091EC02F091ED029E898689981700
:1016B00008F4BBCFDD24D394B8CFDD24E091EC0255
:1016C000F091ED02E68989E0E89FF0011124E350F2
:1016D000FD4F8081823048F0DD24D39406C0809194
:1016E000F6028F5F8093F602DD248091F00288235A
:1016F00011F0DD24D3948D2DDF91CF911F910F91A7
:10170000FF90EF90DF90CF9008950F931F93CF93AA
:10171000DF93EC01F8010FB6F8940F920115110553
:1017200041F089A19AA1ABA1BCA180839183A2833E
:10173000B3833DA182E08DA3223099F0233018F4C9
:10174000213019F505C02330E1F02430F1F415C043
:1017500089A19AA1ABA1BCA1842B952BA62BB72B59
:1017600007C089A19AA1ABA1BCA10196A11DB11D81
:1017700089A39AA3ABA3BCA308C0323011F480E0C4
:1017800027C049A35AA36BA37CA3313001F58E0176
:101790000E5F1F4FC8010E94D5029E898091EF0203
:1017A000891710F49093EF0289E0989FC0011124EB
:1017B00083509D4FB8010E948402E091EC02F091A9
:1017C000ED029E898689891710F40E94DE0381E06C
:1017D0000F900FBEDF91CF911F910F910895EF925F
:1017E000FF920F931F93CF93DF930FB6F8940F924E
:1017F0008091EE0281508093EE028091EE02882368
:1018000009F06CC08091F702882309F467C0C0E03A
:10181000D0E029E0E22EFF24F39429C0E0913C03BC
:10182000F0913D03C681D781CE010C960E94D5026E
:101830008E010E5F1F4FC8010E94D5029E898091C4
:10184000EF02891710F49093EF029E9DC0011124BE
:1018500083509D4FB8010E948402E091EC02F09108
:10186000ED029E898689981710F0F092F00280911F
:101870003703882399F6CD2BD1F0E0913303F09113
:1018800034038081882319F48FEF9FEF0CC0E0911F
:101890003303F09134030580F681E02D0680F78153
:1018A000E02D828193819093F4028093F302109152
:1018B000F602112359F001E00E94C10A882311F0B9
:1018C0000093F0021150C1F71092F6028091F002DD
:1018D000882321F00E94DE0381E001C080E00F90A8
:1018E0000FBEDF91CF911F910F91FF90EF90089560
:1018F0000F931F93CF93DF93EC010091F1021091AE
:10190000F2028091EC029091ED0202960E94D502C3
:10191000C00FD11FE091EC02F091ED02D383C2839E
:10192000C017D10768F48091350390913603609118
:10193000EC027091ED026E5F7F4F0E94A30217C010
:1019400080913303909134036091EC027091ED0229
:101950006E5F7F4F0E94A3028091F3029091F40288
:10196000C817D90720F4D093F402C093F302DF9193
:10197000CF911F910F9108956F927F928F929F92B6
:10198000AF92BF92CF92DF92EF92FF920F931F938D
:10199000CF93DF935B016C0139014A01E8010FB677
:1019A000F8940F92E091EC02F091ED0285A1823063
:1019B00019F1E091EC02F091ED0281A192A1A3A1B5
:1019C000B4A1A094B094C094D0948A219B21AC215E
:1019D000BD2181A392A3A3A3B4A3E091EC02F09153
:1019E000ED0281E085A3E114F10431F0C70161E06B
:1019F0000E94780C0E94DE030F900FBE0FB6F89481
:101A00000F92209761F0E091EC02F091ED0281A13C
:101A100092A1A3A1B4A188839983AA83BB83E091F7
:101A2000EC02F091ED0285A1823011F080E015C04A
:101A3000E091EC02F091ED0281A192A1A3A1B4A1E9
:101A4000609470948094909486219721A821B92164
:101A500081A392A3A3A3B4A381E0E091EC02F0914F
:101A6000ED0215A20F900FBEDF91CF911F910F9144
:101A7000FF90EF90DF90CF90BF90AF909F908F90AE
:101A80007F906F9008951F93182F0FB6F8940F92C0
:101A9000E091EC02F091ED0281A192A1A3A1B4A189
:101AA0000097A105B10579F4E091EC02F091ED0207
:101AB00081E085A36115710531F0CB0161E00E94E1
:101AC000780C0E94DE030F900FBE0FB6F8940F92B1
:101AD000E091EC02F091ED0221A132A143A154A1C9
:101AE0002115310541055105D9F0112349F0E09147
:101AF000EC02F091ED0211A212A213A214A210C0E6
:101B0000E091EC02F091ED02215030404040504015
:101B100021A332A343A354A32F5F3F4F4F4F5F4FE7
:101B2000E091EC02F091ED0215A20F900FBEB90109
:101B3000CA011F9108950F931F938A01E091EC024F
:101B4000F091ED027068758764876091EC02709186
:101B5000ED02645F7F4F0E948402C80161E00E9431
:101B6000780C1F910F9108959C01009769F0809166
:101B7000EE028F5F8093EE02C90160E00E94780C54
:101B80000E94EF0B882311F40E94DE030895FC01EC
:101B90008091EE028F5F8093EE024091F1025091AE
:101BA000F20220813181620F731F4217530728F41C
:101BB0006217730728F080E008C06217730720F0EF
:101BC00080E04617570708F481E07183608388231B
:101BD00031F0CB01841B950B60E00E94780C0E94D1
:101BE000EF0B882311F40E94DE0308950F931F93D7
:101BF0008B016091EC027091ED02645F7F4F0E9457
:101C0000A302C80161E00E94780C1F910F91089512
:101C1000F8941092F8020E947D0308950F931F9389
:101C200021C00FB6F8940F92E0914503F09146035E
:101C300006811781C80102960E94D5028091F702A1
:101C400081508093F7028091FB0281508093FB02C8
:101C50000F900FBEF8018789908D0E942E02C80157
:101C60000E942E028091FB028823E1F3DACF0F93CA
:101C70001F93CF93DF930FB6F8940F92009711F054
:101C8000EC0104C0C091EC02D091ED028E010E5F18
:101C90001F4FC8010E94D5028C899D89892B21F094
:101CA000CE010C960E94D5028091FC028F5F80933A
:101CB000FC028091EC029091ED02C817D90759F40B
:101CC00080E493E0B8010E9484028091FB028F5F60
:101CD0008093FB0226C08091F70281508093F70227
:101CE0008F89988D0E942E02CE010E942E02E091D3
:101CF0003303F09134038081882319F48FEF9FEF31
:101D00000CC0E0913303F09134030580F681E02D9F
:101D10000680F781E02D828193819093F402809375
:101D2000F3020F900FBE8091F802882349F0809152
:101D3000EC029091ED02C817D90711F40E94DE035E
:101D4000DF91CF911F910F9108954F925F926F9203
:101D50007F928F929F92AF92BF92CF92DF92EF923B
:101D6000FF920F931F93CF93DF932C015B016A01C6
:101D700039014701CA010E943E027C01009781F0AF
:101D800086E290E00E943E02EC01009731F0F88E6E
:101D9000EF8AA114B10431F416C0C7010E942E02CB
:101DA0008FEFBCC0F501DC0190E0808159968C93E7
:101DB00059978081882329F09F5F3196119698303A
:101DC000A1F718A201C0198E043008F003E00E8BB1
:101DD00042E0A42EB12CAC0EBD1EC5010E948002B3
:101DE000CE010C960E948002D987C88784E090E0DB
:101DF000801B91099D878C87DB8BCA8B19A21AA245
:101E00001BA21CA21DA20894C108D108C7018C0DF9
:101E10009D1DB201A3010E94000399838883811450
:101E2000910419F0F401D183C0830FB6F8940F9296
:101E30008091F7028F5F8093F7028091EC0290917E
:101E4000ED02892BA9F5D093ED02C093EC028091AD
:101E5000F7028130E9F58DEF92E00E94700286E092
:101E600093E00E9470028FE093E00E94700288E18C
:101E700093E00E94700231E2E32E33E0F32EC701BB
:101E80000E9470020AE213E0C8010E94700287E318
:101E900093E00E94700280E493E00E947002F0924E
:101EA0003403E0923303109336030093350310C0DC
:101EB0008091F802882361F4E091EC02F091ED0248
:101EC00096898E89891720F0D093ED02C093EC0299
:101ED0008091FC028F5F8093FC029E898091EF02CB
:101EE000891710F49093EF0289E0989FC0011124A4
:101EF00083509D4FB5010E9484020F900FBE8091C8
:101F0000F802882351F0E091EC02F091ED029689FD
:101F10008E89981710F40E94DE0381E0DF91CF9143
:101F20001F910F91FF90EF90DF90CF90BF90AF90F7
:101F30009F908F907F906F905F904F900895EF9259
:101F4000FF920F938EE09EE062E770E045E550E07F
:101F500020E030E000E0E9EFEE2EE2E0FE2E0E940D
:101F6000A50E813081F4F8948FEF9FEF9093F402E7
:101F70008093F30281E08093F8021092F2021092B3
:101F8000F1020E9448030F91FF90EF900895E82F0F
:101F9000F0E0EE0FFF1FE957FF4F0190F081E02DB9
:101FA00060830895E82FF0E0EE0FFF1FDF01A957CF
:101FB000BF4F0D90BC91A02D1C92E158FF4F019096
:101FC000F081E02D8FEF80830895E82FF0E0442327
:101FD00091F0EE0FFF1FE957FF4F0190F081E02DC8
:101FE000208181E090E002C0880F991F6A95E2F796
:101FF000282B20830895EE0FFF1FE957FF4F019014
:10200000F081E02D208181E090E002C0880F991FCF
:102010006A95E2F78095822380830895A82FB0E027
:10202000AA0FBB1FFD01E957FF4F0190F081E02D82
:10203000908121E030E002C0220F331F6A95E2F761
:10204000822F809589238083A158BF4FED91FC9109
:102050008081822B80830895E82FF0E0EE0FFF1F30
:10206000E158FF4F0190F081E02D8FEF80830895BC
:10207000E82FF0E0EE0FFF1FE158FF4F0190F081D5
:10208000E02D10820895E82FF0E0EE0FFF1FE158D9
:10209000FF4F0190F081E02D80818095808308952D
:1020A000E82FF0E0EE0FFF1FE158FF4F0190F081A5
:1020B000E02D60830895E82FF0E0EE0FFF1FE15858
:1020C000FF4F0190F081E02D208181E090E002C07F
:1020D000880F991F6A95E2F7282B20830895E82F2F
:1020E000F0E0EE0FFF1FE158FF4F0190F081E02D6F
:1020F000208181E090E002C0880F991F6A95E2F785
:102100008095822380830895E82FF0E0EE0FFF1F73
:10211000E158FF4F0190F081E02D208181E090E0B7
:1021200002C0880F991F6A95E2F728272083089537
:10213000E82FF0E0442391F0EE0FFF1FE158FF4F2E
:102140000190F081E02D208181E090E002C0880FB5
:10215000991F6A95E2F7282B20830895EE0FFF1F41
:10216000E158FF4F0190F081E02D208181E090E067
:1021700002C0880F991F6A95E2F7809582238083B9
:102180000895E82FF0E0EE0FFF1FE958FF4F019090
:10219000F081E02D80810895E82FF0E0EE0FFF1F21
:1021A000E958FF4F0190F081E02D808190E002C05E
:1021B000959587956A95E2F781700895FB01DC019A
:1021C00002C001900D9241505040D8F70895F89404
:0221D000FFCF3F
:1021D2004C45445F31004C45445F32004C45445FFE
:1021E200330049444C450039003600330030003B8F
:1021F200003800350032003A003700340031000068
:00000001FF
