:100000000C942A000C9447000C9447000C94470071
:100010000C9447000C9447000C9447000C94470044
:100020000C9447000C9447000C9447000C94470034
:100030000C9447000C947E000C94A8000C94B20021
:100040000C9447000C9447000C9447000C94470014
:100050000C94470011241FBECFE5D8E0DEBFCDBF12
:1000600010E0A0E6B0E0E8EDF1E002C005900D92EE
:10007000A636B107D9F710E0A6E6B0E001C01D92A0
:10008000AB36B107E1F70E94DA000C94EA000C9459
:10009000000010BC83E389B988ED8AB986E880BD89
:1000A0008FB780688FBF08958BB1829586958170D8
:1000B00008955D9BFECF8CB9089520916A00FC01E4
:1000C000E20FF11DE081EE2339F410926A001092E4
:1000D0006700109266000895222321F49093670030
:1000E000809366005D9BFECFECB92F5F20936A0082
:1000F0000895909369008093680008951F920F926D
:100100000FB60F9211242F933F934F935F936F93EA
:100110007F938F939F93AF93BF93EF93FF93E09160
:100120006800F0916900309711F08CB10995FF914A
:10013000EF91BF91AF919F918F917F916F915F915F
:100140004F913F912F910F900FBE0F901F901895D8
:100150001F920F920FB60F9211240F900FBE0F90A7
:100160001F9018951F920F920FB60F9211242F9384
:100170003F934F935F936F937F938F939F93AF932F
:10018000BF93EF93FF9380916600909167000E9468
:100190005D00FF91EF91BF91AF919F918F917F9102
:1001A0006F915F914F913F912F910F900FBE0F90E4
:1001B0001F9018950E94490080E197E228EC30E0FA
:1001C000F9013197F1F70197D9F780E690E00E94A5
:0801D0005D00FFCFF894FFCFA2
:0601D8006F6D6172000072
:00000001FF
