:100000000C942A000C9447000C9447000C94470071
:100010000C9447000C9447000C9447000C94470044
:100020000C9447000C9447000C9447000C94470034
:100030000C9447000C9447000C9447000C94470024
:100040000C949B0C0C9447000C9447000C944700B4
:100050000C94470011241FBECFE5D8E0DEBFCDBF12
:1000600011E0A0E6B0E0EEEDFAE102C005900D92DD
:10007000AC38B107D9F711E0ACE8B1E001C01D928E
:10008000AE38B107E1F70E943D070C946D0D0C945A
:100090000000A0E0B0E0EFE4F0E00C94360DDC01ED
:1000A0002B01FA019C91923008F439C1EB0188814F
:1000B000823008F433C1943069F4843009F02FC1E0
:1000C00011969C9111978981981709F428C1A9E686
:1000D000B0E025C1843009F421C18230A9F4923006
:1000E00009F01DC19A01AD0188E0EA010990AE0155
:1000F000E90109929E018150C1F7E20189811196BF
:100100009C918923818308C1923009F407C112961A
:100110002D903C901397EB018A819B811496AD90B2
:10012000BD90CD90DC901797EC80FD800E811F81F3
:100130009101281B390BB90137FF04C066277727C7
:10014000621B730B603271050CF061C0121613064E
:100150006CF537014801062E04C096948794779475
:1001600067940A94D2F721E030E040E050E004C008
:10017000220F331F441F551F6A95D2F7215030407C
:10018000404050402E213F2140235123211531056D
:100190004105510521F021E030E040E050E07901D7
:1001A0008A01E628F728082919293CC0232BD1F118
:1001B000260E371E35014601062E04C096948794FC
:1001C000779467940A94D2F721E030E040E050E061
:1001D00004C0220F331F441F551F6A95D2F72150C8
:1001E0003040404050402A213B214C215D212115C7
:1001F00031054105510521F021E030E040E050E0BB
:1002000059016A01A628B728C828D9280BC0821529
:1002100093052CF01C01AA24BB24650103C0EE2425
:10022000FF24870111969C91D20111968C91981709
:1002300009F445C0992339F0A80197012A193B090F
:100240004C095D0906C0A60195012E193F09400B16
:10025000510B57FD08C011823382228224833583DB
:10026000468357831DC081E08183338222828827A1
:100270009927DC01821B930BA40BB50B8483958318
:10028000A683B7830DC0220F331F441F551F24833D
:100290003583468357838281938101979383828339
:1002A0002481358146815781DA01C9010197A1096D
:1002B000B1098F5F9F4FAF4FBF4328F30BC09183AE
:1002C00033822282EA0CFB1C0C1D1D1DE482F58288
:1002D0000683178383E0808324813581468157819B
:1002E00057FF1AC0C901AA2797FDA095BA2F8170A0
:1002F0009070A070B0705695479537952795822BD2
:10030000932BA42BB52B84839583A683B7838281FB
:100310009381019693838283DF0101C0D201CD01D5
:10032000CDB7DEB7E2E10C94520DA0E2B0E0EBE90C
:10033000F1E00C94420D69837A838B839C832D8337
:100340003E834F835887E9E0EE2EF12CEC0EFD1E24
:10035000CE010196B7010E9418068E010F5E1F4F55
:10036000CE010596B8010E9418068A8991E0892776
:100370008A8BC701B801AE01475E5F4F0E944900FA
:100380000E944305A096E6E00C945E0DA0E2B0E06A
:10039000ECECF1E00C94420D69837A838B839C83AF
:1003A0002D833E834F835887F9E0EF2EF12CEC0E1E
:1003B000FD1ECE010196B7010E9418068E010F5E48
:1003C0001F4FCE010596B8010E941806C701B8015B
:1003D000AE01475E5F4F0E9449000E944305A09610
:1003E000E6E00C945E0DA0E2B0E0E9EFF1E00C94E1
:1003F000360D69837A838B839C832D833E834F8361
:100400005887CE010196BE01675F7F4F0E94180694
:10041000CE010596BE016F5E7F4F0E94180699853A
:10042000923088F089898230C8F0943019F4823093
:1004300051F404C0843029F4923081F489E690E0CC
:10044000C6C0923049F420E09A858A89981321E049
:100450002A87CE010996BBC0823049F420E09A85F4
:100460008A89981321E02A8BCE014196B0C02D8451
:100470003E844F8458886D887E888F88988CEE24BF
:10048000FF248701AA24BB24650140E050E060E01E
:1004900070E0E0E0F0E0C10181709070892BE9F03C
:1004A000E60CF71C081D191D9A01AB012A0D3B1D16
:1004B0004C1D5D1D80E090E0A0E0B0E0E614F70484
:1004C0000805190520F481E090E0A0E0B0E0BA0151
:1004D000A901480F591F6A1F7B1FAA0CBB1CCC1C0B
:1004E000DD1C97FE08C081E090E0A0E0B0E0A82A03
:1004F000B92ACA2ADB2A3196E032F10549F0660CA6
:10050000771C881C991C5694479437942794C3CF22
:10051000FA85EA892B893C898B859C85280F391FB0
:100520002E5F3F4F17C0CA0181709070892B61F018
:1005300016950795F794E79480E090E0A0E0B0E886
:10054000E82AF92A0A2B1B2B76956795579547952C
:100550002F5F3F4F77FDE7CF0CC0440F551F661F3D
:10056000771F17FD4160EE0CFF1C001F111F21506B
:100570003040403090E0590790E0690790E47907F7
:1005800060F32B8F3C8FDB01CA018F779070A070D6
:10059000B07080349105A105B10561F447FD0AC032
:1005A000E114F1040105110529F0405C5F4F6F4F24
:1005B0007F4F40781A8EFE1711F081E08A8F4D8FA1
:1005C0005E8F6F8F78A383E0898FCE0149960E945A
:1005D0004305A096E2E10C94520DA8E1B0E0E3EFF0
:1005E000F2E00C943E0D69837A838B839C832D8388
:1005F0003E834F835887B9E0EB2EF12CEC0EFD1EA5
:10060000CE010196B7010E9418068E010F5E1F4FA2
:10061000CE010596B8010E9418062985223008F4FB
:100620007EC03989323010F4B8017CC08A859A893D
:1006300089278A87243011F0223031F4231709F0FA
:100640006EC069E670E06EC0343039F41D861E86D7
:100650001F86188A1C861B8604C0323021F484E071
:100660008987B7015FC02B853C858B899C89281BB6
:10067000390B3C872B87ED84FE840F851889AD8864
:10068000BE88CF88D88CEA14FB040C051D0540F405
:10069000EE0CFF1C001F111F215030403C872B87A0
:1006A00020E030E040E050E080E090E0A0E0B0E406
:1006B00060E070E0EA14FB040C051D0540F0282BF7
:1006C000392B4A2B5B2BEA18FB080C091D09B69540
:1006D000A79597958795EE0CFF1C001F111F6F5F64
:1006E0007F4F6F31710531F7DA01C9018F77907053
:1006F000A070B07080349105A105B10561F427FDAB
:100700000AC0E114F1040105110529F0205C3F4FF6
:100710004F4F5F4F20782D873E874F87588BBE0104
:10072000675F7F4FCB010E9443056896EAE00C9417
:100730005A0DA8E1B0E0EFE9F3E00C94420D6983B3
:100740007A838B839C832D833E834F83588789E0F4
:10075000E82EF12CEC0EFD1ECE010196B7010E9491
:1007600018068E010F5E1F4FCE010596B8010E943C
:1007700018068985823040F08989823028F0C701C7
:10078000B8010E94900601C081E06896E6E00C94F2
:100790005E0DA8E0B0E0EFECF3E00C943F0D9B01A0
:1007A000AC0183E08983DA01C9018827B7FD83950D
:1007B0009927AA27BB27B82E2115310541055105D8
:1007C00019F482E089833AC08823A9F0203080E0C0
:1007D000380780E0480780E8580729F460E070E0B7
:1007E00080E09FEC30C0EE24FF248701E21AF30A78
:1007F000040B150B02C079018A018EE1C82ED12CA1
:10080000DC82CB82ED82FE820F831887C801B7019C
:100810000E94F40401971816190684F4082E04C0E7
:10082000EE0CFF1C001F111F0A94D2F7ED82FE820E
:100830000F831887C81AD90ADC82CB82BA82CE010C
:1008400001960E9443052896E9E00C945B0DACE00C
:10085000B0E0EDE2F4E00C94460D69837A838B837B
:100860009C83CE010196BE016B5F7F4F0E941806EC
:100870008D81823061F1823050F1843021F48E819B
:10088000882351F12EC02F81388537FD20C06E811D
:100890002F3131051CF06623F9F023C08EE190E082
:1008A000821B930B29853A854B855C8504C0569540
:1008B0004795379527958A95D2F76623B1F05095DD
:1008C0004095309521953F4F4F4F5F4F0EC020E030
:1008D00030E040E050E009C02FEF3FEF4FEF5FE71F
:1008E00004C020E030E040E050E8B901CA012C9695
:1008F000E2E00C94620DA8E0B0E0E1E8F4E00C94D2
:100900003E0D7B018C01611571058105910519F47E
:1009100082E0898360C083E089838EE1C82ED12C78
:10092000DC82CB82ED82FE820F831887C801B7017B
:100930000E94F404FC013197F7FF3BC022273327C4
:100940002E1B3F0B57016801022E04C0D694C7949A
:10095000B794A7940A94D2F740E050E060E070E0CA
:1009600081E090E0A0E0B0E004C0880F991FAA1FCA
:10097000BB1F2A95D2F70197A109B1098E219F21AA
:10098000A023B1230097A105B10521F041E050E07B
:1009900060E070E04A295B296C297D294D835E83E4
:1009A0006F8378878EE190E08E1B9F0B9C838B83F7
:1009B00012C0309781F00E2E04C0EE0CFF1C001FF9
:1009C000111F0A94D2F7ED82FE820F831887CE1A88
:1009D000DF0ADC82CB821A82CE0101960E94430597
:1009E0002896EAE00C945A0DEF92FF920F931F9312
:1009F0007B018C0180E0E81680E0F80681E00807C2
:100A000080E0180788F48FEFE816F104010511055E
:100A100031F028F088E090E0A0E0B0E017C080E07E
:100A200090E0A0E0B0E012C080E0E81680E0F806B8
:100A300080E0080781E0180728F088E190E0A0E056
:100A4000B0E004C080E190E0A0E0B0E020E230E05F
:100A500040E050E0281B390B4A0B5B0B04C0169595
:100A60000795F794E7948A95D2F7F701EF58FF4F6F
:100A70008081281B310941095109C9011F910F913A
:100A8000FF90EF900895DF92EF92FF920F931F93E4
:100A9000FC01E480F58006811781D180808182305D
:100AA00048F480E090E0A0E1B0E0E82AF92A0A2BBF
:100AB0001B2BA5C0843009F49FC0823021F4EE24A2
:100AC000FF24870105C0E114F1040105110519F4A3
:100AD000E0E0F0E096C0628173819FEF62387907B1
:100AE0000CF05BC022E83FEF261B370B2A313105A3
:100AF0002CF020E030E040E050E02AC0B801A7012F
:100B0000022E04C076956795579547950A94D2F7BB
:100B100081E090E0A0E0B0E004C0880F991FAA1F18
:100B2000BB1F2A95D2F70197A109B1098E219F21F8
:100B3000A023B1230097A105B10521F081E090E049
:100B4000A0E0B0E09A01AB01282B392B4A2B5B2B9C
:100B5000DA01C9018F779070A070B0708034910570
:100B6000A105B10539F427FF09C0205C3F4F4F4F65
:100B70005F4F04C0215C3F4F4F4F5F4FE0E0F0E01C
:100B80002030A0E03A07A0E04A07A0E45A0710F09E
:100B9000E1E0F0E079018A0127C06038710564F571
:100BA000FB01E158FF4FD801C7018F779070A0700B
:100BB000B07080349105A105B10539F4E7FE0DC090
:100BC00080E490E0A0E0B0E004C08FE390E0A0E01B
:100BD000B0E0E80EF91E0A1F1B1F17FF05C016958F
:100BE0000795F794E794319687E016950795F79463
:100BF000E7948A95D1F705C0EE24FF248701EFEF33
:100C0000F0E06E2F679566276795902F9F77D794B2
:100C1000DD24D7948E2F8695492F462B582F5D299A
:100C2000B701CA011F910F91FF90EF90DF900895D7
:100C3000FC01DB01408151812281622F6F7770E0DE
:100C4000221F2227221F9381892F880F822B282F72
:100C500030E0991F9927991F11969C9311972115A0
:100C60003105A9F5411551056105710511F482E0C1
:100C700037C082E89FEF13969C938E9312979A0148
:100C8000AB0167E0220F331F441F551F6A95D1F750
:100C900083E08C930DC0220F331F441F551F129603
:100CA0008D919C911397019713969C938E93129715
:100CB000203080E0380780E0480780E4580758F388
:100CC00014962D933D934D935C93179708952F3F62
:100CD000310579F4411551056105710519F484E078
:100CE0008C93089564FF03C081E08C9312C01C9222
:100CF00010C02F57304013963C932E93129783E0E9
:100D00008C9387E0440F551F661F771F8A95D1F794
:100D1000706414964D935D936D937C93179708952B
:100D20001F93DC01FB019C91923008F447C0808145
:100D3000823008F443C0943051F411961C918430F1
:100D400099F58181682F70E0611B71093FC0843083
:100D500021F0923031F48230B9F18181882389F118
:100D60002DC011961C9111978230F1F081811817D6
:100D7000D9F412962D913C91139782819381821719
:100D8000930794F028173907BCF014968D919D9124
:100D90000D90BC91A02D2481358146815781281763
:100DA00039074A075B0718F4112341F00AC082177C
:100DB0009307A407B50740F4112319F061E070E030
:100DC00005C06FEF7FEF02C060E070E0CB011F91C4
:100DD0000895CF92DF92FF920F931F93DF93CF93EB
:100DE00000D0CDB7DEB71A82198281E791E00E9468
:100DF0005D0C00E010E0FF246E010894C11CD11CC2
:100E0000C6010E948C0C89819A81080F191FF394E6
:100E10008AE0F816A9F7C8016AE070E00E94E50CC4
:100E200080E090E00E947B0420E030E040E85AE35C
:100E30000E94F30120E030E44CE955E40E94F30104
:100E400020E030E040E251E40E94ED020F900F906C
:100E5000CF91DF911F910F91FF90DF90CF90089578
:100E6000982F883038F49F7180917101807E892B92
:100E7000809371010E94580C0895AF92BF92CF9257
:100E8000DF92EF92FF920F931F930E94230980E657
:100E900090E00E94BE0A80E00E9430070E94E906AE
:100EA0007B018C01AA24BB24CC24DD24B701C8011A
:100EB0009501A6010E949903882359F080E068E01B
:100EC0000E941509B701C80142E00E94560A570165
:100ED00068010E94E9067B018C01E8CFDF92EF9266
:100EE000FF920F931F93CF93DF93E82EFF2400E030
:100EF00010E0282F70E030E040E0DD24C62FD0E085
:100F000021970BC0622F832F942FA80197010E9475
:100F1000C60C262F382F492FD3948D2D90E08C1797
:100F20009D0784F3622F832F942FDF91CF911F9120
:100F30000F91FF90EF90DF90089508950F931F9306
:100F400082E067E040E00E945F0B82E066E040E004
:100F50000E945F0B82E065E040E00E945F0B82E050
:100F600064E040E00E945F0B82E062E00E94E90BD7
:100F700082E061E00E94D50B12E0812F8A95F1F7A3
:100F800082E060E00E94D50B812F8A95F1F782E024
:100F90000E943B0C082F0295007F82E060E00E94D7
:100FA000E90B8AE18A95F1F782E060E00E94D50BB7
:100FB0001A95F1F782E00E943B0C082B82E060E07A
:100FC0000E94E90B82E067E04FEF0E945F0B82E036
:100FD00066E04FEF0E945F0B82E065E04FEF0E94FA
:100FE0005F0B82E064E04FEF0E945F0B802F8F77F2
:100FF0001F910F9108950F931F93CF93DF9382E07A
:1010000062E00E94E90B82E061E00E94E90B12E0DD
:10101000812F8A95F1F782E060E00E94D50B1A9546
:10102000F1F7C0E0D0E002E010E0CE018C5F682F65
:10103000A8010C2E02C0559547950A94E2F741701D
:1010400082E00E94120C2196C430D10571F782E033
:1010500060E00E94E90B8AE18A95F1F782E060E0A6
:101060000E94D50B82E08A95F1F7C0E0D0E002E063
:1010700010E0CE018C5F682FA8010C2E02C05595A0
:1010800047950A94E2F7417082E00E94120C219683
:10109000C430D10571F782E060E00E94E90B8AE17B
:1010A0008A95F1F782E060E00E94D50B82E08A9594
:1010B000F1F7C0E0D0E008E010E0CE018C5F682FCF
:1010C000A8010C2E02C0559547950A94E2F741708D
:1010D00082E00E94120C2196C430D10571F782E0A3
:1010E00060E00E94E90B8AE18A95F1F7DF91CF91E8
:1010F0001F910F910895EF92FF920F931F93CF933B
:10110000DF93082F82E062E00E94E90B82E061E059
:101110000E94E90B12E0812F8A95F1F782E060E0EE
:101120000E94D50B812F8A95F1F7E02EFF24A701AD
:1011300034E0559547953A95E1F7417082E064E0D7
:101140000E94120CA70125E0559547952A95E1F7D5
:10115000417082E065E00E94120CA70196E055956F
:1011600047959A95E1F7417082E066E00E94120C83
:10117000A701440F452F441F550B417082E067E0E3
:101180000E94120C82E060E00E94E90B8AE18A95DD
:10119000F1F782E060E00E94D50B1A95F1F7C0E00C
:1011A000D0E0CE018C5F682FA7010C2E02C05595B0
:1011B00047950A94E2F7417082E00E94120C219652
:1011C000C430D10571F782E060E00E94E90BDF9145
:1011D000CF911F910F91FF90EF9008958CE00E94A6
:1011E0007B0885E88A95F1F7089588E00E947B08DE
:1011F00084EF91E028EC30E0F9013197F1F70197A5
:10120000D9F708950F931F9381E00E947B0800EAAD
:101210001FE0C8010197F1F782E00E947B08C80136
:101220000197F1F71F910F91089590E0029646E023
:10123000880F991F4A95E1F7860F0E947B0885E881
:101240008A95F1F708951F9382E067E04FEF0E94BF
:101250005F0B82E066E04FEF0E945F0B82E065E08B
:101260004FEF0E945F0B82E064E04FEF0E945F0B44
:1012700082E060E04FEF0E945F0B82E061E04FEFA1
:101280000E945F0B82E062E04FEF0E945F0B84EFF1
:1012900091E028EC30E0F9013197F1F70197D9F7A7
:1012A0000E94FB0715E8812F8A95F1F78CE00E94D8
:1012B0007B081A95F1F781E00E947B0880EA9FE0A5
:1012C0000197F1F71F910895EF92FF920F931F93EB
:1012D000CF93DF93082F82E062E00E94D50B82E07B
:1012E00061E00E94E90B12E0812F8A95F1F782E01C
:1012F00060E00E94D50B812F8A95F1F7E02EFF2444
:10130000A701F4E055954795FA95E1F7417082E021
:1013100064E00E94120CA701E5E055954795EA9517
:10132000E1F7417082E065E00E94120CA70176E0CF
:10133000559547957A95E1F7417082E066E00E9405
:10134000120CA701440F452F441F550B417082E03A
:1013500067E00E94120C82E060E00E94E90B8AE1E3
:101360008A95F1F782E060E00E94D50B1A95F1F7BB
:10137000C0E0D0E0CE018C5F682FA7010C2E02C028
:10138000559547950A94E2F7417082E00E94120C4D
:101390002196C430D10571F782E060E00E94E90B2C
:1013A000DF91CF911F910F91FF90EF9008950E94D0
:1013B000640985E88A95F1F70895AF92BF92CF92BC
:1013C000DF92EF92FF920F931F93DF93CF93CDB7EE
:1013D000DEB72A970FB6F894DEBF0FBECDBF7B01F4
:1013E0008C01611571058105910521F480E30E944E
:1013F000D7090DC097FF0BC08DE20E94D709109549
:101400000095F094E094E11CF11C011D111D5E019A
:101410000894A11CB11CDD2423C0C801B7012AE037
:1014200030E040E050E00E94F90CF50161935F016B
:10143000D394FBE0DF1641F411E0ED2CFF246E01A4
:101440000894C11CD11C1CC0C801B7012AE030E0BF
:1014500040E050E00E94F90CC901DA017C018D01E5
:10146000E114F10401051105C1F6E6CFF701E81B0F
:10147000F90BEC0DFD1D8081805D0E94D7091F5F77
:10148000812F90E0E816F9068CF72A960FB6F894AB
:10149000DEBF0FBECDBFCF91DF911F910F91FF90A7
:1014A000EF90DF90CF90BF90AF9008952F923F9232
:1014B0004F925F926F927F928F929F92AF92BF9264
:1014C000CF92DF92EF92FF920F931F93CF93DF9310
:1014D0001B012C01142F0E9427043B014C0100E04A
:1014E000AAE0AA2EB12CC12CD12CC12FD0E021977B
:1014F0000BC0C601B5012AE030E040E050E00E9498
:10150000C60C5B016C010F5F802F90E08C179D076C
:1015100084F3C401B3010E94DD098EE20E94D70961
:10152000C401B3010E94C9039B01AC01C201B10116
:101530000E9495017B018C01C601B5010E94C9037F
:101540009B01AC01C801B7010E94F3010E9427046E
:101550006F770E94DD09DF91CF911F910F91FF906E
:10156000EF90DF90CF90BF90AF909F908F907F9043
:101570006F905F904F903F902F9008951F93CF935F
:10158000DF93EC0110E003C00E94D7091F5FFE014A
:10159000E10FF11D80818823B9F7DF91CF911F9171
:1015A00008951F9382E060E00E94410B84EF91E078
:1015B00028EC30E0F9013197F1F70197D9F782E093
:1015C00062E00E94E90B82E061E00E94D50B12E02C
:1015D000812F8A95F1F782E060E00E94D50B1A9581
:1015E000F1F782E00E943B0C182F82E060E00E943D
:1015F000E90B82E06FEF0E94410B812F8F771F91E3
:1016000008950F931F93082F82E062E00E94E90B78
:1016100082E061E00E94E90B12E0812F8A95F1F7E8
:1016200082E060E00E94D50B1A95F1F782E0602F0E
:101630000E94CA0B82E060E00E94E90B1F910F91AB
:1016400008950F931F93082F82E062E00E94D50B4C
:1016500082E061E00E94E90B12E0812F8A95F1F7A8
:1016600082E060E00E94D50B1A95F1F782E0602FCE
:101670000E94CA0B82E060E00E94E90B1F910F916B
:101680000895E82FF0E0EE0FFF1FED57FE4F019099
:10169000F081E02D60830895E82FF0E0EE0FFF1F4A
:1016A000DF01AD57BE4F0D90BC91A02D1C92E558A7
:1016B000FE4F0190F081E02D8FEF80830895E82F99
:1016C000F0E0442391F0EE0FFF1FED57FE4F019025
:1016D000F081E02D208181E090E002C0880F991F09
:1016E0006A95E2F7282B20830895EE0FFF1FED5730
:1016F000FE4F0190F081E02D208181E090E002C05A
:10170000880F991F6A95E2F7809582238083089558
:10171000A82FB0E0AA0FBB1FFD01ED57FE4F0190AF
:10172000F081E02D908121E030E002C0220F331FD4
:101730006A95E2F7822F809589238083A558BE4F52
:10174000ED91FC918081822B80830895E82FF0E059
:10175000EE0FFF1FE558FE4F0190F081E02D8FEF57
:1017600080830895E82FF0E0EE0FFF1FE558FE4F4D
:101770000190F081E02D10820895E82FF0E0EE0F47
:10178000FF1FE558FE4F0190F081E02D808180958C
:1017900080830895E82FF0E0EE0FFF1FE558FE4F1D
:1017A0000190F081E02D60830895E82FF0E0EE0FC6
:1017B000FF1FE558FE4F0190F081E02D208181E070
:1017C00090E002C0880F991F6A95E2F7282B2083CA
:1017D0000895E82FF0E0EE0FFF1FE558FE4F01904F
:1017E000F081E02D208181E090E002C0880F991FF8
:1017F0006A95E2F78095822380830895E82FF0E0D0
:10180000EE0FFF1FE558FE4F0190F081E02D208183
:1018100081E090E002C0880F991F6A95E2F72827BF
:1018200020830895E82FF0E0442391F0EE0FFF1F8E
:10183000E558FE4F0190F081E02D208181E090E09D
:1018400002C0880F991F6A95E2F7282B208308951C
:10185000EE0FFF1FE558FE4F0190F081E02D208133
:1018600081E090E002C0880F991F6A95E2F78095A9
:10187000822380830895E82FF0E0EE0FFF1FED58DC
:10188000FE4F0190F081E02D80810895E82FF0E077
:10189000EE0FFF1FED58FE4F0190F081E02D80818B
:1018A00090E002C0959587956A95E2F7817008955A
:1018B0003D983E9A3F98379A0895FC0187B1807E03
:1018C00087B997B180818F71892B87B986B1887F5D
:1018D00086B996B18081829586958770892B86B965
:1018E00080B78F7180BF90B7818186958770892B73
:1018F00080BF818180FF02C0359A01C0359884FF86
:1019000004C0339A8FB7806803C033988FB78F773E
:101910008FBF0895369A0895FC01369A349BFECF06
:10192000349A84B195B191838083089590938D0109
:1019300080938C0108951F920F920FB60F9211247D
:101940002F933F934F935F936F937F938F939F93C7
:10195000AF93BF93EF93FF93E0918C01F0918D01D2
:10196000309719F084B195B10995FF91EF91BF912E
:10197000AF919F918F917F916F915F914F913F9127
:101980002F910F900FBE0F901F901895629FD0015E
:10199000739FF001829FE00DF11D649FE00DF11D2A
:1019A000929FF00D839FF00D749FF00D659FF00DD9
:1019B0009927729FB00DE11DF91F639FB00DE11DC6
:1019C000F91FBD01CF0111240895AA1BBB1B51E1D2
:1019D00007C0AA1FBB1FA617B70710F0A61BB70B9F
:1019E000881F991F5A95A9F780959095BC01CD0144
:1019F000089597FB092E05260ED057FD04D014D06C
:101A00000AD0001C38F450954095309521953F4FF1
:101A10004F4F5F4F0895F6F79095809570956195BB
:101A20007F4F8F4F9F4F0895A1E21A2EAA1BBB1B19
:101A3000FD010DC0AA1FBB1FEE1FFF1FA217B3079A
:101A4000E407F50720F0A21BB30BE40BF50B661FB0
:101A5000771F881F991F1A9469F760957095809574
:101A600090959B01AC01BD01CF0108952F923F924B
:101A70004F925F926F927F928F929F92AF92BF929E
:101A8000CF92DF92EF92FF920F931F93CF93DF934A
:101A9000CDB7DEB7CA1BDB0B0FB6F894DEBF0FBEA7
:101AA000CDBF09942A88398848885F846E847D84F4
:101AB0008C849B84AA84B984C884DF80EE80FD80F6
:101AC0000C811B81AA81B981CE0FD11D0FB6F8946C
:0E1AD000DEBF0FBECDBFED010895F894FFCF2D
:101ADE0056616C7565203D2000000000000000007E
:101AEE0000000102020303030304040404040404BB
:101AFE000405050505050505050505050505050589
:101B0E000506060606060606060606060606060668
:101B1E000606060606060606060606060606060657
:101B2E000607070707070707070707070707070738
:101B3E000707070707070707070707070707070727
:101B4E000707070707070707070707070707070717
:101B5E000707070707070707070707070707070707
:101B6E0007080808080808080808080808080808E8
:101B7E0008080808080808080808080808080808D7
:101B8E0008080808080808080808080808080808C7
:101B9E0008080808080808080808080808080808B7
:101BAE0008080808080808080808080808080808A7
:101BBE000808080808080808080808080808080897
:101BCE000808080808080808080808080808080887
:101BDE000808080808080808080808080808080877
:101BEE0008400039003600330030003B0038003525
:0C1BFE000032003A0037003400310000D3
:00000001FF
