:100000000C942A000C9447000C9447000C94470071
:100010000C9447000C9447000C9447000C94470044
:100020000C9447000C9447000C9447000C94470034
:100030000C9447000C9447000C9447000C94470024
:100040000C94F70A0C9447000C9447000C9447005A
:100050000C94470011241FBECFE5D8E0DEBFCDBF12
:1000600011E0A0E6B0E0E6E9F7E102C005900D92EC
:10007000A838B107D9F711E0A8E8B1E001C01D9296
:10008000AC38B107E1F70E943B050C94C90B0C9406
:100090000000A0E0B0E0EFE4F0E00C94920BDC0193
:1000A0002B01FA019C91923008F439C1EB0188814F
:1000B000823008F433C1943069F4843009F02FC1E0
:1000C00011969C9111978981981709F428C1A8E687
:1000D000B0E025C1843009F421C18230A9F4923006
:1000E00009F01DC19A01AD0188E0EA010990AE0155
:1000F000E90109929E018150C1F7E20189811196BF
:100100009C918923818308C1923009F407C112961A
:100110002D903C901397EB018A819B811496AD90B2
:10012000BD90CD90DC901797EC80FD800E811F81F3
:100130009101281B390BB90137FF04C066277727C7
:10014000621B730B603271050CF061C0121613064E
:100150006CF537014801062E04C096948794779475
:1001600067940A94D2F721E030E040E050E004C008
:10017000220F331F441F551F6A95D2F7215030407C
:10018000404050402E213F2140235123211531056D
:100190004105510521F021E030E040E050E07901D7
:1001A0008A01E628F728082919293CC0232BD1F118
:1001B000260E371E35014601062E04C096948794FC
:1001C000779467940A94D2F721E030E040E050E061
:1001D00004C0220F331F441F551F6A95D2F72150C8
:1001E0003040404050402A213B214C215D212115C7
:1001F00031054105510521F021E030E040E050E0BB
:1002000059016A01A628B728C828D9280BC0821529
:1002100093052CF01C01AA24BB24650103C0EE2425
:10022000FF24870111969C91D20111968C91981709
:1002300009F445C0992339F0A80197012A193B090F
:100240004C095D0906C0A60195012E193F09400B16
:10025000510B57FD08C011823382228224833583DB
:10026000468357831DC081E08183338222828827A1
:100270009927DC01821B930BA40BB50B8483958318
:10028000A683B7830DC0220F331F441F551F24833D
:100290003583468357838281938101979383828339
:1002A0002481358146815781DA01C9010197A1096D
:1002B000B1098F5F9F4FAF4FBF4328F30BC09183AE
:1002C00033822282EA0CFB1C0C1D1D1DE482F58288
:1002D0000683178383E0808324813581468157819B
:1002E00057FF1AC0C901AA2797FDA095BA2F8170A0
:1002F0009070A070B0705695479537952795822BD2
:10030000932BA42BB52B84839583A683B7838281FB
:100310009381019693838283DF0101C0D201CD01D5
:10032000CDB7DEB7E2E10C94AE0BA0E2B0E0EBE9B2
:10033000F1E00C949E0B69837A838B839C832D83DD
:100340003E834F835887E9E0EE2EF12CEC0EFD1E24
:10035000CE010196B7010E94C3048E010F5E1F4FAC
:10036000CE010596B8010E94C3048A8991E08927CD
:100370008A8BC701B801AE01475E5F4F0E944900FA
:100380000E94EE03A096E6E00C94BA0BA0E2B0E067
:10039000ECECF1E00C949E0B69837A838B839C8355
:1003A0002D833E834F835887F9E0EF2EF12CEC0E1E
:1003B000FD1ECE010196B7010E94C3048E010F5E9F
:1003C0001F4FCE010596B8010E94C304C701B801B2
:1003D000AE01475E5F4F0E9449000E94EE03A09667
:1003E000E6E00C94BA0BA0E2B0E0E9EFF1E00C9487
:1003F000920B69837A838B839C832D833E834F8307
:100400005887CE010196BE01675F7F4F0E94C304EB
:10041000CE010596BE016F5E7F4F0E94C304998591
:10042000923088F089898230C8F0943019F4823093
:1004300051F404C0843029F4923081F488E690E0CD
:10044000C6C0923049F420E09A858A89981321E049
:100450002A87CE010996BBC0823049F420E09A85F4
:100460008A89981321E02A8BCE014196B0C02D8451
:100470003E844F8458886D887E888F88988CEE24BF
:10048000FF248701AA24BB24650140E050E060E01E
:1004900070E0E0E0F0E0C10181709070892BE9F03C
:1004A000E60CF71C081D191D9A01AB012A0D3B1D16
:1004B0004C1D5D1D80E090E0A0E0B0E0E614F70484
:1004C0000805190520F481E090E0A0E0B0E0BA0151
:1004D000A901480F591F6A1F7B1FAA0CBB1CCC1C0B
:1004E000DD1C97FE08C081E090E0A0E0B0E0A82A03
:1004F000B92ACA2ADB2A3196E032F10549F0660CA6
:10050000771C881C991C5694479437942794C3CF22
:10051000FA85EA892B893C898B859C85280F391FB0
:100520002E5F3F4F17C0CA0181709070892B61F018
:1005300016950795F794E79480E090E0A0E0B0E886
:10054000E82AF92A0A2B1B2B76956795579547952C
:100550002F5F3F4F77FDE7CF0CC0440F551F661F3D
:10056000771F17FD4160EE0CFF1C001F111F21506B
:100570003040403090E0590790E0690790E47907F7
:1005800060F32B8F3C8FDB01CA018F779070A070D6
:10059000B07080349105A105B10561F447FD0AC032
:1005A000E114F1040105110529F0405C5F4F6F4F24
:1005B0007F4F40781A8EFE1711F081E08A8F4D8FA1
:1005C0005E8F6F8F78A383E0898FCE0149960E945A
:1005D000EE03A096E2E10C94AE0BA8E0B0E0E3EFEE
:1005E000F2E00C949B0B9B01AC0183E08983DA0160
:1005F000C9018827B7FD83959927AA27BB27B82E5D
:10060000211531054105510519F482E089833AC06D
:100610008823A9F0203080E0380780E0480780E890
:10062000580729F460E070E080E09FEC30C0EE24D1
:10063000FF248701E21AF30A040B150B02C07901AB
:100640008A018EE1C82ED12CDC82CB82ED82FE8223
:100650000F831887C801B7010E949F0301971816DE
:10066000190684F4082E04C0EE0CFF1C001F111F95
:100670000A94D2F7ED82FE820F831887C81AD90A2E
:10068000DC82CB82BA82CE0101960E94EE032896CC
:10069000E9E00C94B70BACE0B0E0E1E5F3E00C94DA
:1006A000A20B69837A838B839C83CE010196BE0162
:1006B0006B5F7F4F0E94C3048D81823061F1823075
:1006C00050F1843021F48E81882351F12EC02F8186
:1006D000388537FD20C06E812F3131051CF066232F
:1006E000F9F023C08EE190E0821B930B29853A85B7
:1006F0004B855C8504C056954795379527958A9517
:10070000D2F76623B1F050954095309521953F4F33
:100710004F4F5F4F0EC020E030E040E050E009C096
:100720002FEF3FEF4FEF5FE704C020E030E040E005
:1007300050E8B901CA012C96E2E00C94BE0BEF928E
:10074000FF920F931F937B018C0180E0E81680E0FD
:10075000F80681E0080780E0180788F48FEFE816B4
:10076000F1040105110531F028F088E090E0A0E0E7
:10077000B0E017C080E090E0A0E0B0E012C080E000
:10078000E81680E0F80680E0080781E0180728F006
:1007900088E190E0A0E0B0E004C080E190E0A0E05B
:1007A000B0E020E230E040E050E0281B390B4A0B7B
:1007B0005B0B04C016950795F794E7948A95D2F7DA
:1007C000F701E059FF4F8081281B31094109510988
:1007D000C9011F910F91FF90EF900895DF92EF9262
:1007E000FF920F931F93FC01E480F580068117812F
:1007F000D1808081823048F480E090E0A0E1B0E0D8
:10080000E82AF92A0A2B1B2BA5C0843009F49FC0C3
:10081000823021F4EE24FF24870105C0E114F104A5
:100820000105110519F4E0E0F0E096C062817381E2
:100830009FEF623879070CF05BC022E83FEF261B80
:10084000370B2A3131052CF020E030E040E050E059
:100850002AC0B801A701022E04C076956795579566
:1008600047950A94D2F781E090E0A0E0B0E004C0A0
:10087000880F991FAA1FBB1F2A95D2F70197A109BC
:10088000B1098E219F21A023B1230097A105B105B5
:1008900021F081E090E0A0E0B0E09A01AB01282BCC
:1008A000392B4A2B5B2BDA01C9018F779070A0702E
:1008B000B07080349105A105B10539F427FF09C056
:1008C000205C3F4F4F4F5F4F04C0215C3F4F4F4F65
:1008D0005F4FE0E0F0E02030A0E03A07A0E04A07F8
:1008E000A0E45A0710F0E1E0F0E079018A0127C0A6
:1008F0006038710564F5FB01E158FF4FD801C7016D
:100900008F779070A070B07080349105A105B1050B
:1009100039F4E7FE0DC080E490E0A0E0B0E004C050
:100920008FE390E0A0E0B0E0E80EF91E0A1F1B1F65
:1009300017FF05C016950795F794E794319687E061
:1009400016950795F794E7948A95D1F705C0EE249C
:10095000FF248701EFEFF0E06E2F6795662767951C
:10096000902F9F77D794DD24D7948E2F8695492F8B
:10097000462B582F5D29B701CA011F910F91FF9097
:10098000EF90DF900895FC01DB01408151812281CD
:10099000622F6F7770E0221F2227221F9381892FF9
:1009A000880F822B282F30E0991F9927991F1196C5
:1009B0009C93119721153105A9F541155105610544
:1009C000710511F482E037C082E89FEF13969C9383
:1009D0008E9312979A01AB0167E0220F331F441FD9
:1009E000551F6A95D1F783E08C930DC0220F331FFA
:1009F000441F551F12968D919C9113970197139642
:100A00009C938E931297203080E0380780E048074F
:100A100080E4580758F314962D933D934D935C93BF
:100A2000179708952F3F310579F441155105610558
:100A3000710519F484E08C93089564FF03C081E08C
:100A40008C9312C01C9210C02F57304013963C93C9
:100A50002E93129783E08C9387E0440F551F661FF7
:100A6000771F8A95D1F7706414964D935D936D93BB
:100A70007C93179708950F931F930E94670780E652
:100A800090E00E94020980E00E94A5050E94620594
:100A9000182F00E094E6911781F080E067E00E9453
:100AA0005907612F70E080E090E00E942108802FBC
:100AB0000F5F90E0612F0E9485090E946205912FCF
:100AC000182FE9CFCF92DF92FF920F931F93DF93FE
:100AD000CF9300D0CDB7DEB71A82198288E891E0B3
:100AE0000E94B90A00E010E0FF246E010894C11CC6
:100AF000D11CC6010E94E80A89819A81080F191F3A
:100B0000F3942AE0F216A9F7C8016AE070E00E94A7
:100B1000410B6639710510F480E00DC021E0643F9F
:100B2000720710F482E007C022E06E3E720710F0F8
:100B300086E001C084E00F900F90CF91DF911F916C
:100B40000F91FF90DF90CF900895982F883038F460
:100B50009F7180918801807E892B809388010E94FB
:100B6000B40A0895DF92EF92FF920F931F93CF93F1
:100B7000DF93E82EFF2400E010E0282F70E030E043
:100B800040E0DD24C62FD0E021970BC0622F832FD9
:100B9000942FA80197010E94220B262F382F492F4E
:100BA000D3948D2D90E08C179D0784F3622F832FB3
:100BB000942FDF91CF911F910F91FF90EF90DF90D5
:100BC000089508950F931F9382E067E040E00E942C
:100BD000BB0982E066E040E00E94BB0982E065E07C
:100BE00040E00E94BB0982E064E040E00E94BB0953
:100BF00082E062E00E94450A82E061E00E94310AE0
:100C000012E0812F8A95F1F782E060E00E94310ABC
:100C1000812F8A95F1F782E00E94970A082F0295AA
:100C2000007F82E060E00E94450A8AE18A95F1F740
:100C300082E060E00E94310A1A95F1F782E00E949A
:100C4000970A082B82E060E00E94450A82E067E094
:100C50004FEF0E94BB0982E066E04FEF0E94BB09A4
:100C600082E065E04FEF0E94BB0982E064E04FEF55
:100C70000E94BB09802F8F771F910F9108950F93CA
:100C80001F93CF93DF9382E062E00E94450A82E0E7
:100C900061E00E94450A12E0812F8A95F1F782E017
:100CA00060E00E94310A1A95F1F7C0E0D0E002E05E
:100CB00010E0CE018C5F682FA8010C2E02C0559564
:100CC00047950A94E2F7417082E00E946E0A2196ED
:100CD000C430D10571F782E060E00E94450A8AE1E4
:100CE0008A95F1F782E060E00E94310A82E08A95FD
:100CF000F1F7C0E0D0E002E010E0CE018C5F682F99
:100D0000A8010C2E02C0559547950A94E2F7417050
:100D100082E00E946E0A2196C430D10571F782E00C
:100D200060E00E94450A8AE18A95F1F782E060E07E
:100D30000E94310A82E08A95F1F7C0E0D0E008E035
:100D400010E0CE018C5F682FA8010C2E02C05595D3
:100D500047950A94E2F7417082E00E946E0A21965C
:100D6000C430D10571F782E060E00E94450A8AE153
:100D70008A95F1F7DF91CF911F910F910895EF922E
:100D8000FF920F931F93CF93DF93082F82E062E0CF
:100D90000E94450A82E061E00E94450A12E0812F2C
:100DA0008A95F1F782E060E00E94310A812F8A95EE
:100DB000F1F7E02EFF24A70134E0559547953A95C9
:100DC000E1F7417082E064E00E946E0AA70125E02D
:100DD000559547952A95E1F7417082E065E00E94BC
:100DE0006E0AA70196E0559547959A95E1F74170EF
:100DF00082E066E00E946E0AA701440F452F441F5F
:100E0000550B417082E067E00E946E0A82E060E06C
:100E10000E94450A8AE18A95F1F782E060E00E942B
:100E2000310A1A95F1F7C0E0D0E0CE018C5F682F4F
:100E3000A7010C2E02C0559547950A94E2F7417020
:100E400082E00E946E0A2196C430D10571F782E0DB
:100E500060E00E94450ADF91CF911F910F91FF90B2
:100E6000EF9008958CE00E94BF0685E88A95F1F71F
:100E7000089588E00E94BF0684EF91E028EC30E0FE
:100E8000F9013197F1F70197D9F708950F931F935F
:100E900081E00E94BF0600EA1FE0C8010197F1F758
:100EA00082E00E94BF06C8010197F1F71F910F91E0
:100EB000089590E0029646E0880F991F4A95E1F761
:100EC000860F0E94BF0685E88A95F1F708951F9363
:100ED00082E067E04FEF0E94BB0982E066E04FEFDF
:100EE0000E94BB0982E065E04FEF0E94BB0982E0EF
:100EF00064E04FEF0E94BB0982E060E04FEF0E9488
:100F0000BB0982E061E04FEF0E94BB0982E062E032
:100F10004FEF0E94BB0984EF91E028EC30E0F9012B
:100F20003197F1F70197D9F70E943F0615E8812F15
:100F30008A95F1F78CE00E94BF061A95F1F781E0DF
:100F40000E94BF0680EA9FE00197F1F71F91089584
:100F5000EF92FF920F931F93CF93DF93082F82E0BE
:100F600062E00E94310A82E061E00E94450A12E0DC
:100F7000812F8A95F1F782E060E00E94310A812F8B
:100F80008A95F1F7E02EFF24A701F4E055954795E7
:100F9000FA95E1F7417082E064E00E946E0AA701D1
:100FA000E5E055954795EA95E1F7417082E065E007
:100FB0000E946E0AA70176E0559547957A95E1F76C
:100FC000417082E066E00E946E0AA701440F452F3F
:100FD000441F550B417082E067E00E946E0A82E078
:100FE00060E00E94450A8AE18A95F1F782E060E0BC
:100FF0000E94310A1A95F1F7C0E0D0E0CE018C5F73
:10100000682FA7010C2E02C0559547950A94E2F768
:10101000417082E00E946E0A2196C430D10571F7BA
:1010200082E060E00E94450ADF91CF911F910F910D
:10103000FF90EF9008950E94A80785E88A95F1F740
:101040000895AF92BF92CF92DF92EF92FF920F93EB
:101050001F93DF93CF93CDB7DEB72A970FB6F894DF
:10106000DEBF0FBECDBF7B018C016115710581050F
:10107000910521F480E30E941B080DC097FF0BC06F
:101080008DE20E941B0810950095F094E094E11CFD
:10109000F11C011D111D5E010894A11CB11CDD2471
:1010A00023C0C801B7012AE030E040E050E00E94D0
:1010B000550BF50161935F01D394FBE0DF1641F41A
:1010C00011E0ED2CFF246E010894C11CD11C1CC042
:1010D000C801B7012AE030E040E050E00E94550B23
:1010E000C901DA017C018D01E114F104010511054A
:1010F000C1F6E6CFF701E81BF90BEC0DFD1D808171
:10110000805D0E941B081F5F812F90E0E816F906A2
:101110008CF72A960FB6F894DEBF0FBECDBFCF91E5
:10112000DF911F910F91FF90EF90DF90CF90BF90D4
:10113000AF9008952F923F924F925F926F927F925D
:101140008F929F92AF92BF92CF92DF92EF92FF92D7
:101150000F931F93CF93DF931B012C01142F0E9439
:101160004B033B014C0100E0AAE0AA2EB12CC12C9C
:10117000D12CC12FD0E021970BC0C601B5012AE0C8
:1011800030E040E050E00E94220B5B016C010F5FF9
:10119000802F90E08C179D0784F3C401B3010E9457
:1011A00021088EE20E941B08C401B3010E94ED02D7
:1011B0009B01AC01C201B1010E9495017B018C0130
:1011C000C601B5010E94ED029B01AC01C801B70147
:1011D0000E94F3010E944B036F770E942108DF9168
:1011E000CF911F910F91FF90EF90DF90CF90BF9024
:1011F000AF909F908F907F906F905F904F903F90B7
:101200002F9008951F93CF93DF93EC0110E003C05C
:101210000E941B081F5FFE01E10FF11D80818823E2
:10122000B9F7DF91CF911F9108951F9382E060E09D
:101230000E949D0984EF91E028EC30E0F90131979C
:10124000F1F70197D9F782E062E00E94450A82E057
:1012500061E00E94310A12E0812F8A95F1F782E065
:1012600060E00E94310A1A95F1F782E00E94970A25
:10127000182F82E060E00E94450A82E06FEF0E9432
:101280009D09812F8F771F9108950F931F93082F2A
:1012900082E062E00E94450A82E061E00E94450A25
:1012A00012E0812F8A95F1F782E060E00E94310A16
:1012B0001A95F1F782E0602F0E94260A82E060E032
:1012C0000E94450A1F910F9108950F931F93082FB5
:1012D00082E062E00E94310A82E061E00E94450AF9
:1012E00012E0812F8A95F1F782E060E00E94310AD6
:1012F0001A95F1F782E0602F0E94260A82E060E0F2
:101300000E94450A1F910F91089524E080309207B2
:1013100038F4E199FECF9FBB8EBB6DBBE29AE19A98
:1013200008959C01E199FECF8EB39FB3822B932B3E
:101330009FBB8EBBE09A8DB30895E82FF0E0EE0FCF
:10134000FF1FE058FE4F0190F081E02D608308956B
:10135000E82FF0E0EE0FFF1FDF01A058BE4F0D9009
:10136000BC91A02D1C92E858FE4F0190F081E02D19
:101370008FEF80830895E82FF0E0442391F0EE0F83
:10138000FF1FE058FE4F0190F081E02D208181E0A9
:1013900090E002C0880F991F6A95E2F7282B2083FE
:1013A0000895EE0FFF1FE058FE4F0190F081E02DF1
:1013B000208181E090E002C0880F991F6A95E2F7D2
:1013C0008095822380830895A82FB0E0AA0FBB1FC9
:1013D000FD01E058FE4F0190F081E02D908121E069
:1013E00030E002C0220F331F6A95E2F7822F80950A
:1013F00089238083A858BE4FED91FC918081822B78
:1014000080830895E82FF0E0EE0FFF1FE858FE4FAD
:101410000190F081E02D8FEF80830895E82FF0E0B8
:10142000EE0FFF1FE858FE4F0190F081E02D108273
:101430000895E82FF0E0EE0FFF1FE858FE4F0190EF
:10144000F081E02D8081809580830895E82FF0E081
:10145000EE0FFF1FE858FE4F0190F081E02D6083F2
:101460000895E82FF0E0EE0FFF1FE858FE4F0190BF
:10147000F081E02D208181E090E002C0880F991F6B
:101480006A95E2F7282B20830895E82FF0E0EE0F0D
:10149000FF1FE858FE4F0190F081E02D208181E090
:1014A00090E002C0880F991F6A95E2F78095822329
:1014B00080830895E82FF0E0EE0FFF1FE858FE4FFD
:1014C0000190F081E02D208181E090E002C0880F42
:1014D000991F6A95E2F7282720830895E82FF0E006
:1014E000442391F0EE0FFF1FE858FE4F0190F0816A
:1014F000E02D208181E090E002C0880F991F6A955D
:10150000E2F7282B20830895EE0FFF1FE858FE4FC7
:101510000190F081E02D208181E090E002C0880FF1
:10152000991F6A95E2F78095822380830895E82FBA
:10153000F0E0EE0FFF1FE059FE4F0190F081E02D2B
:1015400080810895E82FF0E0EE0FFF1FE059FE4F75
:101550000190F081E02D808190E002C09595879503
:101560006A95E2F7817008953D983E9A3F98379AC0
:101570000895FC0187B1807E87B997B180818F7112
:10158000892B87B986B1887F86B996B1808182958B
:1015900086958770892B86B980B78F7180BF90B789
:1015A000818186958770892B80BF818180FF02C0F1
:1015B000359A01C0359884FF04C0339A8FB780688C
:1015C00003C033988FB78F778FBF0895369A0895E9
:1015D000FC01369A349BFECF349A84B195B1918345
:1015E0008083089590938B0180938A0108951F92C0
:1015F0000F920FB60F9211242F933F934F935F9347
:101600006F937F938F939F93AF93BF93EF93FF93CA
:10161000E0918A01F0918B01309719F084B195B176
:101620000995FF91EF91BF91AF919F918F917F911C
:101630006F915F914F913F912F910F900FBE0F903F
:101640001F901895629FD001739FF001829FE00D5B
:10165000F11D649FE00DF11D929FF00D839FF00D31
:10166000749FF00D659FF00D9927729FB00DE11DDD
:10167000F91F639FB00DE11DF91FBD01CF011124BA
:101680000895AA1BBB1B51E107C0AA1FBB1FA617C9
:10169000B70710F0A61BB70B881F991F5A95A9F71B
:1016A00080959095BC01CD01089597FB092E0526E4
:1016B0000ED057FD04D014D00AD0001C38F4509539
:1016C0004095309521953F4F4F4F5F4F0895F6F766
:1016D00090958095709561957F4F8F4F9F4F08959E
:1016E000A1E21A2EAA1BBB1BFD010DC0AA1FBB1F26
:1016F000EE1FFF1FA217B307E407F50720F0A21B98
:10170000B30BE40BF50B661F771F881F991F1A9404
:1017100069F760957095809590959B01AC01BD012E
:10172000CF0108952F923F924F925F926F927F92D6
:101730008F929F92AF92BF92CF92DF92EF92FF92E1
:101740000F931F93CF93DF93CDB7DEB7CA1BDB0B8D
:101750000FB6F894DEBF0FBECDBF09942A88398832
:1017600048885F846E847D848C849B84AA84B98439
:10177000C884DF80EE80FD800C811B81AA81B98145
:10178000CE0FD11D0FB6F894DEBF0FBECDBFED0159
:061790000895F894FFCF5C
:1017960056616C75653A20000000000000000000EC
:1017A6000001020203030303040404040404040402
:1017B60005050505050505050505050505050505D3
:1017C60006060606060606060606060606060606B3
:1017D60006060606060606060606060606060606A3
:1017E6000707070707070707070707070707070783
:1017F6000707070707070707070707070707070773
:101806000707070707070707070707070707070762
:101816000707070707070707070707070707070752
:101826000808080808080808080808080808080832
:101836000808080808080808080808080808080822
:101846000808080808080808080808080808080812
:101856000808080808080808080808080808080802
:1018660008080808080808080808080808080808F2
:1018760008080808080808080808080808080808E2
:1018860008080808080808080808080808080808D2
:1018960008080808080808080808080808080808C2
:1018A60039003600330030003B0038003500320086
:0818B6003A0037003400310054
:00000001FF
