:100000000C942A000C9434000C9434000C943400AA
:100010000C9434000C9434000C9434000C94340090
:100020000C9434000C9434000C9434000C94340080
:100030000C9434000C9434000C9434000C94340070
:100040000C9434000C9434000C9434000C94340060
:100050000C94340011241FBECFE5D8E0DEBFCDBF25
:100060000E9436000C944D000C94000081E08ABB85
:100070001BBA41E028EC30E04BBB80E197E2F9018C
:100080003197F1F70197D9F71BBA88E893E1F901A5
:0E0090003197F1F70197D9F7EFCFF894FFCF32
:00000001FF
