:100000000C942A000C943F000C943F000C943F0089
:100010000C943F000C943F000C943F000C943F0064
:100020000C943F000C943F000C943F000C943F0054
:100030000C943F000C943F000C943F000C943F0044
:100040000C943F000C943F000C943F000C943F0034
:100050000C943F0011241FBECFE5D8E0DEBFCDBF1A
:1000600010E0A0E6B0E0E0E6F3E002C005900D92FB
:10007000A837B107D9F70E9441000C94AE010C9447
:1000800000001F9310E080E0612F0E94AF0081E02C
:10009000612F41E00E9486001F5F1830A1F710E039
:1000A00080E0612F0E949C01482F81E0612F0E9417
:1000B00056011F5F183098F7F3CFE82FF0E0EE0FEE
:1000C000FF1FE059FF4F0190F081E02D60830895FC
:1000D000E82FF0E0EE0FFF1FDF01A059BF4F0D909A
:1000E000BC91A02D1C92E859FF4F0190F081E02DAA
:1000F0008FEF80830895E82FF0E0EE0FFF1FE059A7
:10010000FF4F0190F081E02D80810895E82FF0E00D
:10011000442391F0EE0FFF1FE059FF4F0190F08153
:10012000E02D208181E090E002C0880F991F6A9540
:10013000E2F7282B20830895EE0FFF1FE059FF4FB1
:100140000190F081E02D208181E090E002C0880FD5
:10015000991F6A95E2F78095822380830895A82FDE
:10016000B0E0AA0FBB1FFD01E059FF4F0190F081E5
:10017000E02D908121E030E002C0220F331F6A950C
:10018000E2F7822F809589238083A859BF4FED9194
:10019000FC918081822B80830895E82FF0E0EE0FA0
:1001A000FF1FE059FF4F0190F081E02D808190E02A
:1001B00002C0959587956A95E2F781700895E82FBA
:1001C000F0E0EE0FFF1FE859FF4F0190F081E02DA6
:1001D0008FEF80830895E82FF0E0EE0FFF1FE859BE
:1001E000FF4F0190F081E02D10820895E82FF0E09C
:1001F000EE0FFF1FE859FF4F0190F081E02D808145
:10020000809580830895E82FF0E0EE0FFF1FE859F6
:10021000FF4F0190F081E02D60830895E82FF0E01A
:10022000EE0FFF1FE859FF4F0190F081E02D808114
:100230000895E82FF0E0EE0FFF1FE859FF4F0190FF
:10024000F081E02D208181E090E002C0880F991FAD
:100250006A95E2F7282B20830895E82FF0E0EE0F4F
:10026000FF1FE859FF4F0190F081E02D208181E0D0
:1002700090E002C0880F991F6A95E2F7809582236B
:1002800080830895E82FF0E0EE0FFF1FE859FF4F3D
:100290000190F081E02D208181E090E002C0880F84
:1002A000991F6A95E2F7282720830895E82FF0E048
:1002B000442391F0EE0FFF1FE859FF4F0190F081AA
:1002C000E02D208181E090E002C0880F991F6A959F
:1002D000E2F7282B20830895EE0FFF1FE859FF4F08
:1002E0000190F081E02D208181E090E002C0880F34
:1002F000991F6A95E2F78095822380830895E82FFD
:10030000F0E0EE0FFF1FE859FF4F0190F081E02D64
:10031000808190E002C0959587956A95E2F781709B
:100320000895E82FF0E0EE0FFF1FE05AFF4F019015
:10033000F081E02D80810895E82FF0E0EE0FFF1F9F
:10034000E05AFF4F0190F081E02D808190E002C0E3
:10035000959587956A95E2F781700895F894FFCF97
:1003600039003600330030003B00380035003200E1
:080370003A00370034003100AF
:00000001FF
