:100000000C942A000C9447000C9447000C94470071
:100010000C94D2010C94A8010C9447000C947F011D
:100020000C9456010C942D010C9404010C94DB00EB
:100030000C9447000C9447000C9447000C94470024
:100040000C9447000C9447000C9447000C94470014
:100050000C94470011241FBECFE5D8E0DEBFCDBF12
:1000600010E0A0E6B0E0EEEFF6E002C005900D92E1
:10007000A837B107D9F710E0A8E7B0E001C01D929A
:10008000AA38B107E1F70E9419020C947D030C9481
:10009000000090937900809378000895873040F4B1
:1000A000E82FF0E0EE0FFF1FE658FF4F71836083EB
:1000B0000895A0917800B0917900109709F462C07A
:1000C0002C912770822F90E0029764F51196ED91A4
:1000D000FC911297808182BF81818CBF83B713BE50
:1000E00089B78C7F89BF8C91877029F483B783BFD0
:1000F00089B7816005C083B7886083BF89B7826094
:1001000089BF93B78C91880F8073892B83BF93B776
:100110008C91829586958770892B83BF8FB7806875
:100120008FBF08952A5F2770233060F11196ED91FB
:10013000FC911297808184BD818183BD85B515BCFA
:1001400089B78F7389BF8C918770853029F485B505
:1001500085BD89B7806405C085B5886085BD89B7D0
:10016000806889BF95B58C91880F8073892B85BD78
:1001700095B58C91829586958770892B85BD8FB7B3
:1001800080688FBF0895E0917800F09179003097F2
:1001900089F020812770822F90E0029724F483B7A2
:1001A000887F83BF08952A5F2770233018F085B5B4
:1001B000887F85BD08951F920F920FB60F9211246C
:1001C0002F933F934F935F936F937F938F939F935F
:1001D000AF93BF93EF93FF93E0917A00F0917B0090
:1001E000309709F00995FF91EF91BF91AF919F91E1
:1001F0008F917F916F915F914F913F912F910F90D0
:100200000FBE0F901F9018951F920F920FB60F926E
:1002100011242F933F934F935F936F937F938F930B
:100220009F93AF93BF93EF93FF93E0917C00F09186
:100230007D00309709F00995FF91EF91BF91AF9143
:100240009F918F917F916F915F914F913F912F91EE
:100250000F900FBE0F901F9018951F920F920FB620
:100260000F9211242F933F934F935F936F937F933C
:100270008F939F93AF93BF93EF93FF93E0917E0093
:10028000F0917F00309709F00995FF91EF91BF91B0
:10029000AF919F918F917F916F915F914F913F911E
:1002A0002F910F900FBE0F901F9018951F920F92D5
:1002B0000FB60F9211242F933F934F935F936F9339
:1002C0007F938F939F93AF93BF93EF93FF93E091AF
:1002D0008000F0918100309709F00995FF91EF912E
:1002E000BF91AF919F918F917F916F915F914F914E
:1002F0003F912F910F900FBE0F901F9018951F9256
:100300000F920FB60F9211242F933F934F935F9349
:100310006F937F938F939F93AF93BF93EF93FF93CD
:10032000E0918200F0918300309709F00995FF91E8
:10033000EF91BF91AF919F918F917F916F915F915D
:100340004F913F912F910F900FBE0F901F901895D6
:100350001F920F920FB60F9211242F933F934F933A
:100360005F936F937F938F939F93AF93BF93EF931D
:10037000FF93E0918400F0918500309709F0099592
:1003800014BCFF91EF91BF91AF919F918F917F919D
:100390006F915F914F913F912F910F900FBE0F90F2
:1003A0001F9018951F920F920FB60F9211242F9342
:1003B0003F934F935F936F937F938F939F93AF93ED
:1003C000BF93EF93FF93E0918600F0918700309701
:1003D00009F00995FF91EF91BF91AF919F918F9196
:1003E0007F916F915F914F913F912F910F900FBE31
:1003F0000F901F90189580918800843039F480E028
:1004000062E00E9423031092880008958F5F80931A
:100410008800089580918900843039F480E061E09B
:100420000E9423031092890008958F5F80938900B2
:1004300008950F931F93DF93CF93CDB7DEB728971F
:100440000FB6F894DEBF0FBECDBF80E061E04FEF86
:100450000E94840280E061E00E94FA0280E062E093
:100460004FEF0E94840280E062E00E94FA0281E085
:1004700063E04FEF0E94840283E067E04FEF0E9449
:100480008402198286E98A8389E48B838E010F5F57
:100490001F4F1D830C8381E06AE072E00E944E00D2
:1004A0008EE48E8318870F8386E06BEF71E00E94E5
:1004B0004E00CE0103960E9449000E945900CE01D1
:1004C00006960E9449000E945900FFCFE82FF0E0F5
:1004D000EE0FFF1FE059FF4F0190F081E02D608388
:1004E0000895E82FF0E0EE0FFF1FDF01A059BF4F86
:1004F0000D90BC91A02D1C92E859FF4F0190F08106
:10050000E02D8FEF80830895E82FF0E0442391F0F1
:10051000EE0FFF1FE059FF4F0190F081E02D208189
:1005200081E090E002C0880F991F6A95E2F7282BBE
:1005300020830895EE0FFF1FE059FF4F0190F081D7
:10054000E02D208181E090E002C0880F991F6A951C
:10055000E2F78095822380830895A82FB0E0AA0F48
:10056000BB1FFD01E059FF4F0190F081E02D90810C
:1005700021E030E002C0220F331F6A95E2F7822F9C
:10058000809589238083A859BF4FED91FC9180818C
:10059000822B80830895E82FF0E0EE0FFF1FE859CB
:1005A000FF4F0190F081E02D8FEF80830895E82FB9
:1005B000F0E0EE0FFF1FE859FF4F0190F081E02DB2
:1005C00010820895E82FF0E0EE0FFF1FE859FF4F6B
:1005D0000190F081E02D8081809580830895E82F3F
:1005E000F0E0EE0FFF1FE859FF4F0190F081E02D82
:1005F00060830895E82FF0E0EE0FFF1FE859FF4FEA
:100600000190F081E02D208181E090E002C0880F10
:10061000991F6A95E2F7282B20830895E82FF0E0D0
:10062000EE0FFF1FE859FF4F0190F081E02D208170
:1006300081E090E002C0880F991F6A95E2F78095EB
:10064000822380830895E82FF0E0EE0FFF1FE85922
:10065000FF4F0190F081E02D208181E090E002C009
:10066000880F991F6A95E2F7282720830895E82FBD
:10067000F0E0442391F0EE0FFF1FE859FF4F019087
:10068000F081E02D208181E090E002C0880F991F69
:100690006A95E2F7282B20830895EE0FFF1FE85993
:1006A000FF4F0190F081E02D208181E090E002C0B9
:1006B000880F991F6A95E2F78095822380830895B9
:1006C000E82FF0E0EE0FFF1FE05AFF4F0190F0819E
:1006D000E02D80810895E82FF0E0EE0FFF1FE05A33
:1006E000FF4F0190F081E02D808190E002C0959550
:0E06F00087956A95E2F781700895F894FFCF20
:1006FE0039003600330030003B0038003500320040
:08070E003A003700340031000D
:00000001FF
