:100000000C942A000C943F000C943F000C943F0089
:100010000C943F000C943F000C943F000C943F0064
:100020000C943F000C943F000C943F000C943F0054
:100030000C943F000C943F000C943F000C943F0044
:100040000C943F000C943F000C943F000C943F0034
:100050000C943F0011241FBECFE5D8E0DEBFCDBF1A
:1000600010E0A0E6B0E0E8E6F4E002C005900D92F2
:10007000A038B107D9F70E9441000C9432020C94C9
:100080000000CF93DF9380E06FEF0E9476000E9424
:10009000ED0180E197E20197F1F783E060E00E94D3
:1000A000A601682F80E00E94FF00C8ECD0E083E04A
:1000B00060E00E94A601682F80E00E94FF0084ECAF
:1000C00099E0FE013197F1F70197D9F783E061E0FC
:1000D0000E94A601682F80E00E94FF0084EC99E056
:1000E000FE013197F1F70197D9F7E1CFE82FF0E062
:1000F000EE0FFF1FE858FF4F0190F081E02D608365
:100100000895E82FF0E0EE0FFF1FDF01A858BF4F62
:100110000D90BC91A02D1C92E059FF4F0190F081F1
:10012000E02D8FEF80830895E82FF0E0442391F0D5
:10013000EE0FFF1FE858FF4F0190F081E02D208166
:1001400081E090E002C0880F991F6A95E2F7282BA2
:1001500020830895EE0FFF1FE858FF4F0190F081B4
:10016000E02D208181E090E002C0880F991F6A9500
:10017000E2F78095822380830895A82FB0E0AA0F2C
:10018000BB1FFD01E858FF4F0190F081E02D9081E9
:1001900021E030E002C0220F331F6A95E2F7822F80
:1001A000809589238083A059BF4FED91FC91808178
:1001B000822B80830895E82FF0E0EE0FFF1FE059B7
:1001C000FF4F0190F081E02D8FEF80830895E82F9D
:1001D000F0E0EE0FFF1FE059FF4F0190F081E02D9E
:1001E00010820895E82FF0E0EE0FFF1FE059FF4F57
:1001F0000190F081E02D8081809580830895E82F23
:10020000F0E0EE0FFF1FE059FF4F0190F081E02D6D
:1002100060830895E82FF0E0EE0FFF1FE059FF4FD5
:100220000190F081E02D208181E090E002C0880FF4
:10023000991F6A95E2F7282B20830895E82FF0E0B4
:10024000EE0FFF1FE059FF4F0190F081E02D20815C
:1002500081E090E002C0880F991F6A95E2F78095CF
:10026000822380830895E82FF0E0EE0FFF1FE0590E
:10027000FF4F0190F081E02D208181E090E002C0ED
:10028000880F991F6A95E2F7282720830895E82FA1
:10029000F0E0442391F0EE0FFF1FE059FF4F019073
:1002A000F081E02D208181E090E002C0880F991F4D
:1002B0006A95E2F7282B20830895EE0FFF1FE0597F
:1002C000FF4F0190F081E02D208181E090E002C09D
:1002D000880F991F6A95E2F780958223808308959D
:1002E000E82FF0E0EE0FFF1FE859FF4F0190F0817B
:1002F000E02D80810895E82FF0E0EE0FFF1FE85910
:10030000FF4F0190F081E02D808190E002C0959533
:1003100087956A95E2F781700895CF93DF93EB019B
:10032000853010F080E00FC0E82FF0E0EE0FFF1FE7
:10033000EF59FF4F6081862F8F7062956F700E941A
:100340007B01888381E0DF91CF910895EF92FF9246
:100350000F931F93CF93DF93062F8530A8F562305C
:1003600098F5C82FD0E0CC0FDD1F91E6E92E90E084
:10037000F92EEC0EFD1EF7016081862F8F706295BD
:100380006F700E947B01182F81E0612F0E94FF0097
:100390001017C1F0C05ADF4F6881862F8F706295A9
:1003A0006F700E94330180E29EE40197F1F7F7013C
:1003B0006081862F8F7062956F700E947B0190E044
:1003C000801719F491E001C090E0892FDF91CF915F
:1003D0001F910F91FF90EF900895EF92FF920F936E
:1003E0001F93CF93DF9380E29EE40197F1F7C0E083
:1003F000D0E08E01000F111F30E6E32E30E0F32E27
:10040000E00EF11EF7016081862F8F7062956F708C
:100410004FEF0E9494000F591F4FF8016081862F03
:100420008F7062956F700E94BD00F8016081862F09
:100430008F7062956F700E947B01882341F4F701F1
:100440006081862F8F7062956F700E9433012196B4
:10045000C530D10571F6DF91CF911F910F91FF90BB
:08046000EF900895F894FFCF1E
:100468002232425262724353390036003300300060
:100478003B003800350032003A00370034003100C4
:00000001FF
