:100000000C942A000C9447000C9447000C94470071
:100010000C9447000C9447000C9447000C94470044
:100020000C9447000C9447000C9447000C94470034
:100030000C9447000C9447000C9447000C94470024
:100040000C9447000C9447000C9447000C94E20B6E
:100050000C94470011241FBECFE5D8E0DEBFCDBF12
:1000600011E0A0E6B0E0E2EAFBE102C005900D92EB
:10007000AA39B107D9F711E0AAE9B1E001C01D9290
:10008000AB3AB107E1F70E943B050C94CF0D0C94FD
:100090000000A0E0B0E0EFE4F0E00C94980DDC018B
:1000A0002B01FA019C91923008F439C1EB0188814F
:1000B000823008F433C1943069F4843009F02FC1E0
:1000C00011969C9111978981981709F428C1ACE683
:1000D000B0E025C1843009F421C18230A9F4923006
:1000E00009F01DC19A01AD0188E0EA010990AE0155
:1000F000E90109929E018150C1F7E20189811196BF
:100100009C918923818308C1923009F407C112961A
:100110002D903C901397EB018A819B811496AD90B2
:10012000BD90CD90DC901797EC80FD800E811F81F3
:100130009101281B390BB90137FF04C066277727C7
:10014000621B730B603271050CF061C0121613064E
:100150006CF537014801062E04C096948794779475
:1001600067940A94D2F721E030E040E050E004C008
:10017000220F331F441F551F6A95D2F7215030407C
:10018000404050402E213F2140235123211531056D
:100190004105510521F021E030E040E050E07901D7
:1001A0008A01E628F728082919293CC0232BD1F118
:1001B000260E371E35014601062E04C096948794FC
:1001C000779467940A94D2F721E030E040E050E061
:1001D00004C0220F331F441F551F6A95D2F72150C8
:1001E0003040404050402A213B214C215D212115C7
:1001F00031054105510521F021E030E040E050E0BB
:1002000059016A01A628B728C828D9280BC0821529
:1002100093052CF01C01AA24BB24650103C0EE2425
:10022000FF24870111969C91D20111968C91981709
:1002300009F445C0992339F0A80197012A193B090F
:100240004C095D0906C0A60195012E193F09400B16
:10025000510B57FD08C011823382228224833583DB
:10026000468357831DC081E08183338222828827A1
:100270009927DC01821B930BA40BB50B8483958318
:10028000A683B7830DC0220F331F441F551F24833D
:100290003583468357838281938101979383828339
:1002A0002481358146815781DA01C9010197A1096D
:1002B000B1098F5F9F4FAF4FBF4328F30BC09183AE
:1002C00033822282EA0CFB1C0C1D1D1DE482F58288
:1002D0000683178383E0808324813581468157819B
:1002E00057FF1AC0C901AA2797FDA095BA2F8170A0
:1002F0009070A070B0705695479537952795822BD2
:10030000932BA42BB52B84839583A683B7838281FB
:100310009381019693838283DF0101C0D201CD01D5
:10032000CDB7DEB7E2E10C94B40DA0E2B0E0EBE9AA
:10033000F1E00C94A40D69837A838B839C832D83D5
:100340003E834F835887E9E0EE2EF12CEC0EFD1E24
:10035000CE010196B7010E94C3048E010F5E1F4FAC
:10036000CE010596B8010E94C3048A8991E08927CD
:100370008A8BC701B801AE01475E5F4F0E944900FA
:100380000E94EE03A096E6E00C94C00DA0E2B0E05F
:10039000ECECF1E00C94A40D69837A838B839C834D
:1003A0002D833E834F835887F9E0EF2EF12CEC0E1E
:1003B000FD1ECE010196B7010E94C3048E010F5E9F
:1003C0001F4FCE010596B8010E94C304C701B801B2
:1003D000AE01475E5F4F0E9449000E94EE03A09667
:1003E000E6E00C94C00DA0E2B0E0E9EFF1E00C947F
:1003F000980D69837A838B839C832D833E834F83FF
:100400005887CE010196BE01675F7F4F0E94C304EB
:10041000CE010596BE016F5E7F4F0E94C304998591
:10042000923088F089898230C8F0943019F4823093
:1004300051F404C0843029F4923081F48CE690E0C9
:10044000C6C0923049F420E09A858A89981321E049
:100450002A87CE010996BBC0823049F420E09A85F4
:100460008A89981321E02A8BCE014196B0C02D8451
:100470003E844F8458886D887E888F88988CEE24BF
:10048000FF248701AA24BB24650140E050E060E01E
:1004900070E0E0E0F0E0C10181709070892BE9F03C
:1004A000E60CF71C081D191D9A01AB012A0D3B1D16
:1004B0004C1D5D1D80E090E0A0E0B0E0E614F70484
:1004C0000805190520F481E090E0A0E0B0E0BA0151
:1004D000A901480F591F6A1F7B1FAA0CBB1CCC1C0B
:1004E000DD1C97FE08C081E090E0A0E0B0E0A82A03
:1004F000B92ACA2ADB2A3196E032F10549F0660CA6
:10050000771C881C991C5694479437942794C3CF22
:10051000FA85EA892B893C898B859C85280F391FB0
:100520002E5F3F4F17C0CA0181709070892B61F018
:1005300016950795F794E79480E090E0A0E0B0E886
:10054000E82AF92A0A2B1B2B76956795579547952C
:100550002F5F3F4F77FDE7CF0CC0440F551F661F3D
:10056000771F17FD4160EE0CFF1C001F111F21506B
:100570003040403090E0590790E0690790E47907F7
:1005800060F32B8F3C8FDB01CA018F779070A070D6
:10059000B07080349105A105B10561F447FD0AC032
:1005A000E114F1040105110529F0405C5F4F6F4F24
:1005B0007F4F40781A8EFE1711F081E08A8F4D8FA1
:1005C0005E8F6F8F78A383E0898FCE0149960E945A
:1005D000EE03A096E2E10C94B40DA8E0B0E0E3EFE6
:1005E000F2E00C94A10D9B01AC0183E08983DA0158
:1005F000C9018827B7FD83959927AA27BB27B82E5D
:10060000211531054105510519F482E089833AC06D
:100610008823A9F0203080E0380780E0480780E890
:10062000580729F460E070E080E09FEC30C0EE24D1
:10063000FF248701E21AF30A040B150B02C07901AB
:100640008A018EE1C82ED12CDC82CB82ED82FE8223
:100650000F831887C801B7010E949F0301971816DE
:10066000190684F4082E04C0EE0CFF1C001F111F95
:100670000A94D2F7ED82FE820F831887C81AD90A2E
:10068000DC82CB82BA82CE0101960E94EE032896CC
:10069000E9E00C94BD0DACE0B0E0E1E5F3E00C94D2
:1006A000A80D69837A838B839C83CE010196BE015A
:1006B0006B5F7F4F0E94C3048D81823061F1823075
:1006C00050F1843021F48E81882351F12EC02F8186
:1006D000388537FD20C06E812F3131051CF066232F
:1006E000F9F023C08EE190E0821B930B29853A85B7
:1006F0004B855C8504C056954795379527958A9517
:10070000D2F76623B1F050954095309521953F4F33
:100710004F4F5F4F0EC020E030E040E050E009C096
:100720002FEF3FEF4FEF5FE704C020E030E040E005
:1007300050E8B901CA012C96E2E00C94C40DEF9286
:10074000FF920F931F937B018C0180E0E81680E0FD
:10075000F80681E0080780E0180788F48FEFE816B4
:10076000F1040105110531F028F088E090E0A0E0E7
:10077000B0E017C080E090E0A0E0B0E012C080E000
:10078000E81680E0F80680E0080781E0180728F006
:1007900088E190E0A0E0B0E004C080E190E0A0E05B
:1007A000B0E020E230E040E050E0281B390B4A0B7B
:1007B0005B0B04C016950795F794E7948A95D2F7DA
:1007C000F701EC58FF4F8081281B3109410951097D
:1007D000C9011F910F91FF90EF900895DF92EF9262
:1007E000FF920F931F93FC01E480F580068117812F
:1007F000D1808081823048F480E090E0A0E1B0E0D8
:10080000E82AF92A0A2B1B2BA5C0843009F49FC0C3
:10081000823021F4EE24FF24870105C0E114F104A5
:100820000105110519F4E0E0F0E096C062817381E2
:100830009FEF623879070CF05BC022E83FEF261B80
:10084000370B2A3131052CF020E030E040E050E059
:100850002AC0B801A701022E04C076956795579566
:1008600047950A94D2F781E090E0A0E0B0E004C0A0
:10087000880F991FAA1FBB1F2A95D2F70197A109BC
:10088000B1098E219F21A023B1230097A105B105B5
:1008900021F081E090E0A0E0B0E09A01AB01282BCC
:1008A000392B4A2B5B2BDA01C9018F779070A0702E
:1008B000B07080349105A105B10539F427FF09C056
:1008C000205C3F4F4F4F5F4F04C0215C3F4F4F4F65
:1008D0005F4FE0E0F0E02030A0E03A07A0E04A07F8
:1008E000A0E45A0710F0E1E0F0E079018A0127C0A6
:1008F0006038710564F5FB01E158FF4FD801C7016D
:100900008F779070A070B07080349105A105B1050B
:1009100039F4E7FE0DC080E490E0A0E0B0E004C050
:100920008FE390E0A0E0B0E0E80EF91E0A1F1B1F65
:1009300017FF05C016950795F794E794319687E061
:1009400016950795F794E7948A95D1F705C0EE249C
:10095000FF248701EFEFF0E06E2F6795662767951C
:10096000902F9F77D794DD24D7948E2F8695492F8B
:10097000462B582F5D29B701CA011F910F91FF9097
:10098000EF90DF900895FC01DB01408151812281CD
:10099000622F6F7770E0221F2227221F9381892FF9
:1009A000880F822B282F30E0991F9927991F1196C5
:1009B0009C93119721153105A9F541155105610544
:1009C000710511F482E037C082E89FEF13969C9383
:1009D0008E9312979A01AB0167E0220F331F441FD9
:1009E000551F6A95D1F783E08C930DC0220F331FFA
:1009F000441F551F12968D919C9113970197139642
:100A00009C938E931297203080E0380780E048074F
:100A100080E4580758F314962D933D934D935C93BF
:100A2000179708952F3F310579F441155105610558
:100A3000710519F484E08C93089564FF03C081E08C
:100A40008C9312C01C9210C02F57304013963C93C9
:100A50002E93129783E08C9387E0440F551F661FF7
:100A6000771F8A95D1F7706414964D935D936D93BB
:100A70007C9317970895EF92FF920F931F93DF9344
:100A8000CF93CDB7DEB72D970FB6F894DEBF0FBE6C
:100A9000CDBFDE011196E4E7F1E08DE001900D920B
:100AA0008150E1F78BE40E945309CE0101960E9428
:100AB00066090E94350780E690E00E94D0080E94F7
:100AC00014070E94CE0B7C0100E010E0B8016370B7
:100AD0007070660F771F660F771F802F869586953B
:100AE0000E942707F70161917F0170E080E090E0AC
:100AF0000E94EF070F5F1F4F0830110539F7FFCF36
:100B0000DF92EF92FF920F931F93CF93DF93E82E24
:100B1000FF2400E010E0282F70E030E040E0DD240A
:100B2000C62FD0E021970BC0622F832F942FA801EE
:100B300097010E943C0D262F382F492FD3948D2DDD
:100B400090E08C179D0784F3622F832F942FDF9101
:100B5000CF911F910F91FF90EF90DF90089508952E
:100B60000F931F9380E067E040E00E94430C80E019
:100B700066E040E00E94430C80E065E040E00E94B7
:100B8000430C80E064E040E00E94430C80E062E0BF
:100B90000E94CD0C80E061E00E94B90C12E0812F30
:100BA0008A95F1F780E060E00E94B90C812F8A9568
:100BB000F1F780E00E941F0D082F0295007F80E072
:100BC00060E00E94CD0C8AE18A95F1F780E060E058
:100BD0000E94B90C1A95F1F780E00E941F0D082BB6
:100BE00080E060E00E94CD0C80E067E04FEF0E9463
:100BF000430C80E066E04FEF0E94430C80E065E02C
:100C00004FEF0E94430C80E064E04FEF0E94430CE2
:100C1000802F8F771F910F9108950F931F93CF937C
:100C2000DF9380E062E00E94CD0C80E061E00E94F2
:100C3000CD0C12E0812F8A95F1F780E060E00E94F0
:100C4000B90C1A95F1F7C0E0D0E002E010E0CE0157
:100C50008C5F682FA8010C2E02C0559547950A9409
:100C6000E2F7417080E00E94F60C2196C430D10575
:100C700071F780E060E00E94CD0C8AE18A95F1F77F
:100C800080E060E00E94B90C82E08A95F1F7C0E054
:100C9000D0E002E010E0CE018C5F682FA8010C2E9E
:100CA00002C0559547950A94E2F7417080E00E9492
:100CB000F60C2196C430D10571F780E060E00E9407
:100CC000CD0C8AE18A95F1F780E060E00E94B90CD2
:100CD00082E08A95F1F7C0E0D0E008E010E0CE01B4
:100CE0008C5F682FA8010C2E02C0559547950A9479
:100CF000E2F7417080E00E94F60C2196C430D105E5
:100D000071F780E060E00E94CD0C8AE18A95F1F7EE
:100D1000DF91CF911F910F910895EF92FF920F9362
:100D20001F93CF93DF93082F80E062E00E94CD0CE9
:100D300080E061E00E94CD0C12E0812F8A95F1F7EE
:100D400080E060E00E94B90C812F8A95F1F7E02ED7
:100D5000FF24A70134E0559547953A95E1F7417096
:100D600080E064E00E94F60CA70125E055954795C8
:100D70002A95E1F7417080E065E00E94F60CA7013A
:100D800096E0559547959A95E1F7417080E066E0C9
:100D90000E94F60CA701440F452F441F550B4170CC
:100DA00080E067E00E94F60C80E060E00E94CD0CDD
:100DB0008AE18A95F1F780E060E00E94B90C1A950B
:100DC000F1F7C0E0D0E0CE018C5F682FA7010C2EB8
:100DD00002C0559547950A94E2F7417080E00E9461
:100DE000F60C2196C430D10571F780E060E00E94D6
:100DF000CD0CDF91CF911F910F91FF90EF9008954F
:100E00008CE00E948D0685E88A95F1F7089588E0C8
:100E10000E948D0684EF91E028EC30E0F9013197D3
:100E2000F1F70197D9F708950F931F9381E00E947E
:100E30008D0600EA1FE0C8010197F1F782E00E94E9
:100E40008D06C8010197F1F71F910F91089590E069
:100E5000029646E0880F991F4A95E1F7860F0E9497
:100E60008D0685E88A95F1F708951F9380E067E085
:100E70004FEF0E94430C80E066E04FEF0E94430C6E
:100E800080E065E04FEF0E94430C80E064E04FEFAC
:100E90000E94430C80E060E04FEF0E94430C80E032
:100EA00061E04FEF0E94430C80E062E04FEF0E9450
:100EB000430C84EF91E028EC30E0F9013197F1F731
:100EC0000197D9F70E940D0615E8812F8A95F1F751
:100ED0008CE00E948D061A95F1F781E00E948D0644
:100EE00080EA9FE00197F1F71F910895EF92FF923A
:100EF0000F931F93CF93DF93082F80E062E00E944F
:100F0000B90C80E061E00E94CD0C12E0812F8A953F
:100F1000F1F780E060E00E94B90C812F8A95F1F72B
:100F2000E02EFF24A701F4E055954795FA95E1F7E7
:100F3000417080E064E00E94F60CA701E5E0559561
:100F40004795EA95E1F7417080E065E00E94F60C74
:100F5000A70176E0559547957A95E1F7417080E0D5
:100F600066E00E94F60CA701440F452F441F550B65
:100F7000417080E067E00E94F60C80E060E00E9433
:100F8000CD0C8AE18A95F1F780E060E00E94B90C0F
:100F90001A95F1F7C0E0D0E0CE018C5F682FA70171
:100FA0000C2E02C0559547950A94E2F7417080E0F7
:100FB0000E94F60C2196C430D10571F780E060E004
:100FC0000E94CD0CDF91CF911F910F91FF90EF9078
:100FD00008950E94760785E88A95F1F70895AF9203
:100FE000BF92CF92DF92EF92FF920F931F93DF9306
:100FF000CF93CDB7DEB72A970FB6F894DEBF0FBEFA
:10100000CDBF7B018C01611571058105910521F42E
:1010100080E30E94E9070DC097FF0BC08DE20E949C
:10102000E90710950095F094E094E11CF11C011D76
:10103000111D5E010894A11CB11CDD2423C0C80150
:10104000B7012AE030E040E050E00E945B0DF5017E
:1010500061935F01D394FBE0DF1641F411E0ED2CC6
:10106000FF246E010894C11CD11C1CC0C801B7012B
:101070002AE030E040E050E00E945B0DC901DA0157
:101080007C018D01E114F10401051105C1F6E6CFE3
:10109000F701E81BF90BEC0DFD1D8081805D0E94BE
:1010A000E9071F5F812F90E0E816F9068CF72A9672
:1010B0000FB6F894DEBF0FBECDBFCF91DF911F9169
:1010C0000F91FF90EF90DF90CF90BF90AF90089579
:1010D0002F923F924F925F926F927F928F929F9248
:1010E000AF92BF92CF92DF92EF92FF920F931F9336
:1010F000CF93DF931B012C01142F0E944B033B0164
:101100004C0100E0AAE0AA2EB12CC12CD12CC12F99
:10111000D0E021970BC0C601B5012AE030E040E0E5
:1011200050E00E943C0D5B016C010F5F802F90E04E
:101130008C179D0784F3C401B3010E94EF078EE270
:101140000E94E907C401B3010E94ED029B01AC01BA
:10115000C201B1010E9495017B018C01C601B5015C
:101160000E94ED029B01AC01C801B7010E94F3018E
:101170000E944B036F770E94EF07DF91CF911F9181
:101180000F91FF90EF90DF90CF90BF90AF909F9026
:101190008F907F906F905F904F903F902F90089529
:1011A0001F93CF93DF93EC0110E003C00E94E90787
:1011B0001F5FFE01E10FF11D80818823B9F7DF91E8
:1011C000CF911F9108951F9380E060E00E94250C4D
:1011D00084EF91E028EC30E0F9013197F1F70197C5
:1011E000D9F780E062E00E94CD0C80E061E00E94CF
:1011F000B90C12E0812F8A95F1F780E060E00E943F
:10120000B90C1A95F1F780E00E941F0D182F80E0AD
:1012100060E00E94CD0C80E06FEF0E94250C812FD2
:101220008F771F9108950F931F93082F80E062E03E
:101230000E94CD0C80E061E00E94CD0C12E0812F75
:101240008A95F1F780E060E00E94B90C1A95F1F7F9
:1012500080E0602F0E94AE0C80E060E00E94CD0C28
:101260001F910F9108950F931F93082F80E062E064
:101270000E94B90C80E061E00E94CD0C12E0812F49
:101280008A95F1F780E060E00E94B90C1A95F1F7B9
:1012900080E0602F0E94AE0C80E060E00E94CD0CE8
:1012A0001F910F91089590E290B911B8880F816055
:1012B00082B98DE486BF8FB780688FBF8FEF809330
:1012C000AA010895089581B1887F0895FC01908155
:1012D0009F3FA1F08091AA018F3F81F490FD02C051
:1012E00082E001C084E08093AA01F093A501E0931D
:1012F000A40186B7806286BF80E0089581E00895EA
:1013000081B1887F883A61F0893A28F4863811F1F2
:10131000803A41F51FC0883B79F0883C19F51AC026
:101320008091A301E82FF0E0E656FE4F908193B93B
:101330008F5F8093A30116C09091A301983050F461
:10134000E92FF0E0E656FE4F808183B99F5F9093CE
:10135000A30108C01092A3018FEF8093AA0186B762
:10136000806186BF86B7806886BF089581B1887F17
:10137000863869F1873828F4803651F0803879F55D
:1013800013C0883921F1803A11F1803941F511C03B
:101390008091A20193B1E82FF0E0E656FE4F9083D2
:1013A0008F5F8093A2011BC09091A201983078F4C6
:1013B00004C09091A201973050F083B1E92FF0E082
:1013C000E656FE4F80839F5F9093A20108C0109263
:1013D000A2018FEF8093AA0186B7806186BF86B78E
:1013E000806886BF089581B1887F883689F0893604
:1013F00018F48833F1F405C08837B1F0803BC9F4A4
:101400000DC08091A4019091A5010E9466090895E4
:1014100080E68093AA010E94B609089588EA809325
:10142000AA010E948009089580E68093AA010E9483
:10143000B609089581B1887F803411F1813430F488
:10144000883069F0803109F0F1C009C0803549F178
:10145000883509F4A4C0883409F0E8C07AC09091B6
:10146000A801E091A401F091A501E90FF11D80818F
:1014700083B986B78F7D86BF9F5F9093A801D2C046
:101480008091A801E091A401F091A501E80FF11D60
:10149000808181508083883008F4C4C087E08083D5
:1014A000C1C04091A4015091A5013091A8012091A3
:1014B000A701A22FB0E0FA01E30FF11D808190E0B7
:1014C0008A1B9B0B1816190644F483B1A656BE4F0F
:1014D0008C932F5F2093A701A5C0932F9F5F9093BC
:1014E000A801FA01E90FF11DE081EF3F91F483B10A
:1014F000A656BE4F8C932F5F2093A701E093AA01BD
:101500001092A8011092A5011092A40186B78061E3
:101510001EC0EE3F09F091C083B1A656BE4F8C931A
:101520002F5F2093A7019F5FFA01E90FF11DF09350
:10153000A501E093A4011092A801808180FF02C060
:1015400084E001C082E08093AA0186B7806286BFF2
:1015500069C08091A601882391F48EE08093A60152
:101560008091A8018150E091A401F091A501E80FBC
:10157000F11D8F5F908193B98093A80153C08E3085
:1015800049F480E18093A6018091A8018150809365
:10159000A80134C0803109F050C082E135C080918B
:1015A000A601882321F484E18093A6010895843163
:1015B00041F586E18093A6018091A70193B1E82FC0
:1015C000F0E0E656FE4F90838F5F8093A7018091F5
:1015D000A8018F5FE091A401F091A501E80FF11D32
:1015E000F093A501E093A4011092A801808180FFEF
:1015F00002C084E001C082E08093AA0186B78062C5
:1016000013C08631D1F488E18093A60186B780614A
:1016100086BF8FEF8093AA011092A8011092A501B6
:101620001092A40186B7806886BF08951092A80121
:101630008FEF8093AA010E94F309089581B1887FFA
:101640008831F9F0893130F4883069F0803109F05F
:101650009DC009C0883219F1803309F462C080321C
:1016600009F094C050C09091A901E091A401F091BB
:10167000A501E90FF11D808183B986B78F7D86BFF3
:101680000AC09091A901E091A401F091A501E90F90
:10169000F11D808183B99F5F9093A90173C0209150
:1016A000A4013091A5018091A901F901E80FF11D74
:1016B000E081EF3F09F45AC0893008F057C0EE3F8F
:1016C000B1F48F5FF901E80FF11DF093A501E093EC
:1016D000A4011092A901808180FF02C084E001C0B2
:1016E00082E08093AA0186B7806286BF4BC0ED3F3F
:1016F00009F453C0EC3F09F450C0EB3F09F44DC06E
:10170000E3B98F5F21C08091A601882311F482E0A4
:101710000DC0823011F484E01DC08430F1F586E004
:1017200023C08091A601882391F488E08093A601CC
:101730008091A9018150E091A401F091A501E80FE9
:10174000F11D8F5F908193B98093A9011BC08830F0
:1017500041F48AE08093A6011092A90186B78062C5
:1017600013C08A30D1F48CE08093A60186B78061E3
:1017700086BF8FEF8093AA011092A9011092A50154
:101780001092A40186B7806886BF08951092A901BF
:101790008FEF8093AA010E94F30908958AE991E0EE
:1017A0000895AC0120E030E0F901E656FE4FDA0181
:1017B000A20FB31F8C9180832F5F3F4F28303105DC
:1017C00099F708951F920F920FB60F9211242F933D
:1017D0003F934F935F936F937F938F939F93AF93B9
:1017E000BF93EF93FF938091AA018F3F21F481B1C2
:1017F000887F8093AA018091AA01843069F08530A6
:1018000018F4823089F405C0803661F0883A61F4BA
:1018100006C00E941E0B08C00E941A0A05C00E9442
:10182000800902C00E94B609FF91EF91BF91AF916C
:101830009F918F917F916F915F914F913F912F91E8
:101840000F900FBE0F901F901895E82FF0E0EE0F4D
:10185000FF1FEF56FE4F0190F081E02D6083089549
:10186000E82FF0E0EE0FFF1FDF01AF56BE4F0D90E7
:10187000BC91A02D1C92E757FE4F0190F081E02D06
:101880008FEF80830895E82FF0E0442391F0EE0F6E
:10189000FF1FEF56FE4F0190F081E02D208181E087
:1018A00090E002C0880F991F6A95E2F7282B2083E9
:1018B0000895EE0FFF1FEF56FE4F0190F081E02DCF
:1018C000208181E090E002C0880F991F6A95E2F7BD
:1018D0008095822380830895A82FB0E0AA0FBB1FB4
:1018E000FD01EF56FE4F0190F081E02D908121E047
:1018F00030E002C0220F331F6A95E2F7822F8095F5
:1019000089238083A757BE4FED91FC918081822B64
:1019100080830895E82FF0E0EE0FFF1FE757FE4F9A
:101920000190F081E02D8FEF80830895E82FF0E0A3
:10193000EE0FFF1FE757FE4F0190F081E02D108260
:101940000895E82FF0E0EE0FFF1FE757FE4F0190DC
:10195000F081E02D8081809580830895E82FF0E06C
:10196000EE0FFF1FE757FE4F0190F081E02D6083DF
:101970000895E82FF0E0EE0FFF1FE757FE4F0190AC
:10198000F081E02D208181E090E002C0880F991F56
:101990006A95E2F7282B20830895E82FF0E0EE0FF8
:1019A000FF1FE757FE4F0190F081E02D208181E07D
:1019B00090E002C0880F991F6A95E2F78095822314
:1019C00080830895E82FF0E0EE0FFF1FE757FE4FEA
:1019D0000190F081E02D208181E090E002C0880F2D
:1019E000991F6A95E2F7282720830895E82FF0E0F1
:1019F000442391F0EE0FFF1FE757FE4F0190F08157
:101A0000E02D208181E090E002C0880F991F6A9547
:101A1000E2F7282B20830895EE0FFF1FE757FE4FB4
:101A20000190F081E02D208181E090E002C0880FDC
:101A3000991F6A95E2F78095822380830895E82FA5
:101A4000F0E0EE0FFF1FEF57FE4F0190F081E02D09
:101A500080810895E82FF0E0EE0FFF1FEF57FE4F53
:101A60000190F081E02D808190E002C095958795EE
:101A70006A95E2F781700895629FD001739FF0012B
:101A8000829FE00DF11D649FE00DF11D929FF00D0E
:101A9000839FF00D749FF00D659FF00D9927729F45
:101AA000B00DE11DF91F639FB00DE11DF91FBD01D0
:101AB000CF011124089597FB092E05260ED057FD5E
:101AC00004D014D00AD0001C38F4509540953095BD
:101AD00021953F4F4F4F5F4F0895F6F790958095B2
:101AE000709561957F4F8F4F9F4F0895A1E21A2EF9
:101AF000AA1BBB1BFD010DC0AA1FBB1FEE1FFF1FB2
:101B0000A217B307E407F50720F0A21BB30BE40B01
:101B1000F50B661F771F881F991F1A9469F7609548
:101B20007095809590959B01AC01BD01CF01089502
:101B30002F923F924F925F926F927F928F929F92DD
:101B4000AF92BF92CF92DF92EF92FF920F931F93CB
:101B5000CF93DF93CDB7DEB7CA1BDB0B0FB6F8947C
:101B6000DEBF0FBECDBF09942A88398848885F84BC
:101B70006E847D848C849B84AA84B984C884DF802D
:101B8000EE80FD800C811B81AA81B981CE0FD11D11
:101B90000FB6F894DEBF0FBECDBFED010895F894E7
:021BA000FFCF75
:101BA2005374617274696E672E2E2E00000000005D
:101BB2000000000000010202030303030404040402
:101BC20004040404050505050505050505050505C7
:101BD20005050505060606060606060606060606A7
:101BE2000606060606060606060606060606060693
:101BF2000606060607070707070707070707070777
:101C02000707070707070707070707070707070762
:101C12000707070707070707070707070707070752
:101C22000707070707070707070707070707070742
:101C32000707070708080808080808080808080826
:101C42000808080808080808080808080808080812
:101C52000808080808080808080808080808080802
:101C620008080808080808080808080808080808F2
:101C720008080808080808080808080808080808E2
:101C820008080808080808080808080808080808D2
:101C920008080808080808080808080808080808C2
:101CA20008080808080808080808080808080808B2
:101CB20008080808A000FEA102FEA0002122232499
:101CC200FF39003600330030003B00380035003267
:0A1CD200003A003700340031000032
:00000001FF
