:100000000C942A000C943F000C943F000C943F0089
:100010000C943F000C943F000C943F000C943F0064
:100020000C943F000C943F000C943F000C943F0054
:100030000C943F000C943F000C943F000C943F0044
:100040000C943F000C943F000C943F000C943F0034
:100050000C943F0011241FBECFE5D8E0DEBFCDBF1A
:1000600011E0A0E6B0E0E2E4F7E102C005900D92F5
:10007000A23AB107D9F70E9433050C949F0B0C9458
:100080000000A0E0B0E0E7E4F0E00C94680BDC01D5
:100090002B01FA019C91923008F439C1EB0188815F
:1000A000823008F433C1943069F4843009F02FC1F0
:1000B00011969C9111978981981709F428C1A2E79C
:1000C000B0E025C1843009F421C18230A9F4923016
:1000D00009F01DC19A01AD0188E0EA010990AE0165
:1000E000E90109929E018150C1F7E20189811196CF
:1000F0009C918923818308C1923009F407C112962B
:100100002D903C901397EB018A819B811496AD90C2
:10011000BD90CD90DC901797EC80FD800E811F8103
:100120009101281B390BB90137FF04C066277727D7
:10013000621B730B603271050CF061C0121613065E
:100140006CF537014801062E04C096948794779485
:1001500067940A94D2F721E030E040E050E004C018
:10016000220F331F441F551F6A95D2F7215030408C
:10017000404050402E213F2140235123211531057D
:100180004105510521F021E030E040E050E07901E7
:100190008A01E628F728082919293CC0232BD1F128
:1001A000260E371E35014601062E04C0969487940C
:1001B000779467940A94D2F721E030E040E050E071
:1001C00004C0220F331F441F551F6A95D2F72150D8
:1001D0003040404050402A213B214C215D212115D7
:1001E00031054105510521F021E030E040E050E0CB
:1001F00059016A01A628B728C828D9280BC082153A
:1002000093052CF01C01AA24BB24650103C0EE2435
:10021000FF24870111969C91D20111968C91981719
:1002200009F445C0992339F0A80197012A193B091F
:100230004C095D0906C0A60195012E193F09400B26
:10024000510B57FD08C011823382228224833583EB
:10025000468357831DC081E08183338222828827B1
:100260009927DC01821B930BA40BB50B8483958328
:10027000A683B7830DC0220F331F441F551F24834D
:100280003583468357838281938101979383828349
:100290002481358146815781DA01C9010197A1097D
:1002A000B1098F5F9F4FAF4FBF4328F30BC09183BE
:1002B00033822282EA0CFB1C0C1D1D1DE482F58298
:1002C0000683178383E080832481358146815781AB
:1002D00057FF1AC0C901AA2797FDA095BA2F8170B0
:1002E0009070A070B0705695479537952795822BE2
:1002F000932BA42BB52B84839583A683B78382810C
:100300009381019693838283DF0101C0D201CD01E5
:10031000CDB7DEB7E2E10C94840BA0E2B0E0E3E9F4
:10032000F1E00C94740B69837A838B839C832D8317
:100330003E834F835887E9E0EE2EF12CEC0EFD1E34
:10034000CE010196B7010E94BB048E010F5E1F4FC4
:10035000CE010596B8010E94BB048A8991E08927E5
:100360008A8BC701B801AE01475E5F4F0E94410012
:100370000E94E603A096E6E00C94900BA0E2B0E0A9
:10038000E4ECF1E00C94740B69837A838B839C8397
:100390002D833E834F835887F9E0EF2EF12CEC0E2E
:1003A000FD1ECE010196B7010E94BB048E010F5EB7
:1003B0001F4FCE010596B8010E94BB04C701B801CA
:1003C000AE01475E5F4F0E9441000E94E603A09687
:1003D000E6E00C94900BA0E2B0E0E1EFF1E00C94C9
:1003E000680B69837A838B839C832D833E834F8341
:1003F0005887CE010196BE01675F7F4F0E94BB0404
:10040000CE010596BE016F5E7F4F0E94BB049985A9
:10041000923088F089898230C8F0943019F48230A3
:1004200051F404C0843029F4923081F482E790E0E2
:10043000C6C0923049F420E09A858A89981321E059
:100440002A87CE010996BBC0823049F420E09A8504
:100450008A89981321E02A8BCE014196B0C02D8461
:100460003E844F8458886D887E888F88988CEE24CF
:10047000FF248701AA24BB24650140E050E060E02E
:1004800070E0E0E0F0E0C10181709070892BE9F04C
:10049000E60CF71C081D191D9A01AB012A0D3B1D26
:1004A0004C1D5D1D80E090E0A0E0B0E0E614F70494
:1004B0000805190520F481E090E0A0E0B0E0BA0161
:1004C000A901480F591F6A1F7B1FAA0CBB1CCC1C1B
:1004D000DD1C97FE08C081E090E0A0E0B0E0A82A13
:1004E000B92ACA2ADB2A3196E032F10549F0660CB6
:1004F000771C881C991C5694479437942794C3CF33
:10050000FA85EA892B893C898B859C85280F391FC0
:100510002E5F3F4F17C0CA0181709070892B61F028
:1005200016950795F794E79480E090E0A0E0B0E896
:10053000E82AF92A0A2B1B2B76956795579547953C
:100540002F5F3F4F77FDE7CF0CC0440F551F661F4D
:10055000771F17FD4160EE0CFF1C001F111F21507B
:100560003040403090E0590790E0690790E4790707
:1005700060F32B8F3C8FDB01CA018F779070A070E6
:10058000B07080349105A105B10561F447FD0AC042
:10059000E114F1040105110529F0405C5F4F6F4F34
:1005A0007F4F40781A8EFE1711F081E08A8F4D8FB1
:1005B0005E8F6F8F78A383E0898FCE0149960E946A
:1005C000E603A096E2E10C94840BA8E0B0E0EBEE29
:1005D000F2E00C94710B9B01AC0183E08983DA019A
:1005E000C9018827B7FD83959927AA27BB27B82E6D
:1005F000211531054105510519F482E089833AC07E
:100600008823A9F0203080E0380780E0480780E8A0
:10061000580729F460E070E080E09FEC30C0EE24E1
:10062000FF248701E21AF30A040B150B02C07901BB
:100630008A018EE1C82ED12CDC82CB82ED82FE8233
:100640000F831887C801B7010E94970301971816F6
:10065000190684F4082E04C0EE0CFF1C001F111FA5
:100660000A94D2F7ED82FE820F831887C81AD90A3E
:10067000DC82CB82BA82CE0101960E94E6032896E4
:10068000E9E00C948D0BACE0B0E0E9E4F3E00C940D
:10069000780B69837A838B839C83CE010196BE019C
:1006A0006B5F7F4F0E94BB048D81823061F182308D
:1006B00050F1843021F48E81882351F12EC02F8196
:1006C000388537FD20C06E812F3131051CF066233F
:1006D000F9F023C08EE190E0821B930B29853A85C7
:1006E0004B855C8504C056954795379527958A9527
:1006F000D2F76623B1F050954095309521953F4F44
:100700004F4F5F4F0EC020E030E040E050E009C0A6
:100710002FEF3FEF4FEF5FE704C020E030E040E015
:1007200050E8B901CA012C96E2E00C94940BEF92C8
:10073000FF920F931F937B018C0180E0E81680E00D
:10074000F80681E0080780E0180788F48FEFE816C4
:10075000F1040105110531F028F088E090E0A0E0F7
:10076000B0E017C080E090E0A0E0B0E012C080E010
:10077000E81680E0F80680E0080781E0180728F016
:1007800088E190E0A0E0B0E004C080E190E0A0E06B
:10079000B0E020E230E040E050E0281B390B4A0B8B
:1007A0005B0B04C016950795F794E7948A95D2F7EA
:1007B000F701E658FF4F8081281B31094109510993
:1007C000C9011F910F91FF90EF900895DF92EF9272
:1007D000FF920F931F93FC01E480F580068117813F
:1007E000D1808081823048F480E090E0A0E1B0E0E8
:1007F000E82AF92A0A2B1B2BA5C0843009F49FC0D4
:10080000823021F4EE24FF24870105C0E114F104B5
:100810000105110519F4E0E0F0E096C062817381F2
:100820009FEF623879070CF05BC022E83FEF261B90
:10083000370B2A3131052CF020E030E040E050E069
:100840002AC0B801A701022E04C076956795579576
:1008500047950A94D2F781E090E0A0E0B0E004C0B0
:10086000880F991FAA1FBB1F2A95D2F70197A109CC
:10087000B1098E219F21A023B1230097A105B105C5
:1008800021F081E090E0A0E0B0E09A01AB01282BDC
:10089000392B4A2B5B2BDA01C9018F779070A0703E
:1008A000B07080349105A105B10539F427FF09C066
:1008B000205C3F4F4F4F5F4F04C0215C3F4F4F4F75
:1008C0005F4FE0E0F0E02030A0E03A07A0E04A0708
:1008D000A0E45A0710F0E1E0F0E079018A0127C0B6
:1008E0006038710564F5FB01E158FF4FD801C7017D
:1008F0008F779070A070B07080349105A105B1051C
:1009000039F4E7FE0DC080E490E0A0E0B0E004C060
:100910008FE390E0A0E0B0E0E80EF91E0A1F1B1F75
:1009200017FF05C016950795F794E794319687E071
:1009300016950795F794E7948A95D1F705C0EE24AC
:10094000FF248701EFEFF0E06E2F6795662767952C
:10095000902F9F77D794DD24D7948E2F8695492F9B
:10096000462B582F5D29B701CA011F910F91FF90A7
:10097000EF90DF900895FC01DB01408151812281DD
:10098000622F6F7770E0221F2227221F9381892F09
:10099000880F822B282F30E0991F9927991F1196D5
:1009A0009C93119721153105A9F541155105610554
:1009B000710511F482E037C082E89FEF13969C9393
:1009C0008E9312979A01AB0167E0220F331F441FE9
:1009D000551F6A95D1F783E08C930DC0220F331F0A
:1009E000441F551F12968D919C9113970197139652
:1009F0009C938E931297203080E0380780E0480760
:100A000080E4580758F314962D933D934D935C93CF
:100A1000179708952F3F310579F441155105610568
:100A2000710519F484E08C93089564FF03C081E09C
:100A30008C9312C01C9210C02F57304013963C93D9
:100A40002E93129783E08C9387E0440F551F661F07
:100A5000771F8A95D1F7706414964D935D936D93CB
:100A60007C9317970895CF92DF92EF92FF920F93A6
:100A70001F93DF93CF93CDB7DEB762970FB6F8948D
:100A8000DEBF0FBECDBF0E945807DE011196E0E623
:100A9000F0E089E001900D928150E1F7CE010196DE
:100AA0000E94F30810E088ECE82EF12C0BC0F7014F
:100AB0003197F1F70197D9F78EE20E940C081F5F7A
:100AC000123019F084EF91E0F2CF8CED95E028EC34
:100AD00030E0F9013197F1F70197D9F70E94D50974
:100AE0000E943707DE011A96E9E6F0E089E00190FE
:100AF0000D928150E1F78E01065F1F4FC8010E94E1
:100B0000F30860E070E080E090E00E941208680165
:100B10000E949109E82EFF24E7FCF0940F2D1F2D71
:100B20008FEFE8168FEFF8068FEF08078FEF1807A3
:100B300079F30E943707C6010E94F308C801B70184
:100B40000E941208E5CFDF92EF92FF920F931F935E
:100B5000CF93DF93E82EFF2400E010E0282F70E011
:100B600030E040E0DD24C62FD0E021970BC0622F9B
:100B7000832F942FA80197010E940C0B262F382F4A
:100B8000492FD3948D2D90E08C179D0784F3622F0D
:100B9000832F942FDF91CF911F910F91FF90EF90B2
:100BA000DF90089508950F931F9380E067E040E081
:100BB0000E94130A80E066E040E00E94130A80E091
:100BC00065E040E00E94130A80E064E040E00E949B
:100BD000130A80E062E00E949D0A80E061E00E94CA
:100BE000890A12E0812F8A95F1F780E060E00E9487
:100BF000890A812F8A95F1F780E00E94EF0A082F79
:100C00000295007F80E060E00E949D0A8AE18A955B
:100C1000F1F780E060E00E94890A1A95F1F780E020
:100C20000E94EF0A082B80E060E00E949D0A80E0AD
:100C300067E04FEF0E94130A80E066E04FEF0E94EA
:100C4000130A80E065E04FEF0E94130A80E064E041
:100C50004FEF0E94130A802F8F771F910F910895F5
:100C60000F931F93CF93DF9380E062E00E949D0A71
:100C700080E061E00E949D0A12E0812F8A95F1F7E1
:100C800080E060E00E94890A1A95F1F7C0E0D0E0A8
:100C900002E010E0CE018C5F682FA8010C2E02C08C
:100CA000559547950A94E2F7417080E00E94C60A84
:100CB0002196C430D10571F780E060E00E949D0A62
:100CC0008AE18A95F1F780E060E00E94890A82E07B
:100CD0008A95F1F7C0E0D0E002E010E0CE018C5F31
:100CE000682FA8010C2E02C0559547950A94E2F78B
:100CF000417080E00E94C60A2196C430D10571F788
:100D000080E060E00E949D0A8AE18A95F1F780E028
:100D100060E00E94890A82E08A95F1F7C0E0D0E0A5
:100D200008E010E0CE018C5F682FA8010C2E02C0F5
:100D3000559547950A94E2F7417080E00E94C60AF3
:100D40002196C430D10571F780E060E00E949D0AD1
:100D50008AE18A95F1F7DF91CF911F910F91089564
:100D6000EF92FF920F931F93CF93DF93082F80E0B2
:100D700062E00E949D0A80E061E00E949D0A12E00C
:100D8000812F8A95F1F780E060E00E94890A812F27
:100D90008A95F1F7E02EFF24A70134E05595479599
:100DA0003A95E1F7417080E064E00E94C60AA7012D
:100DB00025E0559547952A95E1F7417080E065E07B
:100DC0000E94C60AA70196E0559547959A95E1F7C6
:100DD000417080E066E00E94C60AA701440F452FDB
:100DE000441F550B417080E067E00E94C60A80E016
:100DF00060E00E949D0A8AE18A95F1F780E060E058
:100E00000E94890A1A95F1F7C0E0D0E0CE018C5F0C
:100E1000682FA7010C2E02C0559547950A94E2F75A
:100E2000417080E00E94C60A2196C430D10571F756
:100E300080E060E00E949D0ADF91CF911F910F91A9
:100E4000FF90EF9008958CE00E94B00685E88A95A7
:100E5000F1F7089588E00E94B00684EF91E028EC55
:100E600030E0F9013197F1F70197D9F708950F9321
:100E70001F9381E00E94B00600EA1FE0C8010197BD
:100E8000F1F782E00E94B006C8010197F1F71F91C7
:100E90000F91089590E0029646E0880F991F4A95B9
:100EA000E1F7860F0E94B00685E88A95F1F708956C
:100EB0001F9380E067E04FEF0E94130A80E066E036
:100EC0004FEF0E94130A80E065E04FEF0E94130A83
:100ED00080E064E04FEF0E94130A80E060E04FEF93
:100EE0000E94130A80E061E04FEF0E94130A80E045
:100EF00062E04FEF0E94130A84EF91E028EC30E0AB
:100F0000F9013197F1F70197D9F70E94300615E8FA
:100F1000812F8A95F1F78CE00E94B0061A95F1F7BF
:100F200081E00E94B00680EA9FE00197F1F71F91EF
:100F30000895EF92FF920F931F93CF93DF93082FA3
:100F400080E062E00E94890A80E061E00E949D0AE0
:100F500012E0812F8A95F1F780E060E00E94890A13
:100F6000812F8A95F1F7E02EFF24A701F4E0559533
:100F70004795FA95E1F7417080E064E00E94C60A67
:100F8000A701E5E055954795EA95E1F7417080E0C6
:100F900065E00E94C60AA70176E0559547957A95C7
:100FA000E1F7417080E066E00E94C60AA701440FA5
:100FB000452F441F550B417080E067E00E94C60A30
:100FC00080E060E00E949D0A8AE18A95F1F780E066
:100FD00060E00E94890A1A95F1F7C0E0D0E0CE01E6
:100FE0008C5F682FA7010C2E02C0559547950A9477
:100FF000E2F7417080E00E94C60A2196C430D10514
:1010000071F780E060E00E949D0ADF91CF911F910F
:101010000F91FF90EF9008950E94990785E88A95B7
:10102000F1F70895AF92BF92CF92DF92EF92FF92C5
:101030000F931F93DF93CF93CDB7DEB72A970FB6E9
:10104000F894DEBF0FBECDBF7B018C016115710529
:101050008105910521F480E30E940C080DC097FFE3
:101060000BC08DE20E940C0810950095F094E0945E
:10107000E11CF11C011D111D5E010894A11CB11C95
:10108000DD2423C0C801B7012AE030E040E050E091
:101090000E942B0BF50161935F01D394FBE0DF16F7
:1010A00041F411E0ED2CFF246E010894C11CD11C09
:1010B0001CC0C801B7012AE030E040E050E00E94C7
:1010C0002B0BC901DA017C018D01E114F10401054A
:1010D0001105C1F6E6CFF701E81BF90BEC0DFD1D7C
:1010E0008081805D0E940C081F5F812F90E0E816D0
:1010F000F9068CF72A960FB6F894DEBF0FBECDBF67
:10110000CF91DF911F910F91FF90EF90DF90CF90E3
:10111000BF90AF9008952F923F924F925F926F923F
:101120007F928F929F92AF92BF92CF92DF92EF9277
:10113000FF920F931F93CF93DF931B012C01142F6A
:101140000E9443033B014C0100E0AAE0AA2EB12C0F
:10115000C12CD12CC12FD0E021970BC0C601B50105
:101160002AE030E040E050E00E940C0B5B016C0193
:101170000F5F802F90E08C179D0784F3C401B301AB
:101180000E9412088EE20E940C08C401B3010E9462
:10119000E5029B01AC01C201B1010E948D017B01FE
:1011A0008C01C601B5010E94E5029B01AC01C8019A
:1011B000B7010E94EB010E9443036F770E9412085F
:1011C000DF91CF911F910F91FF90EF90DF90CF9023
:1011D000BF90AF909F908F907F906F905F904F9057
:1011E0003F902F9008951F93CF93DF93EC0110E071
:1011F00003C00E940C081F5FFE01E10FF11D8081FA
:101200008823B9F7DF91CF911F9108951F9380E054
:1012100060E00E94F50984EF91E028EC30E0F901EC
:101220003197F1F70197D9F780E062E00E949D0ABB
:1012300080E061E00E94890A12E0812F8A95F1F72F
:1012400080E060E00E94890A1A95F1F780E00E9430
:10125000EF0A182F80E060E00E949D0A80E06FEFA7
:101260000E94F509812F8F771F9108950F931F9387
:10127000082F80E062E00E949D0A80E061E00E9409
:101280009D0A12E0812F8A95F1F780E060E00E94CC
:10129000890A1A95F1F780E0602F0E947E0A80E0AB
:1012A00060E00E949D0A1F910F9108950F931F9374
:1012B000082F80E062E00E94890A80E061E00E94DD
:1012C0009D0A12E0812F8A95F1F780E060E00E948C
:1012D000890A1A95F1F780E0602F0E947E0A80E06B
:1012E00060E00E949D0A1F910F910895BC0120E0CB
:1012F00030E00CC08C91808314963496E417F50787
:10130000C9F72F5F3F4F2430310551F0DB01A20FA9
:10131000B31FF901E658FE4FA90146575E4FEACFC9
:1013200008950F931F9300E080E0602F0E949D0AB4
:1013300080E064E00E94FA0A882311F414E017C0E8
:1013400080E065E00E94FA0A882311F415E00FC0DE
:1013500080E066E00E94FA0A882311F416E007C0D4
:1013600080E067E00E94FA0A8823A1F417E080E099
:10137000612F0E94FA0A8823D1F3E12FF0E034971D
:10138000EE0FFF1FEE0FFF1FE00FF11DE658FE4F9F
:10139000808108C080E0602F0E94890A0F5F0430BE
:1013A00019F68FEF1F910F9108951F9310E080E0C1
:1013B000612F4FEF0E94130A80E0612F0E94890A7B
:1013C0001F5F1430A1F780E064E00E943C0A80E0D7
:1013D00065E00E943C0A80E066E00E943C0A80E0F2
:1013E00067E00E943C0A1F910895E82FF0E0EE0F9D
:1013F000FF1FE656FE4F0190F081E02D60830895B7
:10140000E82FF0E0EE0FFF1FDF01A656BE4F0D9054
:10141000BC91A02D1C92EE56FE4F0190F081E02D64
:101420008FEF80830895E82FF0E0442391F0EE0FD2
:10143000FF1FE656FE4F0190F081E02D208181E0F4
:1014400090E002C0880F991F6A95E2F7282B20834D
:101450000895EE0FFF1FE656FE4F0190F081E02D3C
:10146000208181E090E002C0880F991F6A95E2F721
:101470008095822380830895A82FB0E0AA0FBB1F18
:10148000FD01E656FE4F0190F081E02D908121E0B4
:1014900030E002C0220F331F6A95E2F7822F809559
:1014A00089238083AE56BE4FED91FC918081822BC3
:1014B00080830895E82FF0E0EE0FFF1FEE56FE4FF9
:1014C0000190F081E02D8FEF80830895E82FF0E008
:1014D000EE0FFF1FEE56FE4F0190F081E02D1082BF
:1014E0000895E82FF0E0EE0FFF1FEE56FE4F01903B
:1014F000F081E02D8081809580830895E82FF0E0D1
:10150000EE0FFF1FEE56FE4F0190F081E02D60833D
:101510000895E82FF0E0EE0FFF1FEE56FE4F01900A
:10152000F081E02D208181E090E002C0880F991FBA
:101530006A95E2F7282B20830895E82FF0E0EE0F5C
:10154000FF1FEE56FE4F0190F081E02D208181E0DB
:1015500090E002C0880F991F6A95E2F78095822378
:1015600080830895E82FF0E0EE0FFF1FEE56FE4F48
:101570000190F081E02D208181E090E002C0880F91
:10158000991F6A95E2F7282720830895E82FF0E055
:10159000442391F0EE0FFF1FEE56FE4F0190F081B5
:1015A000E02D208181E090E002C0880F991F6A95AC
:1015B000E2F7282B20830895EE0FFF1FEE56FE4F13
:1015C0000190F081E02D208181E090E002C0880F41
:1015D000991F6A95E2F78095822380830895E82F0A
:1015E000F0E0EE0FFF1FE657FE4F0190F081E02D77
:1015F00080810895E82FF0E0EE0FFF1FE657FE4FC1
:101600000190F081E02D808190E002C09595879552
:101610006A95E2F781700895629FD001739FF0018F
:10162000829FE00DF11D649FE00DF11D929FF00D72
:10163000839FF00D749FF00D659FF00D9927729FA9
:10164000B00DE11DF91F639FB00DE11DF91FBD0134
:10165000CF011124089597FB092E05260ED057FDC2
:1016600004D014D00AD0001C38F450954095309521
:1016700021953F4F4F4F5F4F0895F6F79095809516
:10168000709561957F4F8F4F9F4F0895A1E21A2E5D
:10169000AA1BBB1BFD010DC0AA1FBB1FEE1FFF1F16
:1016A000A217B307E407F50720F0A21BB30BE40B66
:1016B000F50B661F771F881F991F1A9469F76095AD
:1016C0007095809590959B01AC01BD01CF01089567
:1016D0002F923F924F925F926F927F928F929F9242
:1016E000AF92BF92CF92DF92EF92FF920F931F9330
:1016F000CF93DF93CDB7DEB7CA1BDB0B0FB6F894E1
:10170000DEBF0FBECDBF09942A88398848885F8420
:101710006E847D848C849B84AA84B984C884DF8091
:10172000EE80FD800C811B81AA81B981CE0FD11D75
:101730000FB6F894DEBF0FBECDBFED010895F8944B
:02174000FFCFD9
:101742005374617274696E670056616C7565203DF1
:10175200200000000000000000000001020203035C
:101762000303040404040404040405050505050533
:101772000505050505050505050506060606060611
:1017820006060606060606060606060606060606F7
:1017920006060606060606060606070707070707E1
:1017A20007070707070707070707070707070707C7
:1017B20007070707070707070707070707070707B7
:1017C20007070707070707070707070707070707A7
:1017D2000707070707070707070708080808080891
:1017E2000808080808080808080808080808080877
:1017F2000808080808080808080808080808080867
:101802000808080808080808080808080808080856
:101812000808080808080808080808080808080846
:101822000808080808080808080808080808080836
:101832000808080808080808080808080808080826
:101842000808080808080808080808080808080816
:101852000808080808080808080801020304050621
:101862000708090A0B0C0D0E0F1039003600330061
:1018720030003B003800350032003A0037003400B7
:02188200310033
:00000001FF
