:100000000C942A000C9447000C9447000C94470071
:100010000C9447000C9447000C9447000C94470044
:100020000C9447000C9447000C9447000C94470034
:100030000C9447000C9447000C9447000C94470024
:100040000C9447000C9447000C9447000C94D60F76
:100050000C94470011241FBECFE5D8E0DEBFCDBF12
:1000600011E0A0E6B0E0E2EAF3E202C005900D92F2
:10007000AE3FB107D9F712E0AEEFB1E001C01D927B
:10008000A931B107E1F70E943B050C94CF110C9404
:100090000000A0E0B0E0EFE4F0E00C949811DC0187
:1000A0002B01FA019C91923008F439C1EB0188814F
:1000B000823008F433C1943069F4843009F02FC1E0
:1000C00011969C9111978981981709F428C1AAE883
:1000D000B0E025C1843009F421C18230A9F4923006
:1000E00009F01DC19A01AD0188E0EA010990AE0155
:1000F000E90109929E018150C1F7E20189811196BF
:100100009C918923818308C1923009F407C112961A
:100110002D903C901397EB018A819B811496AD90B2
:10012000BD90CD90DC901797EC80FD800E811F81F3
:100130009101281B390BB90137FF04C066277727C7
:10014000621B730B603271050CF061C0121613064E
:100150006CF537014801062E04C096948794779475
:1001600067940A94D2F721E030E040E050E004C008
:10017000220F331F441F551F6A95D2F7215030407C
:10018000404050402E213F2140235123211531056D
:100190004105510521F021E030E040E050E07901D7
:1001A0008A01E628F728082919293CC0232BD1F118
:1001B000260E371E35014601062E04C096948794FC
:1001C000779467940A94D2F721E030E040E050E061
:1001D00004C0220F331F441F551F6A95D2F72150C8
:1001E0003040404050402A213B214C215D212115C7
:1001F00031054105510521F021E030E040E050E0BB
:1002000059016A01A628B728C828D9280BC0821529
:1002100093052CF01C01AA24BB24650103C0EE2425
:10022000FF24870111969C91D20111968C91981709
:1002300009F445C0992339F0A80197012A193B090F
:100240004C095D0906C0A60195012E193F09400B16
:10025000510B57FD08C011823382228224833583DB
:10026000468357831DC081E08183338222828827A1
:100270009927DC01821B930BA40BB50B8483958318
:10028000A683B7830DC0220F331F441F551F24833D
:100290003583468357838281938101979383828339
:1002A0002481358146815781DA01C9010197A1096D
:1002B000B1098F5F9F4FAF4FBF4328F30BC09183AE
:1002C00033822282EA0CFB1C0C1D1D1DE482F58288
:1002D0000683178383E0808324813581468157819B
:1002E00057FF1AC0C901AA2797FDA095BA2F8170A0
:1002F0009070A070B0705695479537952795822BD2
:10030000932BA42BB52B84839583A683B7838281FB
:100310009381019693838283DF0101C0D201CD01D5
:10032000CDB7DEB7E2E10C94B411A0E2B0E0EBE9A6
:10033000F1E00C94A41169837A838B839C832D83D1
:100340003E834F835887E9E0EE2EF12CEC0EFD1E24
:10035000CE010196B7010E94C3048E010F5E1F4FAC
:10036000CE010596B8010E94C3048A8991E08927CD
:100370008A8BC701B801AE01475E5F4F0E944900FA
:100380000E94EE03A096E6E00C94C011A0E2B0E05B
:10039000ECECF1E00C94A41169837A838B839C8349
:1003A0002D833E834F835887F9E0EF2EF12CEC0E1E
:1003B000FD1ECE010196B7010E94C3048E010F5E9F
:1003C0001F4FCE010596B8010E94C304C701B801B2
:1003D000AE01475E5F4F0E9449000E94EE03A09667
:1003E000E6E00C94C011A0E2B0E0E9EFF1E00C947B
:1003F000981169837A838B839C832D833E834F83FB
:100400005887CE010196BE01675F7F4F0E94C304EB
:10041000CE010596BE016F5E7F4F0E94C304998591
:10042000923088F089898230C8F0943019F4823093
:1004300051F404C0843029F4923081F48AE890E0C9
:10044000C6C0923049F420E09A858A89981321E049
:100450002A87CE010996BBC0823049F420E09A85F4
:100460008A89981321E02A8BCE014196B0C02D8451
:100470003E844F8458886D887E888F88988CEE24BF
:10048000FF248701AA24BB24650140E050E060E01E
:1004900070E0E0E0F0E0C10181709070892BE9F03C
:1004A000E60CF71C081D191D9A01AB012A0D3B1D16
:1004B0004C1D5D1D80E090E0A0E0B0E0E614F70484
:1004C0000805190520F481E090E0A0E0B0E0BA0151
:1004D000A901480F591F6A1F7B1FAA0CBB1CCC1C0B
:1004E000DD1C97FE08C081E090E0A0E0B0E0A82A03
:1004F000B92ACA2ADB2A3196E032F10549F0660CA6
:10050000771C881C991C5694479437942794C3CF22
:10051000FA85EA892B893C898B859C85280F391FB0
:100520002E5F3F4F17C0CA0181709070892B61F018
:1005300016950795F794E79480E090E0A0E0B0E886
:10054000E82AF92A0A2B1B2B76956795579547952C
:100550002F5F3F4F77FDE7CF0CC0440F551F661F3D
:10056000771F17FD4160EE0CFF1C001F111F21506B
:100570003040403090E0590790E0690790E47907F7
:1005800060F32B8F3C8FDB01CA018F779070A070D6
:10059000B07080349105A105B10561F447FD0AC032
:1005A000E114F1040105110529F0405C5F4F6F4F24
:1005B0007F4F40781A8EFE1711F081E08A8F4D8FA1
:1005C0005E8F6F8F78A383E0898FCE0149960E945A
:1005D000EE03A096E2E10C94B411A8E0B0E0E3EFE2
:1005E000F2E00C94A1119B01AC0183E08983DA0154
:1005F000C9018827B7FD83959927AA27BB27B82E5D
:10060000211531054105510519F482E089833AC06D
:100610008823A9F0203080E0380780E0480780E890
:10062000580729F460E070E080E09FEC30C0EE24D1
:10063000FF248701E21AF30A040B150B02C07901AB
:100640008A018EE1C82ED12CDC82CB82ED82FE8223
:100650000F831887C801B7010E949F0301971816DE
:10066000190684F4082E04C0EE0CFF1C001F111F95
:100670000A94D2F7ED82FE820F831887C81AD90A2E
:10068000DC82CB82BA82CE0101960E94EE032896CC
:10069000E9E00C94BD11ACE0B0E0E1E5F3E00C94CE
:1006A000A81169837A838B839C83CE010196BE0156
:1006B0006B5F7F4F0E94C3048D81823061F1823075
:1006C00050F1843021F48E81882351F12EC02F8186
:1006D000388537FD20C06E812F3131051CF066232F
:1006E000F9F023C08EE190E0821B930B29853A85B7
:1006F0004B855C8504C056954795379527958A9517
:10070000D2F76623B1F050954095309521953F4F33
:100710004F4F5F4F0EC020E030E040E050E009C096
:100720002FEF3FEF4FEF5FE704C020E030E040E005
:1007300050E8B901CA012C96E2E00C94C411EF9282
:10074000FF920F931F937B018C0180E0E81680E0FD
:10075000F80681E0080780E0180788F48FEFE816B4
:10076000F1040105110531F028F088E090E0A0E0E7
:10077000B0E017C080E090E0A0E0B0E012C080E000
:10078000E81680E0F80680E0080781E0180728F006
:1007900088E190E0A0E0B0E004C080E190E0A0E05B
:1007A000B0E020E230E040E050E0281B390B4A0B7B
:1007B0005B0B04C016950795F794E7948A95D2F7DA
:1007C000F701EE56FF4F8081281B3109410951097D
:1007D000C9011F910F91FF90EF900895DF92EF9262
:1007E000FF920F931F93FC01E480F580068117812F
:1007F000D1808081823048F480E090E0A0E1B0E0D8
:10080000E82AF92A0A2B1B2BA5C0843009F49FC0C3
:10081000823021F4EE24FF24870105C0E114F104A5
:100820000105110519F4E0E0F0E096C062817381E2
:100830009FEF623879070CF05BC022E83FEF261B80
:10084000370B2A3131052CF020E030E040E050E059
:100850002AC0B801A701022E04C076956795579566
:1008600047950A94D2F781E090E0A0E0B0E004C0A0
:10087000880F991FAA1FBB1F2A95D2F70197A109BC
:10088000B1098E219F21A023B1230097A105B105B5
:1008900021F081E090E0A0E0B0E09A01AB01282BCC
:1008A000392B4A2B5B2BDA01C9018F779070A0702E
:1008B000B07080349105A105B10539F427FF09C056
:1008C000205C3F4F4F4F5F4F04C0215C3F4F4F4F65
:1008D0005F4FE0E0F0E02030A0E03A07A0E04A07F8
:1008E000A0E45A0710F0E1E0F0E079018A0127C0A6
:1008F0006038710564F5FB01E158FF4FD801C7016D
:100900008F779070A070B07080349105A105B1050B
:1009100039F4E7FE0DC080E490E0A0E0B0E004C050
:100920008FE390E0A0E0B0E0E80EF91E0A1F1B1F65
:1009300017FF05C016950795F794E794319687E061
:1009400016950795F794E7948A95D1F705C0EE249C
:10095000FF248701EFEFF0E06E2F6795662767951C
:10096000902F9F77D794DD24D7948E2F8695492F8B
:10097000462B582F5D29B701CA011F910F91FF9097
:10098000EF90DF900895FC01DB01408151812281CD
:10099000622F6F7770E0221F2227221F9381892FF9
:1009A000880F822B282F30E0991F9927991F1196C5
:1009B0009C93119721153105A9F541155105610544
:1009C000710511F482E037C082E89FEF13969C9383
:1009D0008E9312979A01AB0167E0220F331F441FD9
:1009E000551F6A95D1F783E08C930DC0220F331FFA
:1009F000441F551F12968D919C9113970197139642
:100A00009C938E931297203080E0380780E048074F
:100A100080E4580758F314962D933D934D935C93BF
:100A2000179708952F3F310579F441155105610558
:100A3000710519F484E08C93089564FF03C081E08C
:100A40008C9312C01C9210C02F57304013963C93C9
:100A50002E93129783E08C9387E0440F551F661FF7
:100A6000771F8A95D1F7706414964D935D936D93BB
:100A70007C9317970895AF92BF92CF92DF92EF9237
:100A8000FF920F931F93DF93CF93CDB7DEB7AA9753
:100A90000FB6F894DEBF0FBECDBF0E948E090E9434
:100AA000470B83E060E00E94601083E061E00E94F9
:100AB000601083E062E00E94601083E063E00E94C7
:100AC0006010DE011196EEEAF1E08EE001900D92E9
:100AD0008150E1F7DE011F96E0EAF1E08EE001903F
:100AE0000D928150E1F7DE015D96E2E9F1E08EE0E2
:100AF00001900D928150E1F7E981FA810995F82E74
:100B00000E94260B80E060E00E94390B8D8D9E8D47
:100B10000E94E20C81E060E00E94390B6F2D70E0D2
:100B200080E090E00E94010CEE2458ECC52ED12C00
:100B30005E010894A11CB11C83E060E00E941E11BC
:100B40008823A9F58CED95E0F6013197F1F701972F
:100B5000D9F786E0E81611F4EE2401C0E39483E0AF
:100B600060E00E941E118823D1F30E94260B80E0D2
:100B700060E00E94390B0E2D10E0000F111F0A0DCE
:100B80001B1DD8015C968D919C915D970E94E20C93
:100B900081E060E00E94390BD801ED91FC9109954C
:100BA000F82E682F70E080E090E00E94010C83E056
:100BB00061E00E941E11882399F58CED95E0F60105
:100BC0003197F1F70197D9F7EE2019F436E0E32ECB
:100BD00001C0EA9483E061E00E941E118823D1F3F2
:100BE0000E94260B80E060E00E94390B0E2D10E081
:100BF000000F111F0A0D1B1DF801848D958D0E9499
:100C0000E20C81E060E00E94390BD801ED91FC918B
:100C10000995F82E682F70E080E090E00E94010CAA
:100C200083E063E00E941E11882309F085CF8CEDDC
:100C300095E0F6013197F1F70197D9F783E063E08A
:100C40000E941E118823D1F347C083E060E00E9418
:100C50001E118823E9F48CED95E0F6013197F1F748
:100C60000197D9F70E94260B80E060E00E94390BC3
:100C7000F801808191810E94E20C81E060E00E9495
:100C8000390BF3946F2D70E080E090E00E94010C2E
:100C900083E061E00E941E11882331F58CED95E020
:100CA000F6013197F1F70197D9F70E94260B80E002
:100CB00060E00E94390BD8018D919C910E94E20C5A
:100CC00081E060E00E94390BFA946F2D70E080E0C3
:100CD00090E00E94010C08C00E2D10E0000F111FC3
:100CE0000A0D1B1D045E1F4F83E062E00E941E116F
:100CF000813009F4AACF8CED95E0F6013197F1F738
:100D00000197D9F783E062E00E941E118823D1F396
:100D1000EE2DF0E0EE0FFF1FEA0DFB1D0684F785B8
:100D2000E02D8F2D099508CFDF93CF9300D000D011
:100D300000D0CDB7DEB7DE011496FE01319683E018
:100D400001900D928150E1F76C817D818E8190E060
:100D500026960FB6F894DEBF0FBECDBFCF91DF91C0
:100D6000089560E070E080E090E0089508950895AF
:100D7000DF93CF9300D000D0CDB7DEB730ED39830D
:100D800023E02A838B839FEF9C8330930F02209371
:100D9000100280931102909312028D8180931302AE
:100DA0008FE092E00E94780D0F900F900F900F90BF
:100DB000CF91DF910895DF93CF9300D000D0CDB7CE
:100DC000DEB7482FE0EDE98354E05A836AE00E94E1
:100DD0004F11282F30E084E0220F331F8A95E1F76E
:100DE000842F0E944F11922B9B838FEF8C83E09373
:100DF0000F025093100290931102809312028D8182
:100E0000809313028FE092E00E94780D0F900F9074
:100E10000F900F90CF91DF910895DF93CF9300D083
:100E200000D0CDB7DEB7482FE0EDE98355E05A8317
:100E30006AE00E944F11282F30E094E0220F331F08
:100E40009A95E1F7842F0E944F11922B9B838FEF8D
:100E50008C83E0930F0250931002909311028093C1
:100E600012028D81809313028FE092E00E94780D30
:100E70000F900F900F900F90CF91DF910895DF9317
:100E8000CF9300D000D0CDB7DEB7482FE0EDE98397
:100E900056E05A836AE00E944F11282F30E074E038
:100EA000220F331F7A95E1F7842F0E944F11922B66
:100EB0009B838FEF8C83E0930F02509310029093EB
:100EC0001102809312028D81809313028FE092E0D1
:100ED0000E94780D0F900F900F900F90CF91DF919F
:100EE0000895DF93CF9300D000D0CDB7DEB7482F61
:100EF00050ED59831A826AE00E944F11282F30E08A
:100F0000E4E0220F331FEA95E1F7842F0E944F118E
:100F1000922B9B838FEF8C8350930F0210921002C1
:100F200090931102809312028D81809313028FE0BF
:100F300092E00E94780D0F900F900F900F90CF913C
:100F4000DF910895DF93CF9300D000D0CDB7DEB707
:100F5000482FE0EDE98351E05A836AE00E944F1187
:100F6000282F30E0F4E0220F331FFA95E1F7842FA9
:100F70000E944F11922B9B838FEF8C83E0930F0283
:100F80005093100290931102809312028D818093EE
:100F900013028FE092E00E94780D0F900F900F9057
:100FA0000F90CF91DF910895DF93CF9300D000D0C1
:100FB000CDB7DEB7482FE0EDE98352E05A836AE00F
:100FC0000E944F11282F30E0A4E0220F331FAA9572
:100FD000E1F7842F0E944F11922B9B838FEF8C831C
:100FE000E0930F025093100290931102809312022B
:100FF0008D81809313028FE092E00E94780D0F9014
:101000000F900F900F90CF91DF910895DF93CF93C2
:10101000CDB7DEB72A970FB6F894DEBF0FBECDBFAF
:1010200080ED89831A821B821C821D821E821F8290
:10103000188619868FEF8A8720E030E0AE014F5F77
:101040005F4FF901E15FFD4FDA01A20FB31F8C91F1
:1010500080832F5F3F4F2A30310599F78FE092E070
:101060000E94780D2A960FB6F894DEBF0FBECDBF52
:10107000CF91DF910895DF93CF9300D000D000D0BF
:10108000CDB7DEB7DE011196ECEBF1E086E0019022
:101090000D928150E1F720E030E0AE014F5F5F4FED
:1010A000F901E15FFD4FDA01A20FB31F8C9180833C
:1010B0002F5F3F4F2730310599F78FE092E00E9474
:1010C000780D8EEE92E00197F1F70E94C20FFC01BD
:1010D0008081877026960FB6F894DEBF0FBECDBF15
:1010E000CF91DF91089520E030E0F901E15FFD4FFD
:1010F000D901AE53BE4F8C9180832F5F3F4F273075
:10110000310599F78FE092E00E94780D8EEE92E023
:101110000197F1F70E94C20FFC014081842F90E0FB
:101120008073907064E0959587956A95E1F79C01CE
:1011300053E0220F331F5A95E1F7880F991F820F52
:101140004F70840F089520E030E0F901E15FFD4F1A
:10115000D901A853BE4F8C9180832F5F3F4F27301A
:10116000310599F78FE092E00E94780D8EEE92E0C3
:101170000197F1F70E94C20FFC014081842F90E09B
:1011800080719070F4E095958795FA95E1F79C0150
:10119000E3E0220F331FEA95E1F7880F991F820FD2
:1011A0004F70840F089520E030E0F901E15FFD4FBA
:1011B000D901A253BE4F8C9180832F5F3F4F2730C0
:1011C000310599F78FE092E00E94780D8EEE92E063
:1011D0000197F1F70E94C20FFC014081842F829594
:1011E0008F7090E09C01B3E0220F331FBA95E1F7B6
:1011F000880F991F820F4F70840F089520E030E010
:10120000F901E15FFD4FD901AC52BE4F8C91808353
:101210002F5F3F4F2730310599F78FE092E00E9412
:10122000780D8EEE92E00197F1F70E94C20FFC015B
:101230004081842F90E08077907064E09595879549
:101240006A95E1F79C0153E0220F331F5A95E1F7AD
:10125000880F991F820F4F70840F089520E030E0AF
:10126000F901E15FFD4FD901A652BE4F8C918083F9
:101270002F5F3F4F2730310599F78FE092E00E94B2
:10128000780D8EEE92E00197F1F70E94C20FFC01FB
:101290004081842F90E080779070F4E09595879559
:1012A000FA95E1F79C01E3E0220F331FEA95E1F79D
:1012B000880F991F820F4F70840F089520E030E04F
:1012C000F901E15FFD4FD901A052BE4F8C9180839F
:1012D0002F5F3F4F2730310599F78FE092E00E9452
:1012E000780D8EEE92E00197F1F70E94C20FFC019B
:1012F0004081842F90E08073907024E095958795CD
:101300002A95E1F79C01B3E0220F331FBA95E1F76C
:10131000880F991F820F4F70840F089584E60E94F2
:10132000650D0895DF92EF92FF920F931F93CF9375
:10133000DF93E82EFF2400E010E0282F70E030E07B
:1013400040E0DD24C62FD0E021970BC0622F832F11
:10135000942FA80197010E943011262F382F492F72
:10136000D3948D2D90E08C179D0784F3622F832FEB
:10137000942FDF91CF911F910F91FF90EF90DF900D
:10138000089508950F931F9380E067E040E00E9466
:10139000371080E066E040E00E94371080E065E0B2
:1013A00040E00E94371080E064E040E00E94371087
:1013B00080E062E00E94C11080E061E00E94AD1018
:1013C00012E0812F8A95F1F780E060E00E94AD1075
:1013D000812F8A95F1F780E00E941311082F029562
:1013E000007F80E060E00E94C1108AE18A95F1F7F9
:1013F00080E060E00E94AD101A95F1F780E00E9455
:101400001311082B80E060E00E94C11080E067E0CB
:101410004FEF0E94371080E066E04FEF0E943710D8
:1014200080E065E04FEF0E94371080E064E04FEF0E
:101430000E943710802F8F771F910F9108950F937F
:101440001F93CF93DF9380E062E00E94C11080E0A1
:1014500061E00E94C11012E0812F8A95F1F780E0CF
:1014600060E00E94AD101A95F1F7C0E0D0E002E014
:1014700010E0CE018C5F682FA8010C2E02C055959C
:1014800047950A94E2F7417080E00E94EA102196A5
:10149000C430D10571F780E060E00E94C1108AE19C
:1014A0008A95F1F780E060E00E94AD1082E08A95B5
:1014B000F1F7C0E0D0E002E010E0CE018C5F682FD1
:1014C000A8010C2E02C0559547950A94E2F7417089
:1014D00080E00E94EA102196C430D10571F780E0C7
:1014E00060E00E94C1108AE18A95F1F780E060E037
:1014F0000E94AD1082E08A95F1F7C0E0D0E008E0EC
:1015000010E0CE018C5F682FA8010C2E02C055950B
:1015100047950A94E2F7417080E00E94EA10219614
:10152000C430D10571F780E060E00E94C1108AE10B
:101530008A95F1F7DF91CF911F910F910895EF9266
:10154000FF920F931F93CF93DF93082F80E062E009
:101550000E94C11080E061E00E94C11012E0812F62
:101560008A95F1F780E060E00E94AD10812F8A95A6
:10157000F1F7E02EFF24A70134E0559547953A9501
:10158000E1F7417080E064E00E94EA10A70125E0E5
:10159000559547952A95E1F7417080E065E00E94F6
:1015A000EA10A70196E0559547959A95E1F74170A5
:1015B00080E066E00E94EA10A701440F452F441F17
:1015C000550B417080E067E00E94EA1080E060E027
:1015D0000E94C1108AE18A95F1F780E060E00E94E4
:1015E000AD101A95F1F7C0E0D0E0CE018C5F682F06
:1015F000A7010C2E02C0559547950A94E2F7417059
:1016000080E00E94EA102196C430D10571F780E095
:1016100060E00E94C110DF91CF911F910F91FF9068
:10162000EF9008958CE00E949F0A85E88A95F1F773
:10163000089588E00E949F0A84EF91E028EC30E052
:10164000F9013197F1F70197D9F708950F931F9397
:1016500081E00E949F0A00EA1FE0C8010197F1F7AC
:1016600082E00E949F0AC8010197F1F71F910F9134
:10167000089590E0029646E0880F991F4A95E1F799
:10168000860F0E949F0A85E88A95F1F708951F93B7
:1016900080E067E04FEF0E94371080E066E04FEF98
:1016A0000E94371080E065E04FEF0E94371080E025
:1016B00064E04FEF0E94371080E060E04FEF0E943F
:1016C000371080E061E04FEF0E94371080E062E069
:1016D0004FEF0E94371084EF91E028EC30E0F901E1
:1016E0003197F1F70197D9F70E941F0A15E8812F6A
:1016F0008A95F1F78CE00E949F0A1A95F1F781E034
:101700000E949F0A80EA9FE00197F1F71F910895D8
:10171000EF92FF920F931F93CF93DF93082F80E0F8
:1017200062E00E94AD1080E061E00E94C11012E012
:10173000812F8A95F1F780E060E00E94AD10812F43
:101740008A95F1F7E02EFF24A701F4E0559547951F
:10175000FA95E1F7417080E064E00E94EA10A70189
:10176000E5E055954795EA95E1F7417080E065E041
:101770000E94EA10A70176E0559547957A95E1F722
:10178000417080E066E00E94EA10A701440F452FF7
:10179000441F550B417080E067E00E94EA1080E032
:1017A00060E00E94C1108AE18A95F1F780E060E074
:1017B0000E94AD101A95F1F7C0E0D0E0CE018C5F29
:1017C000682FA7010C2E02C0559547950A94E2F7A1
:1017D000417080E00E94EA102196C430D10571F773
:1017E00080E060E00E94C110DF91CF911F910F91C6
:1017F000FF90EF9008950E94880B85E88A95F1F795
:101800000895AF92BF92CF92DF92EF92FF920F9323
:101810001F93DF93CF93CDB7DEB72A970FB6F89417
:10182000DEBF0FBECDBF7B018C0161157105810547
:10183000910521F480E30E94FB0B0DC097FF0BC0C4
:101840008DE20E94FB0B10950095F094E094E11C52
:10185000F11C011D111D5E010894A11CB11CDD24A9
:1018600023C0C801B7012AE030E040E050E00E9408
:101870005B11F50161935F01D394FBE0DF1641F446
:1018800011E0ED2CFF246E010894C11CD11C1CC07A
:10189000C801B7012AE030E040E050E00E945B114F
:1018A000C901DA017C018D01E114F1040105110582
:1018B000C1F6E6CFF701E81BF90BEC0DFD1D8081A9
:1018C000805D0E94FB0B1F5F812F90E0E816F906F8
:1018D0008CF72A960FB6F894DEBF0FBECDBFCF911E
:1018E000DF911F910F91FF90EF90DF90CF90BF900D
:1018F000AF9008952F923F924F925F926F927F9296
:101900008F929F92AF92BF92CF92DF92EF92FF920F
:101910000F931F93CF93DF931B012C01142F0E9471
:101920004B033B014C0100E0AAE0AA2EB12CC12CD4
:10193000D12CC12FD0E021970BC0C601B5012AE000
:1019400030E040E050E00E9430115B016C010F5F1D
:10195000802F90E08C179D0784F3C401B3010E948F
:10196000010C8EE20E94FB0BC401B3010E94ED0248
:101970009B01AC01C201B1010E9495017B018C0168
:10198000C601B5010E94ED029B01AC01C801B7017F
:101990000E94F3010E944B036F770E94010CDF91BC
:1019A000CF911F910F91FF90EF90DF90CF90BF905C
:1019B000AF909F908F907F906F905F904F903F90EF
:1019C0002F9008951F93CF93DF93EC0110E003C095
:1019D0000E94FB0B1F5FFE01E10FF11D8081882338
:1019E000B9F7DF91CF911F9108951F9380E060E0D8
:1019F0000E94191084EF91E028EC30E0F901319752
:101A0000F1F70197D9F780E062E00E94C11080E011
:101A100061E00E94AD1012E0812F8A95F1F780E01D
:101A200060E00E94AD101A95F1F780E00E9413115A
:101A3000182F80E060E00E94C11080E06FEF0E94EC
:101A40001910812F8F771F9108950F931F93082FDF
:101A500080E062E00E94C11080E061E00E94C1105D
:101A600012E0812F8A95F1F780E060E00E94AD10CE
:101A70001A95F1F780E0602F0E94A21080E060E0EC
:101A80000E94C1101F910F9108950F931F93082F6B
:101A900080E062E00E94AD1080E061E00E94C11031
:101AA00012E0812F8A95F1F780E060E00E94AD108E
:101AB0001A95F1F780E0602F0E94A21080E060E0AC
:101AC0000E94C1101F910F91089590E290B911B832
:101AD000880F816082B98DE486BF8FB780688FBF21
:101AE0008FEF80930E020895089581B1887F089545
:101AF000FC0190819F3FA1F080910E028F3F81F405
:101B000090FD02C082E001C084E080930E02F09359
:101B10000902E093080286B7806286BF80E00895DC
:101B200081E0089581B1887F883A61F0893A28F48C
:101B3000863811F1803A41F51FC0883B79F0883C26
:101B400019F51AC080910702E82FF0E0E250FE4F2D
:101B5000908193B98F5F8093070216C0909107021E
:101B6000983050F4E92FF0E0E250FE4F808183B9C5
:101B70009F5F9093070208C0109207028FEF809337
:101B80000E0286B7806186BF86B7806886BF0895DB
:101B900081B1887F863869F1873828F4803651F022
:101BA000803879F513C0883921F1803A11F18039F4
:101BB00041F511C08091060293B1E82FF0E0E250A8
:101BC000FE4F90838F5F809306021BC090910602A8
:101BD000983078F404C090910602973050F083B1A9
:101BE000E92FF0E0E250FE4F80839F5F9093060262
:101BF00008C0109206028FEF80930E0286B78061B4
:101C000086BF86B7806886BF089581B1887F883691
:101C100089F0893618F48833F1F405C08837B1F0BB
:101C2000803BC9F40DC080910802909109020E9486
:101C3000780D089580E680930E020E94C80D0895E5
:101C400088EA80930E020E94920D089580E68093A8
:101C50000E020E94C80D089581B1887F803411F171
:101C6000813430F4883069F0803109F0D3C009C084
:101C7000803579F1883509F483C0883409F0CAC009
:101C800049C090910C02E0910802F0910902E90F1D
:101C9000F11D808183B986B78F7D86BF9F5F90934A
:101CA0000C02B4C090910C02E0910802F09109027C
:101CB000E90FF11D808181508083883010F087E02A
:101CC00080838081882309F0A1C09F5F90930C02DC
:101CD0001EC020910B0283B1E22FF0E0E250FE4FD4
:101CE00080832F5F20930B0230910C02E091080259
:101CF000F0910902E30FF11D808190E0821B9109B0
:101D0000181619060CF482C03F5F30930C0286B798
:101D10008F7B7BC080910A02882391F48EE08093B0
:101D20000A0280910C028150E0910802F0910902B0
:101D3000E80FF11D8F5F908193B980930C0266C00C
:101D40008E3059F480E180930A0280910C02815018
:101D500080930C0286B780625BC0803109F061C05D
:101D600082E180930A0286B7806186BF8FEF8093FD
:101D70000E0210920C02109209021092080246C044
:101D8000409108025091090220910C02FA01E20FE1
:101D9000F11D90819F3FB9F483B1E0910B02F0E017
:101DA000E250FE4F808390930E0210920C0210922C
:101DB0000B02109209021092080286B7806486BF57
:101DC00086B7806122C09E3F61F583B1E0910B022E
:101DD000F0E0E250FE4F80832F5FFA01E20FF11D29
:101DE000F0930902E093080210920C0210920B0289
:101DF000808180FF02C084E001C082E080930E02F7
:101E000086B7806486BF86B7806286BF86B78068E3
:101E100086BF089510920C028FEF80930E020E94ED
:101E2000050E089581B1887F8831F9F0893130F449
:101E3000883069F0803109F09DC009C0883219F1FD
:101E4000803309F462C0803209F094C050C0909190
:101E50000D02E0910802F0910902E90FF11D808165
:101E600083B986B78F7D86BF0AC090910D02E0913D
:101E70000802F0910902E90FF11D808183B99F5F8B
:101E800090930D0273C02091080230910902809155
:101E90000D02F901E80FF11DE081EF3F09F45AC08E
:101EA0008B3008F057C0EE3FB1F48F5FF901E80FB7
:101EB000F11DF0930902E093080210920D02808157
:101EC00080FF02C084E001C082E080930E0286B7EA
:101ED000806286BF4BC0ED3F09F453C0EC3F09F46C
:101EE00050C0EB3F09F44DC0E3B98F5F21C0809132
:101EF0000A02882311F482E00DC0823011F484E0DC
:101F00001DC08430F1F586E023C080910A02882349
:101F100091F488E080930A0280910D028150E09153
:101F20000802F0910902E80FF11D8F5F908193B9CB
:101F300080930D021BC0883041F48AE080930A022E
:101F400010920D0286B7806213C08A30D1F48CE003
:101F500080930A0286B7806186BF8FEF80930E025E
:101F600010920D02109209021092080286B7806842
:101F700086BF089510920D028FEF80930E020E948B
:101F8000050E08958EEF91E00895AC0120E030E059
:101F9000F901E250FE4FDA01A20FB31F8C9180834A
:101FA0002F5F3F4F2830310599F708951F920F9208
:101FB0000FB60F9211242F933F934F935F936F931C
:101FC0007F938F939F93AF93BF93EF93FF938091F2
:101FD0000E028F3F21F481B1887F80930E028091A1
:101FE0000E02843069F0853018F4823089F405C01F
:101FF000803661F0883A61F406C00E94120F08C072
:102000000E942C0E05C00E94920D02C00E94C80DB5
:10201000FF91EF91BF91AF919F918F917F916F91C0
:102020005F914F913F912F910F900FBE0F901F9096
:102030001895E82FF0E0EE0FFF1FEA50FE4F0190D9
:10204000F081E02D60830895E82FF0E0EE0FFF1F90
:10205000DF01AA50BE4F0D90BC91A02D1C92E25101
:10206000FE4F0190F081E02D8FEF80830895E82FDF
:10207000F0E0442391F0EE0FFF1FEA50FE4F019075
:10208000F081E02D208181E090E002C0880F991F4F
:102090006A95E2F7282B20830895EE0FFF1FEA5080
:1020A000FE4F0190F081E02D208181E090E002C0A0
:1020B000880F991F6A95E2F780958223808308959F
:1020C000A82FB0E0AA0FBB1FFD01EA50FE4F019000
:1020D000F081E02D908121E030E002C0220F331F1B
:1020E0006A95E2F7822F809589238083A251BE4FA3
:1020F000ED91FC918081822B80830895E82FF0E0A0
:10210000EE0FFF1FE251FE4F0190F081E02D8FEFA7
:1021100080830895E82FF0E0EE0FFF1FE251FE4F9D
:102120000190F081E02D10820895E82FF0E0EE0F8D
:10213000FF1FE251FE4F0190F081E02D80818095DC
:1021400080830895E82FF0E0EE0FFF1FE251FE4F6D
:102150000190F081E02D60830895E82FF0E0EE0F0C
:10216000FF1FE251FE4F0190F081E02D208181E0C0
:1021700090E002C0880F991F6A95E2F7282B208310
:102180000895E82FF0E0EE0FFF1FE251FE4F01909F
:10219000F081E02D208181E090E002C0880F991F3E
:1021A0006A95E2F78095822380830895E82FF0E016
:1021B000EE0FFF1FE251FE4F0190F081E02D2081D4
:1021C00081E090E002C0880F991F6A95E2F7282706
:1021D00020830895E82FF0E0442391F0EE0FFF1FD5
:1021E000E251FE4F0190F081E02D208181E090E0EE
:1021F00002C0880F991F6A95E2F7282B2083089563
:10220000EE0FFF1FE251FE4F0190F081E02D208183
:1022100081E090E002C0880F991F6A95E2F78095EF
:10222000822380830895E82FF0E0EE0FFF1FEA512C
:10223000FE4F0190F081E02D80810895E82FF0E0BD
:10224000EE0FFF1FEA51FE4F0190F081E02D8081DB
:1022500090E002C0959587956A95E2F781700895A0
:10226000629FD001739FF001829FE00DF11D649F7A
:10227000E00DF11D929FF00D839FF00D749FF00D06
:10228000659FF00D9927729FB00DE11DF91F639FA7
:10229000B00DE11DF91FBD01CF0111240895991B57
:1022A00079E004C0991F961708F0961B881F7A954D
:1022B000C9F78095089597FB092E05260ED057FD86
:1022C00004D014D00AD0001C38F4509540953095B5
:1022D00021953F4F4F4F5F4F0895F6F790958095AA
:1022E000709561957F4F8F4F9F4F0895A1E21A2EF1
:1022F000AA1BBB1BFD010DC0AA1FBB1FEE1FFF1FAA
:10230000A217B307E407F50720F0A21BB30BE40BF9
:10231000F50B661F771F881F991F1A9469F7609540
:102320007095809590959B01AC01BD01CF010895FA
:102330002F923F924F925F926F927F928F929F92D5
:10234000AF92BF92CF92DF92EF92FF920F931F93C3
:10235000CF93DF93CDB7DEB7CA1BDB0B0FB6F89474
:10236000DEBF0FBECDBF09942A88398848885F84B4
:102370006E847D848C849B84AA84B984C884DF8025
:10238000EE80FD800C811B81AA81B981CE0FD11D09
:102390000FB6F894DEBF0FBECDBFED010895F894DF
:0223A000FFCF6D
:1023A2005365636F6E6473004D696E757465730077
:1023B200486F757273004461790044617465004D21
:1023C2006F6E7468005965617200000000000000C1
:1023D20000000001020203030303040404040404D2
:1023E200040405050505050505050505050505059D
:1023F200050506060606060606060606060606067D
:10240200060606060606060606060606060606066A
:10241200060607070707070707070707070707074C
:10242200070707070707070707070707070707073A
:10243200070707070707070707070707070707072A
:10244200070707070707070707070707070707071A
:1024520007070808080808080808080808080808FC
:1024620008080808080808080808080808080808EA
:1024720008080808080808080808080808080808DA
:1024820008080808080808080808080808080808CA
:1024920008080808080808080808080808080808BA
:1024A20008080808080808080808080808080808AA
:1024B200080808080808080808080808080808089A
:1024C200080808080808080808080808080808088A
:1024D200080860006800700076007A007F008500BE
:1024E2007107A207D407B806DB060D073F07FE08EF
:1024F2002E095E093B087308A308D308D003FED156
:1025020001FFD004FED101FFD005FED101FFD006AC
:10251200FED101FFD000FED101FFD001FED101FFAB
:10252200D002FED101FF39003600330030003B00FB
:0E2532003800350032003A0037003400310026
:00000001FF
