:100000000C942A000C94D9000C9402010C942B013E
:100010000C9447000C9447000C9447000C94470044
:100020000C9447000C9447000C9447000C94470034
:100030000C9447000C9447000C9447000C94470024
:100040000C9447000C9447000C9447000C94470014
:100050000C94470011241FBECFE5D8E0DEBFCDBF12
:1000600010E0A0E6B0E0EAEDF4E002C005900D92E9
:10007000A837B107D9F710E0A8E7B0E001C01D929A
:10008000AE37B107E1F70E944E000C946B020C945E
:10009000000080E061E00E9411020895DF93CF9399
:1000A0000F92CDB7DEB781E062E00E949B0180E055
:1000B00061E04FEF0E94720184E68983CE010196D0
:1000C0000E94680082E069E470E00E94CE00FFCFE9
:1000D000FC01808186958370982F80FF03C085B7CF
:1000E000816002C085B78E7F85BF91FF03C085B751
:1000F000826002C085B78D7F85BF808182958370C5
:10010000982F80FF03C085B7846002C085B78B7FBE
:1001100085BF91FF03C085B7886002C085B7877F20
:1001200085BF908197FF03C084B7806402C084B705
:100130008F7B84BF90FF03C08BB7806402C08BB7F6
:100140008F7B8BBF93FF03C08BB7806802C08BB7D8
:100150008F778BBF96FF03C08BB7806202C08BB7CF
:100160008F7D8BBF8FB780688FBF0895813061F01E
:10017000813020F0823069F080E008958AB782955E
:1001800086958695817008958AB7881F8827881F6D
:1001900008958AB78295869581700895833040F4DA
:1001A000E82FF0E0EE0FFF1FE858FF4F71836083E8
:1001B00008951F920F920FB60F9211242F933F9321
:1001C0004F935F936F937F938F939F93AF93BF935F
:1001D000EF93FF93E0917800F0917900309709F068
:1001E0000995FF91EF91BF91AF919F918F917F9171
:1001F0006F915F914F913F912F910F900FBE0F9094
:100200001F9018951F920F920FB60F9211242F93E3
:100210003F934F935F936F937F938F939F93AF938E
:10022000BF93EF93FF93E0917A00F0917B003097BA
:1002300009F00995FF91EF91BF91AF919F918F9137
:100240007F916F915F914F913F912F910F900FBED2
:100250000F901F9018951F920F920FB60F921124B6
:100260002F933F934F935F936F937F938F939F93BE
:10027000AF93BF93EF93FF93E0917C00F0917D00EB
:10028000309709F00995FF91EF91BF91AF919F9140
:100290008F917F916F915F914F913F912F910F902F
:1002A0000FBE0F901F901895E82FF0E0EE0FFF1F84
:1002B000E059FF4F0190F081E02D60830895E82F11
:1002C000F0E0EE0FFF1FDF01A059BF4F0D90BC9172
:1002D000A02D1C92E859FF4F0190F081E02D8FEF87
:1002E00080830895E82FF0E0442391F0EE0FFF1F84
:1002F000E059FF4F0190F081E02D208181E090E0F6
:1003000002C0880F991F6A95E2F7282B2083089571
:10031000EE0FFF1FE059FF4F0190F081E02D20818B
:1003200081E090E002C0880F991F6A95E2F78095FE
:10033000822380830895A82FB0E0AA0FBB1FFD0180
:10034000E059FF4F0190F081E02D908121E030E0F5
:1003500002C0220F331F6A95E2F7822F809589230E
:100360008083A859BF4FED91FC918081822B8083BF
:100370000895E82FF0E0EE0FFF1FE859FF4F0190BE
:10038000F081E02D8FEF80830895E82FF0E0EE0FED
:10039000FF1FE859FF4F0190F081E02D1082089572
:1003A000E82FF0E0EE0FFF1FE859FF4F0190F081BA
:1003B000E02D8081809580830895E82FF0E0EE0F96
:1003C000FF1FE859FF4F0190F081E02D60830895F1
:1003D000E82FF0E0EE0FFF1FE859FF4F0190F0818A
:1003E000E02D208181E090E002C0880F991F6A957E
:1003F000E2F7282B20830895E82FF0E0EE0FFF1F8F
:10040000E859FF4F0190F081E02D208181E090E0DC
:1004100002C0880F991F6A95E2F780958223808336
:100420000895E82FF0E0EE0FFF1FE859FF4F01900D
:10043000F081E02D208181E090E002C0880F991FBB
:100440006A95E2F7282720830895E82FF0E04423F7
:1004500091F0EE0FFF1FE859FF4F0190F081E02D62
:10046000208181E090E002C0880F991F6A95E2F731
:10047000282B20830895EE0FFF1FE859FF4F0190AE
:10048000F081E02D208181E090E002C0880F991F6B
:100490006A95E2F78095822380830895E82FF0E043
:1004A000EE0FFF1FE05AFF4F0190F081E02D808199
:1004B0000895E82FF0E0EE0FFF1FE05AFF4F019084
:1004C000F081E02D808190E002C0959587956A9536
:0A04D000E2F781700895F894FFCF61
:1004DA0039003600330030003B0038003500320066
:0804EA003A0037003400310034
:00000001FF
