:100000000C942A000C9447000C9447000C94470071
:100010000C9447000C9447000C9447000C94470044
:100020000C9447000C9447000C9447000C94470034
:100030000C9447000C9447000C9447000C94470024
:100040000C943F0B0C9447000C9447000C94470011
:100050000C94470011241FBECFE5D8E0DEBFCDBF12
:1000600011E0A0E6B0E0EEEFF7E102C005900D92DE
:10007000A638B107D9F711E0A6E8B1E001C01D929A
:10008000A838B107E1F70E94B4050C94FD0B0C945D
:100090000000A0E0B0E0EFE4F0E00C94C60BDC015F
:1000A0002B01FA019C91923008F439C1EB0188814F
:1000B000823008F433C1943069F4843009F02FC1E0
:1000C00011969C9111978981981709F428C1A6E689
:1000D000B0E025C1843009F421C18230A9F4923006
:1000E00009F01DC19A01AD0188E0EA010990AE0155
:1000F000E90109929E018150C1F7E20189811196BF
:100100009C918923818308C1923009F407C112961A
:100110002D903C901397EB018A819B811496AD90B2
:10012000BD90CD90DC901797EC80FD800E811F81F3
:100130009101281B390BB90137FF04C066277727C7
:10014000621B730B603271050CF061C0121613064E
:100150006CF537014801062E04C096948794779475
:1001600067940A94D2F721E030E040E050E004C008
:10017000220F331F441F551F6A95D2F7215030407C
:10018000404050402E213F2140235123211531056D
:100190004105510521F021E030E040E050E07901D7
:1001A0008A01E628F728082919293CC0232BD1F118
:1001B000260E371E35014601062E04C096948794FC
:1001C000779467940A94D2F721E030E040E050E061
:1001D00004C0220F331F441F551F6A95D2F72150C8
:1001E0003040404050402A213B214C215D212115C7
:1001F00031054105510521F021E030E040E050E0BB
:1002000059016A01A628B728C828D9280BC0821529
:1002100093052CF01C01AA24BB24650103C0EE2425
:10022000FF24870111969C91D20111968C91981709
:1002300009F445C0992339F0A80197012A193B090F
:100240004C095D0906C0A60195012E193F09400B16
:10025000510B57FD08C011823382228224833583DB
:10026000468357831DC081E08183338222828827A1
:100270009927DC01821B930BA40BB50B8483958318
:10028000A683B7830DC0220F331F441F551F24833D
:100290003583468357838281938101979383828339
:1002A0002481358146815781DA01C9010197A1096D
:1002B000B1098F5F9F4FAF4FBF4328F30BC09183AE
:1002C00033822282EA0CFB1C0C1D1D1DE482F58288
:1002D0000683178383E0808324813581468157819B
:1002E00057FF1AC0C901AA2797FDA095BA2F8170A0
:1002F0009070A070B0705695479537952795822BD2
:10030000932BA42BB52B84839583A683B7838281FB
:100310009381019693838283DF0101C0D201CD01D5
:10032000CDB7DEB7E2E10C94E20BA0E2B0E0EBE97E
:10033000F1E00C94D20B69837A838B839C832D83A9
:100340003E834F835887E9E0EE2EF12CEC0EFD1E24
:10035000CE010196B7010E943C058E010F5E1F4F32
:10036000CE010596B8010E943C058A8991E0892753
:100370008A8BC701B801AE01475E5F4F0E944900FA
:100380000E946704A096E6E00C94EE0BA0E2B0E0B9
:10039000ECECF1E00C94D20B69837A838B839C8321
:1003A0002D833E834F835887F9E0EF2EF12CEC0E1E
:1003B000FD1ECE010196B7010E943C058E010F5E25
:1003C0001F4FCE010596B8010E943C05C701B80138
:1003D000AE01475E5F4F0E9449000E946704A096ED
:1003E000E6E00C94EE0BA0E2B0E0E9EFF1E00C9453
:1003F000C60B69837A838B839C832D833E834F83D3
:100400005887CE010196BE01675F7F4F0E943C0571
:10041000CE010596BE016F5E7F4F0E943C05998517
:10042000923088F089898230C8F0943019F4823093
:1004300051F404C0843029F4923081F486E690E0CF
:10044000C6C0923049F420E09A858A89981321E049
:100450002A87CE010996BBC0823049F420E09A85F4
:100460008A89981321E02A8BCE014196B0C02D8451
:100470003E844F8458886D887E888F88988CEE24BF
:10048000FF248701AA24BB24650140E050E060E01E
:1004900070E0E0E0F0E0C10181709070892BE9F03C
:1004A000E60CF71C081D191D9A01AB012A0D3B1D16
:1004B0004C1D5D1D80E090E0A0E0B0E0E614F70484
:1004C0000805190520F481E090E0A0E0B0E0BA0151
:1004D000A901480F591F6A1F7B1FAA0CBB1CCC1C0B
:1004E000DD1C97FE08C081E090E0A0E0B0E0A82A03
:1004F000B92ACA2ADB2A3196E032F10549F0660CA6
:10050000771C881C991C5694479437942794C3CF22
:10051000FA85EA892B893C898B859C85280F391FB0
:100520002E5F3F4F17C0CA0181709070892B61F018
:1005300016950795F794E79480E090E0A0E0B0E886
:10054000E82AF92A0A2B1B2B76956795579547952C
:100550002F5F3F4F77FDE7CF0CC0440F551F661F3D
:10056000771F17FD4160EE0CFF1C001F111F21506B
:100570003040403090E0590790E0690790E47907F7
:1005800060F32B8F3C8FDB01CA018F779070A070D6
:10059000B07080349105A105B10561F447FD0AC032
:1005A000E114F1040105110529F0405C5F4F6F4F24
:1005B0007F4F40781A8EFE1711F081E08A8F4D8FA1
:1005C0005E8F6F8F78A383E0898FCE0149960E945A
:1005D0006704A096E2E10C94E20BA8E0B0E0E3EF40
:1005E000F2E00C94CF0B9B01AC0183E08983DA012C
:1005F000C9018827B7FD83959927AA27BB27B82E5D
:10060000211531054105510519F482E089833AC06D
:100610008823A9F0203080E0380780E0480780E890
:10062000580729F460E070E080E09FEC30C0EE24D1
:10063000FF248701E21AF30A040B150B02C07901AB
:100640008A018EE1C82ED12CDC82CB82ED82FE8223
:100650000F831887C801B7010E9418040197181664
:10066000190684F4082E04C0EE0CFF1C001F111F95
:100670000A94D2F7ED82FE820F831887C81AD90A2E
:10068000DC82CB82BA82CE0101960E946704289652
:10069000E9E00C94EB0BACE0B0E0E1E5F3E00C94A6
:1006A000D60B69837A838B839C83CE010196BE012E
:1006B0006B5F7F4F0E943C058D81823061F18230FB
:1006C00050F1843021F48E81882351F12EC02F8186
:1006D000388537FD20C06E812F3131051CF066232F
:1006E000F9F023C08EE190E0821B930B29853A85B7
:1006F0004B855C8504C056954795379527958A9517
:10070000D2F76623B1F050954095309521953F4F33
:100710004F4F5F4F0EC020E030E040E050E009C096
:100720002FEF3FEF4FEF5FE704C020E030E040E005
:1007300050E8B901CA012C96E2E00C94F20BA8E053
:10074000B0E0E5EAF3E00C94CE0B7B018C0161157F
:1007500071058105910519F482E0898360C083E009
:1007600089838EE1C82ED12CDC82CB82ED82FE8281
:100770000F831887C801B7010E941804FC01319744
:10078000F7FF3BC0222733272E1B3F0B5701680181
:10079000022E04C0D694C794B794A7940A94D2F7B3
:1007A00040E050E060E070E081E090E0A0E0B0E088
:1007B00004C0880F991FAA1FBB1F2A95D2F7019763
:1007C000A109B1098E219F21A023B1230097A10582
:1007D000B10521F041E050E060E070E04A295B297A
:1007E0006C297D294D835E836F8378878EE190E04D
:1007F0008E1B9F0B9C838B8312C0309781F00E2E33
:1008000004C0EE0CFF1C001F111F0A94D2F7ED82EA
:10081000FE820F831887CE1ADF0ADC82CB821A820F
:10082000CE0101960E9467042896EAE00C94EA0B38
:10083000EF92FF920F931F937B018C0180E0E816EB
:1008400080E0F80681E0080780E0180788F48FEF61
:10085000E816F1040105110531F028F088E090E078
:10086000A0E0B0E017C080E090E0A0E0B0E012C0EF
:1008700080E0E81680E0F80680E0080781E01807CD
:1008800028F088E190E0A0E0B0E004C080E190E0D2
:10089000A0E0B0E020E230E040E050E0281B390B5F
:1008A0004A0B5B0B04C016950795F794E7948A955D
:1008B000D2F7F701E259FF4F8081281B3109410926
:1008C0005109C9011F910F91FF90EF900895DF9298
:1008D000EF92FF920F931F93FC01E480F580068155
:1008E0001781D1808081823048F480E090E0A0E1DF
:1008F000B0E0E82AF92A0A2B1B2BA5C0843009F4A2
:100900009FC0823021F4EE24FF24870105C0E1144A
:10091000F1040105110519F4E0E0F0E096C06281F0
:1009200073819FEF623879070CF05BC022E83FEFDC
:10093000261B370B2A3131052CF020E030E040E057
:1009400050E02AC0B801A701022E04C07695679531
:10095000579547950A94D2F781E090E0A0E0B0E087
:1009600004C0880F991FAA1FBB1F2A95D2F70197B1
:10097000A109B1098E219F21A023B1230097A105D0
:10098000B10521F081E090E0A0E0B0E09A01AB0178
:10099000282B392B4A2B5B2BDA01C9018F779070FA
:1009A000A070B07080349105A105B10539F427FF1E
:1009B00009C0205C3F4F4F4F5F4F04C0215C3F4F49
:1009C0004F4F5F4FE0E0F0E02030A0E03A07A0E0BA
:1009D0004A07A0E45A0710F0E1E0F0E079018A014B
:1009E00027C06038710564F5FB01E158FF4FD8015D
:1009F000C7018F779070A070B07080349105A10509
:100A0000B10539F4E7FE0DC080E490E0A0E0B0E06D
:100A100004C08FE390E0A0E0B0E0E80EF91E0A1FEA
:100A20001B1F17FF05C016950795F794E79431969D
:100A300087E016950795F794E7948A95D1F705C056
:100A4000EE24FF248701EFEFF0E06E2F6795662715
:100A50006795902F9F77D794DD24D7948E2F869516
:100A6000492F462B582F5D29B701CA011F910F91BD
:100A7000FF90EF90DF900895FC01DB0140815181F0
:100A80002281622F6F7770E0221F2227221F93811D
:100A9000892F880F822B282F30E0991F9927991FC3
:100AA00011969C93119721153105A9F54115510512
:100AB0006105710511F482E037C082E89FEF13965B
:100AC0009C938E9312979A01AB0167E0220F331F1C
:100AD000441F551F6A95D1F783E08C930DC0220FF8
:100AE000331F441F551F12968D919C9113970197A8
:100AF00013969C938E931297203080E0380780E005
:100B0000480780E4580758F314962D933D934D936E
:100B10005C93179708952F3F310579F441155105DE
:100B20006105710519F484E08C93089564FF03C096
:100B300081E08C9312C01C9210C02F573040139646
:100B40003C932E93129783E08C9387E0440F551FBC
:100B5000661F771F8A95D1F7706414964D935D9345
:100B60006D937C9317970895AF92BF92DF92EF92A7
:100B7000FF920F931F93DF93CF9300D000D0CDB798
:100B8000DEB70E94D30780E690E00E946E0980E005
:100B900060E040E00E940F0A80EE89838A81807EB7
:100BA0008A830E94080BCE0101960E940D0B1C82C5
:100BB0001B828E010D5F1F4FC8010E94300B9FEFFB
:100BC000E92E93E0F92E88ECA82EB12CD02E012F1F
:100BD0008B819C818E159F0529F1892B19F10E942B
:100BE000B20780E690E00E946E096B817C8180E014
:100BF00090E00E949F0320E030E040EA50E40E9431
:100C0000F30120E030E040E85AE30E94F30120E0E5
:100C100030E048EC52E40E94F30142E00E940609F1
:100C2000EB80FC8088E893E1F5013197F1F70197BB
:100C3000D9F78D2D902F0E94300BCACFDF92EF9203
:100C4000FF920F931F93CF93DF93E82EFF2400E0D2
:100C500010E0282F70E030E040E0DD24C62FD0E027
:100C600021970BC0622F832F942FA80197010E9418
:100C70006A0B262F382F492FD3948D2D90E08C1797
:100C80009D0784F3622F832F942FDF91CF911F91C3
:100C90000F91FF90EF90DF90089508950F931F93A9
:100CA00080E067E040E00E940F0A80E066E040E0FC
:100CB0000E940F0A80E065E040E00E940F0A80E099
:100CC00064E040E00E940F0A80E062E00E94990A1E
:100CD00080E061E00E94850A12E0812F8A95F1F799
:100CE00080E060E00E94850A812F8A95F1F780E01C
:100CF0000E94EB0A082F0295007F80E060E00E94CE
:100D0000990A8AE18A95F1F780E060E00E94850AFD
:100D10001A95F1F780E00E94EB0A082B80E060E072
:100D20000E94990A80E067E04FEF0E940F0A80E07E
:100D300066E04FEF0E940F0A80E065E04FEF0E94EF
:100D40000F0A80E064E04FEF0E940F0A802F8F7738
:100D50001F910F9108950F931F93CF93DF9380E01E
:100D600062E00E94990A80E061E00E94990A12E024
:100D7000812F8A95F1F780E060E00E94850A1A953C
:100D8000F1F7C0E0D0E002E010E0CE018C5F682F08
:100D9000A8010C2E02C0559547950A94E2F74170C0
:100DA00080E00E94C20A2196C430D10571F780E02C
:100DB00060E00E94990A8AE18A95F1F780E060E09C
:100DC0000E94850A82E08A95F1F7C0E0D0E002E057
:100DD00010E0CE018C5F682FA8010C2E02C0559543
:100DE00047950A94E2F7417080E00E94C20A21967A
:100DF000C430D10571F780E060E00E94990A8AE171
:100E00008A95F1F780E060E00E94850A82E08A9589
:100E1000F1F7C0E0D0E008E010E0CE018C5F682F71
:100E2000A8010C2E02C0559547950A94E2F741702F
:100E300080E00E94C20A2196C430D10571F780E09B
:100E400060E00E94990A8AE18A95F1F7DF91CF91DB
:100E50001F910F910895EF92FF920F931F93CF93DD
:100E6000DF93082F80E062E00E94990A80E061E051
:100E70000E94990A12E0812F8A95F1F780E060E0E4
:100E80000E94850A812F8A95F1F7E02EFF24A701A1
:100E900034E0559547953A95E1F7417080E064E07C
:100EA0000E94C20AA70125E0559547952A95E1F7CA
:100EB000417080E065E00E94C20AA70196E0559566
:100EC00047959A95E1F7417080E066E00E94C20A7A
:100ED000A701440F452F441F550B417080E067E088
:100EE0000E94C20A80E060E00E94990A8AE18A9525
:100EF000F1F780E060E00E94850A1A95F1F7C0E002
:100F0000D0E0CE018C5F682FA7010C2E02C0559552
:100F100047950A94E2F7417080E00E94C20A219648
:100F2000C430D10571F780E060E00E94990ADF913A
:100F3000CF911F910F91FF90EF9008958CE00E9448
:100F40002B0785E88A95F1F7089588E00E942B0722
:100F500084EF91E028EC30E0F9013197F1F7019747
:100F6000D9F708950F931F9381E00E942B0700EAA1
:100F70001FE0C8010197F1F782E00E942B07C8012A
:100F80000197F1F71F910F91089590E0029646E0C6
:100F9000880F991F4A95E1F7860F0E942B0785E875
:100FA0008A95F1F708951F9380E067E04FEF0E9464
:100FB0000F0A80E066E04FEF0E940F0A80E065E0D4
:100FC0004FEF0E940F0A80E064E04FEF0E940F0A8B
:100FD00080E060E04FEF0E940F0A80E061E04FEF99
:100FE0000E940F0A80E062E04FEF0E940F0A84EF38
:100FF00091E028EC30E0F9013197F1F70197D9F74A
:101000000E94AB0615E8812F8A95F1F78CE00E94CB
:101010002B071A95F1F781E00E942B0780EA9FE0E9
:101020000197F1F71F910895EF92FF920F931F938D
:10103000CF93DF93082F80E062E00E94850A80E072
:1010400061E00E94990A12E0812F8A95F1F780E011
:1010500060E00E94850A812F8A95F1F7E02EFF2437
:10106000A701F4E055954795FA95E1F7417080E0C6
:1010700064E00E94C20AA701E5E055954795EA950C
:10108000E1F7417080E065E00E94C20AA70176E0C6
:10109000559547957A95E1F7417080E066E00E94AA
:1010A000C20AA701440F452F441F550B417080E031
:1010B00067E00E94C20A80E060E00E94990A8AE12B
:1010C0008A95F1F780E060E00E94850A1A95F1F7B1
:1010D000C0E0D0E0CE018C5F682FA7010C2E02C0CB
:1010E000559547950A94E2F7417080E00E94C20A44
:1010F0002196C430D10571F780E060E00E94990A22
:10110000DF91CF911F910F91FF90EF9008950E9472
:10111000140885E88A95F1F70895AF92BF92CF92AF
:10112000DF92EF92FF920F931F93DF93CF93CDB790
:10113000DEB72A970FB6F894DEBF0FBECDBF7B0196
:101140008C01611571058105910521F480E30E94F0
:1011500087080DC097FF0BC08DE20E94870810958D
:101160000095F094E094E11CF11C011D111D5E013D
:101170000894A11CB11CDD2423C0C801B7012AE0DA
:1011800030E040E050E00E94890BF50161935F017F
:10119000D394FBE0DF1641F411E0ED2CFF246E0147
:1011A0000894C11CD11C1CC0C801B7012AE030E062
:1011B00040E050E00E94890BC901DA017C018D01F9
:1011C000E114F10401051105C1F6E6CFF701E81BB2
:1011D000F90BEC0DFD1D8081805D0E9487081F5F6B
:1011E000812F90E0E816F9068CF72A960FB6F8944E
:1011F000DEBF0FBECDBFCF91DF911F910F91FF904A
:10120000EF90DF90CF90BF90AF9008952F923F92D4
:101210004F925F926F927F928F929F92AF92BF9206
:10122000CF92DF92EF92FF920F931F93CF93DF93B2
:101230001B012C01142F0E944B033B014C0100E0C9
:10124000AAE0AA2EB12CC12CD12CC12FD0E021971D
:101250000BC0C601B5012AE030E040E050E00E943A
:101260006A0B5B016C010F5F802F90E08C179D076C
:1012700084F3C401B3010E948D088EE20E948708A6
:10128000C401B3010E94ED029B01AC01C201B10196
:101290000E9495017B018C01C601B5010E94ED02FF
:1012A0009B01AC01C801B7010E94F3010E944B03EE
:1012B0006F770E948D08DF91CF911F910F91FF9062
:1012C000EF90DF90CF90BF90AF909F908F907F90E6
:1012D0006F905F904F903F902F9008951F93CF9302
:1012E000DF93EC0110E003C00E9487081F5FFE013E
:1012F000E10FF11D80818823B9F7DF91CF911F9114
:1013000008951F9380E060E00E94F10984EF91E06E
:1013100028EC30E0F9013197F1F70197D9F780E037
:1013200062E00E94990A80E061E00E94850A12E072
:10133000812F8A95F1F780E060E00E94850A1A9576
:10134000F1F780E00E94EB0A182F80E060E00E9435
:10135000990A80E06FEF0E94F109812F8F771F912A
:1013600008950F931F93082F80E062E00E94990A6E
:1013700080E061E00E94990A12E0812F8A95F1F7DE
:1013800080E060E00E94850A1A95F1F780E0602F06
:101390000E947A0A80E060E00E94990A1F910F91F2
:1013A00008950F931F93082F80E062E00E94850A42
:1013B00080E061E00E94990A12E0812F8A95F1F79E
:1013C00080E060E00E94850A1A95F1F780E0602FC6
:1013D0000E947A0A80E060E00E94990A1F910F91B2
:1013E0000895E82FF0E0EE0FFF1FE258FE4F019046
:1013F000F081E02D60830895E82FF0E0EE0FFF1FED
:10140000DF01A258BE4F0D90BC91A02D1C92EA584E
:10141000FE4F0190F081E02D8FEF80830895E82F3B
:10142000F0E0442391F0EE0FFF1FE258FE4F0190D1
:10143000F081E02D208181E090E002C0880F991FAB
:101440006A95E2F7282B20830895EE0FFF1FE258DC
:10145000FE4F0190F081E02D208181E090E002C0FC
:10146000880F991F6A95E2F78095822380830895FB
:10147000A82FB0E0AA0FBB1FFD01E258FE4F01905C
:10148000F081E02D908121E030E002C0220F331F77
:101490006A95E2F7822F809589238083AA58BE4FF0
:1014A000ED91FC918081822B80830895E82FF0E0FC
:1014B000EE0FFF1FEA58FE4F0190F081E02D8FEFF5
:1014C00080830895E82FF0E0EE0FFF1FEA58FE4FEB
:1014D0000190F081E02D10820895E82FF0E0EE0FEA
:1014E000FF1FEA58FE4F0190F081E02D808180952A
:1014F00080830895E82FF0E0EE0FFF1FEA58FE4FBB
:101500000190F081E02D60830895E82FF0E0EE0F68
:10151000FF1FEA58FE4F0190F081E02D208181E00D
:1015200090E002C0880F991F6A95E2F7282B20836C
:101530000895E82FF0E0EE0FFF1FEA58FE4F0190EC
:10154000F081E02D208181E090E002C0880F991F9A
:101550006A95E2F78095822380830895E82FF0E072
:10156000EE0FFF1FEA58FE4F0190F081E02D208121
:1015700081E090E002C0880F991F6A95E2F7282762
:1015800020830895E82FF0E0442391F0EE0FFF1F31
:10159000EA58FE4F0190F081E02D208181E090E03B
:1015A00002C0880F991F6A95E2F7282B20830895BF
:1015B000EE0FFF1FEA58FE4F0190F081E02D2081D1
:1015C00081E090E002C0880F991F6A95E2F780954C
:1015D000822380830895E82FF0E0EE0FFF1FE25989
:1015E000FE4F0190F081E02D80810895E82FF0E01A
:1015F000EE0FFF1FE259FE4F0190F081E02D808138
:1016000090E002C0959587956A95E2F781700895FC
:101610003D983E9A3F98379A0895FC0187B1807EA5
:1016200087B997B180818F71892B87B986B1887FFF
:1016300086B996B18081829586958770892B86B907
:1016400080B78F7180BF90B7818186958770892B15
:1016500080BF818180FF02C0359A08953598089532
:10166000FC01369A349BFECF349A84B195B19183B4
:1016700080830895909387018093860108951F9237
:101680000F920FB60F9211242F933F934F935F93B6
:101690006F937F938F939F93AF93BF93EF93FF933A
:1016A000E0918601F0918701309719F084B195B1EE
:1016B0000995FF91EF91BF91AF919F918F917F918C
:1016C0006F915F914F913F912F910F900FBE0F90AF
:1016D0001F901895629FD001739FF001829FE00DCB
:1016E000F11D649FE00DF11D929FF00D839FF00DA1
:1016F000749FF00D659FF00D9927729FB00DE11D4D
:10170000F91F639FB00DE11DF91FBD01CF01112429
:10171000089597FB092E05260ED057FD04D014D04E
:101720000AD0001C38F450954095309521953F4FD4
:101730004F4F5F4F0895F6F790958095709561959E
:101740007F4F8F4F9F4F0895A1E21A2EAA1BBB1BFC
:10175000FD010DC0AA1FBB1FEE1FFF1FA217B3077D
:10176000E407F50720F0A21BB30BE40BF50B661F93
:10177000771F881F991F1A9469F760957095809557
:1017800090959B01AC01BD01CF0108952F923F922E
:101790004F925F926F927F928F929F92AF92BF9281
:1017A000CF92DF92EF92FF920F931F93CF93DF932D
:1017B000CDB7DEB7CA1BDB0B0FB6F894DEBF0FBE8A
:1017C000CDBF09942A88398848885F846E847D84D7
:1017D0008C849B84AA84B984C884DF80EE80FD80D9
:1017E0000C811B81AA81B981CE0FD11D0FB6F8944F
:0E17F000DEBF0FBECDBFED010895F894FFCF10
:1017FE0056616C3D2000000000000000000000015A
:10180E000202030303030404040404040404050590
:10181E000505050505050505050505050505060668
:10182E00060606060606060606060606060606064A
:10183E000606060606060606060606060606070738
:10184E00070707070707070707070707070707071A
:10185E00070707070707070707070707070707070A
:10186E0007070707070707070707070707070707FA
:10187E0007070707070707070707070707070808E8
:10188E0008080808080808080808080808080808CA
:10189E0008080808080808080808080808080808BA
:1018AE0008080808080808080808080808080808AA
:1018BE00080808080808080808080808080808089A
:1018CE00080808080808080808080808080808088A
:1018DE00080808080808080808080808080808087A
:1018EE00080808080808080808080808080808086A
:1018FE000808080808080808080808080808390031
:10190E003600330030003B003800350032003A001C
:06191E0037003400310027
:00000001FF
