:100000000C942A000C9447000C9447000C94470071
:100010000C9447000C9447000C9447000C94470044
:100020000C9447000C9447000C9447000C94470034
:100030000C9447000C9447000C9447000C94470024
:100040000C94140C0C9447000C9447000C9447003B
:100050000C94470011241FBECFE5D8E0DEBFCDBF12
:1000600011E0A0E6B0E0E0EDF9E102C005900D92EC
:10007000A039B107D9F711E0A0E9B1E001C01D92A4
:10008000A639B107E1F70E943D060C94E60C0C94EA
:100090000000A0E0B0E0EFE4F0E00C94AF0CDC0175
:1000A0002B01FA019C91923008F439C1EB0188814F
:1000B000823008F433C1943069F4843009F02FC1E0
:1000C00011969C9111978981981709F428C1ADE682
:1000D000B0E025C1843009F421C18230A9F4923006
:1000E00009F01DC19A01AD0188E0EA010990AE0155
:1000F000E90109929E018150C1F7E20189811196BF
:100100009C918923818308C1923009F407C112961A
:100110002D903C901397EB018A819B811496AD90B2
:10012000BD90CD90DC901797EC80FD800E811F81F3
:100130009101281B390BB90137FF04C066277727C7
:10014000621B730B603271050CF061C0121613064E
:100150006CF537014801062E04C096948794779475
:1001600067940A94D2F721E030E040E050E004C008
:10017000220F331F441F551F6A95D2F7215030407C
:10018000404050402E213F2140235123211531056D
:100190004105510521F021E030E040E050E07901D7
:1001A0008A01E628F728082919293CC0232BD1F118
:1001B000260E371E35014601062E04C096948794FC
:1001C000779467940A94D2F721E030E040E050E061
:1001D00004C0220F331F441F551F6A95D2F72150C8
:1001E0003040404050402A213B214C215D212115C7
:1001F00031054105510521F021E030E040E050E0BB
:1002000059016A01A628B728C828D9280BC0821529
:1002100093052CF01C01AA24BB24650103C0EE2425
:10022000FF24870111969C91D20111968C91981709
:1002300009F445C0992339F0A80197012A193B090F
:100240004C095D0906C0A60195012E193F09400B16
:10025000510B57FD08C011823382228224833583DB
:10026000468357831DC081E08183338222828827A1
:100270009927DC01821B930BA40BB50B8483958318
:10028000A683B7830DC0220F331F441F551F24833D
:100290003583468357838281938101979383828339
:1002A0002481358146815781DA01C9010197A1096D
:1002B000B1098F5F9F4FAF4FBF4328F30BC09183AE
:1002C00033822282EA0CFB1C0C1D1D1DE482F58288
:1002D0000683178383E0808324813581468157819B
:1002E00057FF1AC0C901AA2797FDA095BA2F8170A0
:1002F0009070A070B0705695479537952795822BD2
:10030000932BA42BB52B84839583A683B7838281FB
:100310009381019693838283DF0101C0D201CD01D5
:10032000CDB7DEB7E2E10C94CB0CA0E2B0E0EBE994
:10033000F1E00C94BB0C69837A838B839C832D83BF
:100340003E834F835887E9E0EE2EF12CEC0EFD1E24
:10035000CE010196B7010E946C058E010F5E1F4F02
:10036000CE010596B8010E946C058A8991E0892723
:100370008A8BC701B801AE01475E5F4F0E944900FA
:100380000E949704A096E6E00C94D70CA0E2B0E09F
:10039000ECECF1E00C94BB0C69837A838B839C8337
:1003A0002D833E834F835887F9E0EF2EF12CEC0E1E
:1003B000FD1ECE010196B7010E946C058E010F5EF5
:1003C0001F4FCE010596B8010E946C05C701B80108
:1003D000AE01475E5F4F0E9449000E949704A096BD
:1003E000E6E00C94D70CA0E2B0E0E9EFF1E00C9469
:1003F000AF0C69837A838B839C832D833E834F83E9
:100400005887CE010196BE01675F7F4F0E946C0541
:10041000CE010596BE016F5E7F4F0E946C059985E7
:10042000923088F089898230C8F0943019F4823093
:1004300051F404C0843029F4923081F48DE690E0C8
:10044000C6C0923049F420E09A858A89981321E049
:100450002A87CE010996BBC0823049F420E09A85F4
:100460008A89981321E02A8BCE014196B0C02D8451
:100470003E844F8458886D887E888F88988CEE24BF
:10048000FF248701AA24BB24650140E050E060E01E
:1004900070E0E0E0F0E0C10181709070892BE9F03C
:1004A000E60CF71C081D191D9A01AB012A0D3B1D16
:1004B0004C1D5D1D80E090E0A0E0B0E0E614F70484
:1004C0000805190520F481E090E0A0E0B0E0BA0151
:1004D000A901480F591F6A1F7B1FAA0CBB1CCC1C0B
:1004E000DD1C97FE08C081E090E0A0E0B0E0A82A03
:1004F000B92ACA2ADB2A3196E032F10549F0660CA6
:10050000771C881C991C5694479437942794C3CF22
:10051000FA85EA892B893C898B859C85280F391FB0
:100520002E5F3F4F17C0CA0181709070892B61F018
:1005300016950795F794E79480E090E0A0E0B0E886
:10054000E82AF92A0A2B1B2B76956795579547952C
:100550002F5F3F4F77FDE7CF0CC0440F551F661F3D
:10056000771F17FD4160EE0CFF1C001F111F21506B
:100570003040403090E0590790E0690790E47907F7
:1005800060F32B8F3C8FDB01CA018F779070A070D6
:10059000B07080349105A105B10561F447FD0AC032
:1005A000E114F1040105110529F0405C5F4F6F4F24
:1005B0007F4F40781A8EFE1711F081E08A8F4D8FA1
:1005C0005E8F6F8F78A383E0898FCE0149960E945A
:1005D0009704A096E2E10C94CB0CA8E1B0E0E3EF25
:1005E000F2E00C94BB0C69837A838B839C832D830C
:1005F0003E834F83588789E0E82EF12CEC0EFD1ED8
:10060000CE010196B7010E946C058E010F5E1F4F4F
:10061000CE010596B8010E946C058985823040F0B4
:100620008989823028F0C701B8010E94E40501C021
:1006300081E06896E6E00C94D70CA8E0B0E0E3E235
:10064000F3E00C94B80C9B01AC0183E08983DA01E0
:10065000C9018827B7FD83959927AA27BB27B82EFC
:10066000211531054105510519F482E089833AC00D
:100670008823A9F0203080E0380780E0480780E830
:10068000580729F460E070E080E09FEC30C0EE2471
:10069000FF248701E21AF30A040B150B02C079014B
:1006A0008A018EE1C82ED12CDC82CB82ED82FE82C3
:1006B0000F831887C801B7010E94480401971816D4
:1006C000190684F4082E04C0EE0CFF1C001F111F35
:1006D0000A94D2F7ED82FE820F831887C81AD90ACE
:1006E000DC82CB82BA82CE0101960E9497042896C2
:1006F000E9E00C94D40CACE0B0E0E1E8F3E00C9459
:10070000BF0C69837A838B839C83CE010196BE01E3
:100710006B5F7F4F0E946C058D81823061F182306A
:1007200050F1843021F48E81882351F12EC02F8125
:10073000388537FD20C06E812F3131051CF06623CE
:10074000F9F023C08EE190E0821B930B29853A8556
:100750004B855C8504C056954795379527958A95B6
:10076000D2F76623B1F050954095309521953F4FD3
:100770004F4F5F4F0EC020E030E040E050E009C036
:100780002FEF3FEF4FEF5FE704C020E030E040E0A5
:1007900050E8B901CA012C96E2E00C94DB0CA8E009
:1007A000B0E0E5EDF3E00C94B70C7B018C01611532
:1007B00071058105910519F482E0898360C083E0A9
:1007C00089838EE1C82ED12CDC82CB82ED82FE8221
:1007D0000F831887C801B7010E944804FC013197B4
:1007E000F7FF3BC0222733272E1B3F0B5701680121
:1007F000022E04C0D694C794B794A7940A94D2F753
:1008000040E050E060E070E081E090E0A0E0B0E027
:1008100004C0880F991FAA1FBB1F2A95D2F7019702
:10082000A109B1098E219F21A023B1230097A10521
:10083000B10521F041E050E060E070E04A295B2919
:100840006C297D294D835E836F8378878EE190E0EC
:100850008E1B9F0B9C838B8312C0309781F00E2ED2
:1008600004C0EE0CFF1C001F111F0A94D2F7ED828A
:10087000FE820F831887CE1ADF0ADC82CB821A82AF
:10088000CE0101960E9497042896EAE00C94D30CBE
:10089000EF92FF920F931F937B018C0180E0E8168B
:1008A00080E0F80681E0080780E0180788F48FEF01
:1008B000E816F1040105110531F028F088E090E018
:1008C000A0E0B0E017C080E090E0A0E0B0E012C08F
:1008D00080E0E81680E0F80680E0080781E018076D
:1008E00028F088E190E0A0E0B0E004C080E190E072
:1008F000A0E0B0E020E230E040E050E0281B390BFF
:100900004A0B5B0B04C016950795F794E7948A95FC
:10091000D2F7F701EB58FF4F8081281B31094109BD
:100920005109C9011F910F91FF90EF900895DF9237
:10093000EF92FF920F931F93FC01E480F5800681F4
:100940001781D1808081823048F480E090E0A0E17E
:10095000B0E0E82AF92A0A2B1B2BA5C0843009F441
:100960009FC0823021F4EE24FF24870105C0E114EA
:10097000F1040105110519F4E0E0F0E096C0628190
:1009800073819FEF623879070CF05BC022E83FEF7C
:10099000261B370B2A3131052CF020E030E040E0F7
:1009A00050E02AC0B801A701022E04C076956795D1
:1009B000579547950A94D2F781E090E0A0E0B0E027
:1009C00004C0880F991FAA1FBB1F2A95D2F7019751
:1009D000A109B1098E219F21A023B1230097A10570
:1009E000B10521F081E090E0A0E0B0E09A01AB0118
:1009F000282B392B4A2B5B2BDA01C9018F7790709A
:100A0000A070B07080349105A105B10539F427FFBD
:100A100009C0205C3F4F4F4F5F4F04C0215C3F4FE8
:100A20004F4F5F4FE0E0F0E02030A0E03A07A0E059
:100A30004A07A0E45A0710F0E1E0F0E079018A01EA
:100A400027C06038710564F5FB01E158FF4FD801FC
:100A5000C7018F779070A070B07080349105A105A8
:100A6000B10539F4E7FE0DC080E490E0A0E0B0E00D
:100A700004C08FE390E0A0E0B0E0E80EF91E0A1F8A
:100A80001B1F17FF05C016950795F794E79431963D
:100A900087E016950795F794E7948A95D1F705C0F6
:100AA000EE24FF248701EFEFF0E06E2F67956627B5
:100AB0006795902F9F77D794DD24D7948E2F8695B6
:100AC000492F462B582F5D29B701CA011F910F915D
:100AD000FF90EF90DF900895FC01DB014081518190
:100AE0002281622F6F7770E0221F2227221F9381BD
:100AF000892F880F822B282F30E0991F9927991F63
:100B000011969C93119721153105A9F541155105B1
:100B10006105710511F482E037C082E89FEF1396FA
:100B20009C938E9312979A01AB0167E0220F331FBB
:100B3000441F551F6A95D1F783E08C930DC0220F97
:100B4000331F441F551F12968D919C911397019747
:100B500013969C938E931297203080E0380780E0A4
:100B6000480780E4580758F314962D933D934D930E
:100B70005C93179708952F3F310579F4411551057E
:100B80006105710519F484E08C93089564FF03C036
:100B900081E08C9312C01C9210C02F5730401396E6
:100BA0003C932E93129783E08C9387E0440F551F5C
:100BB000661F771F8A95D1F7706414964D935D93E5
:100BC0006D937C93179708951F93DC01FB019C9113
:100BD000923008F447C08081823008F443C09430DA
:100BE00051F411961C91843099F58181682F70E041
:100BF000611B71093FC0843021F0923031F48230A2
:100C0000B9F18181882389F12DC011961C9111972A
:100C10008230F1F081811817D9F412962D913C9110
:100C20001397828193818217930794F028173907CD
:100C3000BCF014968D919D910D90BC91A02D2481B6
:100C4000358146815781281739074A075B0718F411
:100C5000112341F00AC082179307A407B50740F497
:100C6000112319F061E070E005C06FEF7FEF02C063
:100C700060E070E0CB011F910895AF92BF92CF92D8
:100C8000DF92EF92FF920F931F9381E060E04FEFAE
:100C90000E94780A81E060E00E94EE0A0E943C080F
:100CA00080E690E00E94D7098BE00E94B60B0E947C
:100CB000710B7B018C01AA24BB24CC24DD24B70159
:100CC000C8019501A6010E94ED02882399F080E0F9
:100CD00067E00E942E0888E690E00E94D70980E035
:100CE00067E00E942E08B701C80142E00E946F0928
:100CF0005701680181E060E00E94170B0E94710BB0
:100D00007B018C0181E060E00E94170BD8CFDF925D
:100D1000EF92FF920F931F93CF93DF93E82EFF2460
:100D200000E010E0282F70E030E040E0DD24C62F26
:100D3000D0E021970BC0622F832F942FA801970139
:100D40000E943F0C262F382F492FD3948D2D90E0F1
:100D50008C179D0784F3622F832F942FDF91CF91FF
:100D60001F910F91FF90EF90DF90089508950F93DA
:100D70001F9382E067E040E00E94780A82E066E02C
:100D800040E00E94780A82E065E040E00E94780A34
:100D900082E064E040E00E94780A82E062E00E9423
:100DA000020B82E061E00E94EE0A12E0812F8A9538
:100DB000F1F782E060E00E94EE0A812F8A95F1F758
:100DC00082E00E94540B082F0295007F82E060E0D1
:100DD0000E94020B8AE18A95F1F782E060E00E94AE
:100DE000EE0A1A95F1F782E00E94540B082B82E07C
:100DF00060E00E94020B82E067E04FEF0E94780AF9
:100E000082E066E04FEF0E94780A82E065E04FEFF3
:100E10000E94780A82E064E04FEF0E94780A802FF7
:100E20008F771F910F9108950F931F93CF93DF93A7
:100E300082E062E00E94020B82E061E00E94020B0D
:100E400012E0812F8A95F1F782E060E00E94EE0ABD
:100E50001A95F1F7C0E0D0E002E010E0CE018C5F1F
:100E6000682FA8010C2E02C0559547950A94E2F709
:100E7000417082E00E942B0B2196C430D10571F79E
:100E800082E060E00E94020B8AE18A95F1F782E03D
:100E900060E00E94EE0A82E08A95F1F7C0E0D0E0BF
:100EA00002E010E0CE018C5F682FA8010C2E02C07A
:100EB000559547950A94E2F7417082E00E942B0B0A
:100EC0002196C430D10571F782E060E00E94020BE8
:100ED0008AE18A95F1F782E060E00E94EE0A82E002
:100EE0008A95F1F7C0E0D0E008E010E0CE018C5F19
:100EF000682FA8010C2E02C0559547950A94E2F779
:100F0000417082E00E942B0B2196C430D10571F70D
:100F100082E060E00E94020B8AE18A95F1F7DF919E
:100F2000CF911F910F910895EF92FF920F931F930E
:100F3000CF93DF93082F82E062E00E94020B82E0F1
:100F400061E00E94020B12E0812F8A95F1F782E0A6
:100F500060E00E94EE0A812F8A95F1F7E02EFF24CF
:100F6000A70134E0559547953A95E1F7417082E045
:100F700064E00E942B0BA70125E0559547952A9523
:100F8000E1F7417082E065E00E942B0BA70196E03B
:100F9000559547959A95E1F7417082E066E00E9489
:100FA0002B0BA701440F452F441F550B417082E0C6
:100FB00067E00E942B0B82E060E00E94020B8AE156
:100FC0008A95F1F782E060E00E94EE0A1A95F1F747
:100FD000C0E0D0E0CE018C5F682FA7010C2E02C0CC
:100FE000559547950A94E2F7417082E00E942B0BD9
:100FF0002196C430D10571F782E060E00E94020BB7
:10100000DF91CF911F910F91FF90EF9008958CE0A9
:101010000E94940785E88A95F1F7089588E00E9478
:10102000940784EF91E028EC30E0F9013197F1F773
:101030000197D9F708950F931F9381E00E949407B9
:1010400000EA1FE0C8010197F1F782E00E949407CF
:10105000C8010197F1F71F910F91089590E0029652
:1010600046E0880F991F4A95E1F7860F0E94940782
:1010700085E88A95F1F708951F9382E067E04FEFC6
:101080000E94780A82E066E04FEF0E94780A82E0D0
:1010900065E04FEF0E94780A82E064E04FEF0E9423
:1010A000780A82E060E04FEF0E94780A82E061E017
:1010B0004FEF0E94780A82E062E04FEF0E94780AC8
:1010C00084EF91E028EC30E0F9013197F1F70197D6
:1010D000D9F70E94140715E8812F8A95F1F78CE063
:1010E0000E9494071A95F1F781E00E94940780EA24
:1010F0009FE00197F1F71F910895EF92FF920F93F0
:101100001F93CF93DF93082F82E062E00E94EE0AE4
:1011100082E061E00E94020B12E0812F8A95F1F7D4
:1011200082E060E00E94EE0A812F8A95F1F7E02EBE
:10113000FF24A701F4E055954795FA95E1F7417032
:1011400082E064E00E942B0BA701E5E055954795EE
:10115000EA95E1F7417082E065E00E942B0BA70160
:1011600076E0559547957A95E1F7417082E066E023
:101170000E942B0BA701440F452F441F550B4170B4
:1011800082E067E00E942B0B82E060E00E94020B8D
:101190008AE18A95F1F782E060E00E94EE0A1A95F2
:1011A000F1F7C0E0D0E0CE018C5F682FA7010C2ED4
:1011B00002C0559547950A94E2F7417082E00E947B
:1011C0002B0B2196C430D10571F782E060E00E94BC
:1011D000020BDF91CF911F910F91FF90EF90089537
:1011E0000E947D0885E88A95F1F70895AF92BF9235
:1011F000CF92DF92EF92FF920F931F93DF93CF93E3
:10120000CDB7DEB72A970FB6F894DEBF0FBECDBFBD
:101210007B018C01611571058105910521F480E345
:101220000E94F0080DC097FF0BC08DE20E94F008ED
:1012300010950095F094E094E11CF11C011D111D26
:101240005E010894A11CB11CDD2423C0C801B701B4
:101250002AE030E040E050E00E94720CF50161931A
:101260005F01D394FBE0DF1641F411E0ED2CFF2485
:101270006E010894C11CD11C1CC0C801B7012AE032
:1012800030E040E050E00E94720CC901DA017C01BC
:101290008D01E114F10401051105C1F6E6CFF70156
:1012A000E81BF90BEC0DFD1D8081805D0E94F008AC
:1012B0001F5F812F90E0E816F9068CF72A960FB68B
:1012C000F894DEBF0FBECDBFCF91DF911F910F917C
:1012D000FF90EF90DF90CF90BF90AF9008952F9246
:1012E0003F924F925F926F927F928F929F92AF92B6
:1012F000BF92CF92DF92EF92FF920F931F93CF9303
:10130000DF931B012C01142F0E947B033B014C0136
:1013100000E0AAE0AA2EB12CC12CD12CC12FD0E024
:1013200021970BC0C601B5012AE030E040E050E053
:101330000E943F0C5B016C010F5F802F90E08C17C7
:101340009D0784F3C401B3010E94F6088EE20E9457
:10135000F008C401B3010E941D039B01AC01C2014E
:10136000B1010E9495017B018C01C601B5010E946B
:101370001D039B01AC01C801B7010E94F3010E944B
:101380007B036F770E94F608DF91CF911F910F9139
:10139000FF90EF90DF90CF90BF90AF909F908F9095
:1013A0007F906F905F904F903F902F9008951F9384
:1013B000CF93DF93EC0110E003C00E94F0081F5FA1
:1013C000FE01E10FF11D80818823B9F7DF91CF91F4
:1013D0001F9108951F9382E060E00E945A0A84EFF3
:1013E00091E028EC30E0F9013197F1F70197D9F756
:1013F00082E062E00E94020B82E061E00E94EE0A5D
:1014000012E0812F8A95F1F782E060E00E94EE0AF7
:101410001A95F1F782E00E94540B182F82E060E0E9
:101420000E94020B82E06FEF0E945A0A812F8F7791
:101430001F9108950F931F93082F82E062E00E948E
:10144000020B82E061E00E94020B12E0812F8A957C
:10145000F1F782E060E00E94EE0A1A95F1F782E06F
:10146000602F0E94E30A82E060E00E94020B1F915D
:101470000F9108950F931F93082F82E062E00E945E
:10148000EE0A82E061E00E94020B12E0812F8A9551
:10149000F1F782E060E00E94EE0A1A95F1F782E02F
:1014A000602F0E94E30A82E060E00E94020B1F911D
:1014B0000F910895E82FF0E0EE0FFF1FE957FE4F60
:1014C0000190F081E02D60830895E82FF0E0EE0FA9
:1014D000FF1FDF01A957BE4F0D90BC91A02D1C929C
:1014E000E158FE4F0190F081E02D8FEF8083089549
:1014F000E82FF0E0442391F0EE0FFF1FE957FE4F75
:101500000190F081E02D208181E090E002C0880F01
:10151000991F6A95E2F7282B20830895EE0FFF1F8D
:10152000E957FE4F0190F081E02D208181E090E0AD
:1015300002C0880F991F6A95E2F780958223808305
:101540000895A82FB0E0AA0FBB1FFD01E957FE4F79
:101550000190F081E02D908121E030E002C0220F67
:10156000331F6A95E2F7822F809589238083A158E3
:10157000BE4FED91FC918081822B80830895E82FEE
:10158000F0E0EE0FFF1FE158FE4F0190F081E02DDB
:101590008FEF80830895E82FF0E0EE0FFF1FE158F2
:1015A000FE4F0190F081E02D10820895E82FF0E0C9
:1015B000EE0FFF1FE158FE4F0190F081E02D80817A
:1015C000809580830895E82FF0E0EE0FFF1FE1582B
:1015D000FE4F0190F081E02D60830895E82FF0E048
:1015E000EE0FFF1FE158FE4F0190F081E02D2081AA
:1015F00081E090E002C0880F991F6A95E2F7282BDE
:1016000020830895E82FF0E0EE0FFF1FE158FE4F12
:101610000190F081E02D208181E090E002C0880FF0
:10162000991F6A95E2F78095822380830895E82FB9
:10163000F0E0EE0FFF1FE158FE4F0190F081E02D2A
:10164000208181E090E002C0880F991F6A95E2F73F
:10165000282720830895E82FF0E0442391F0EE0F2F
:10166000FF1FE158FE4F0190F081E02D208181E0C5
:1016700090E002C0880F991F6A95E2F7282B20831B
:101680000895EE0FFF1FE158FE4F0190F081E02D0D
:10169000208181E090E002C0880F991F6A95E2F7EF
:1016A0008095822380830895E82FF0E0EE0FFF1FDE
:1016B000E958FE4F0190F081E02D80810895E82FD8
:1016C000F0E0EE0FFF1FE958FE4F0190F081E02D92
:1016D000808190E002C0959587956A95E2F78170C8
:1016E0000895CF92DF92FF920F931F93DF93CF93D2
:1016F00000D0CDB7DEB71A82198285E791E00E944B
:10170000D60B00E010E0FF246E010894C11CD11C30
:10171000C6010E94050C89819A81080F191FF39454
:101720008AE0F816A9F7C8016AE070E00E945E0C32
:1017300080E090E00E94CF032091900130919101D0
:1017400040919201509193010E94F30120E030E01A
:1017500040E85AE30E94F3010F900F90CF91DF9180
:101760001F910F91FF90DF90CF900895982F8B30AD
:1017700011F08F3039F49F7180917501807E892B33
:10178000809375010E94D10B80E090E0AAEFB3E452
:101790008093900190939101A0939201B093930153
:1017A00008953D983E9A3F98379A0895FC0187B175
:1017B000807E87B997B180818F71892B87B986B177
:1017C000887F86B996B18081829586958770892BAE
:1017D00086B980B78F7180BF90B7818186958770F9
:1017E000892B80BF818180FF02C0359A01C0359866
:1017F00084FF04C0339A8FB7806803C033988FB7D3
:101800008F778FBF0895369A0895FC01369A349BDE
:10181000FECF349A84B195B19183808308959093DB
:1018200095018093940108951F920F920FB60F9225
:1018300011242F933F934F935F936F937F938F93D5
:101840009F93AF93BF93EF93FF93E0919401F09137
:101850009501309719F084B195B10995FF91EF91F9
:10186000BF91AF919F918F917F916F915F914F91B8
:101870003F912F910F900FBE0F901F901895629F70
:10188000D001739FF001829FE00DF11D649FE00D78
:10189000F11D929FF00D839FF00D749FF00D659FD9
:1018A000F00D9927729FB00DE11DF91F639FB00DD8
:1018B000E11DF91FBD01CF0111240895AA1BBB1B17
:1018C00051E107C0AA1FBB1FA617B70710F0A61B40
:1018D000B70B881F991F5A95A9F780959095BC0161
:1018E000CD01089597FB092E05260ED057FD04D093
:1018F00014D00AD0001C38F45095409530952195AD
:101900003F4F4F4F5F4F0895F6F790958095709534
:1019100061957F4F8F4F9F4F0895A1E21A2EAA1B0A
:10192000BB1BFD010DC0AA1FBB1FEE1FFF1FA2178F
:10193000B307E407F50720F0A21BB30BE40BF50B8C
:10194000661F771F881F991F1A9469F76095709515
:10195000809590959B01AC01BD01CF0108952F9218
:101960003F924F925F926F927F928F929F92AF922F
:10197000BF92CF92DF92EF92FF920F931F93CF937C
:10198000DF93CDB7DEB7CA1BDB0B0FB6F894DEBF13
:101990000FBECDBF09942A88398848885F846E8439
:1019A0007D848C849B84AA84B984C884DF80EE8083
:1019B000FD800C811B81AA81B981CE0FD11D0FB68C
:1019C000F894DEBF0FBECDBFED010895F894FFCFB0
:1019D00076616C75653D200020202020000000000D
:1019E00000000000000001020203030303040404DA
:1019F000040404040405050505050505050505059C
:101A0000050505050506060606060606060606067B
:101A10000606060606060606060606060606060666
:101A2000060606060607070707070707070707074B
:101A30000707070707070707070707070707070736
:101A40000707070707070707070707070707070726
:101A50000707070707070707070707070707070716
:101A600007070707070808080808080808080808FB
:101A700008080808080808080808080808080808E6
:101A800008080808080808080808080808080808D6
:101A900008080808080808080808080808080808C6
:101AA00008080808080808080808080808080808B6
:101AB00008080808080808080808080808080808A6
:101AC0000808080808080808080808080808080896
:101AD0000808080808080808080808080808080886
:101AE00008080808084B0039003600330030003B76
:101AF000003800350032003A003700340031000071
:00000001FF
