:100000000C942A000C9447000C9447000C94470071
:100010000C9447000C9447000C9447000C94470044
:100020000C9447000C9447000C9447000C94470034
:100030000C9447000C9447000C9447000C94470024
:100040000C9447000C9447000C9447000C94470014
:100050000C94470011241FBECFE5D8E0DEBFCDBF12
:1000600011E0A0E6B0E0EEE3FFE102C005900D92E2
:10007000A43DB107D9F711E0A4EDB1E001C01D9294
:10008000A53EB107E1F70E9457060C949D0F0C9412
:100090000000A0E0B0E0EFE4F0E00C94D40CDC0150
:1000A0002B01FA019C91923008F439C1EB0188814F
:1000B000823008F433C1943069F4843009F02FC1E0
:1000C00011969C9111978981981709F428C1A3E989
:1000D000B0E025C1843009F421C18230A9F4923006
:1000E00009F01DC19A01AD0188E0EA010990AE0155
:1000F000E90109929E018150C1F7E20189811196BF
:100100009C918923818308C1923009F407C112961A
:100110002D903C901397EB018A819B811496AD90B2
:10012000BD90CD90DC901797EC80FD800E811F81F3
:100130009101281B390BB90137FF04C066277727C7
:10014000621B730B603271050CF061C0121613064E
:100150006CF537014801062E04C096948794779475
:1001600067940A94D2F721E030E040E050E004C008
:10017000220F331F441F551F6A95D2F7215030407C
:10018000404050402E213F2140235123211531056D
:100190004105510521F021E030E040E050E07901D7
:1001A0008A01E628F728082919293CC0232BD1F118
:1001B000260E371E35014601062E04C096948794FC
:1001C000779467940A94D2F721E030E040E050E061
:1001D00004C0220F331F441F551F6A95D2F72150C8
:1001E0003040404050402A213B214C215D212115C7
:1001F00031054105510521F021E030E040E050E0BB
:1002000059016A01A628B728C828D9280BC0821529
:1002100093052CF01C01AA24BB24650103C0EE2425
:10022000FF24870111969C91D20111968C91981709
:1002300009F445C0992339F0A80197012A193B090F
:100240004C095D0906C0A60195012E193F09400B16
:10025000510B57FD08C011823382228224833583DB
:10026000468357831DC081E08183338222828827A1
:100270009927DC01821B930BA40BB50B8483958318
:10028000A683B7830DC0220F331F441F551F24833D
:100290003583468357838281938101979383828339
:1002A0002481358146815781DA01C9010197A1096D
:1002B000B1098F5F9F4FAF4FBF4328F30BC09183AE
:1002C00033822282EA0CFB1C0C1D1D1DE482F58288
:1002D0000683178383E0808324813581468157819B
:1002E00057FF1AC0C901AA2797FDA095BA2F8170A0
:1002F0009070A070B0705695479537952795822BD2
:10030000932BA42BB52B84839583A683B7838281FB
:100310009381019693838283DF0101C0D201CD01D5
:10032000CDB7DEB7E2E10C94F00CA0E2B0E0EBE96F
:10033000F1E00C94E00C69837A838B839C832D839A
:100340003E834F835887E9E0EE2EF12CEC0EFD1E24
:10035000CE010196B7010E94C3048E010F5E1F4FAC
:10036000CE010596B8010E94C3048A8991E08927CD
:100370008A8BC701B801AE01475E5F4F0E944900FA
:100380000E94EE03A096E6E00C94FC0CA0E2B0E024
:10039000ECECF1E00C94E00C69837A838B839C8312
:1003A0002D833E834F835887F9E0EF2EF12CEC0E1E
:1003B000FD1ECE010196B7010E94C3048E010F5E9F
:1003C0001F4FCE010596B8010E94C304C701B801B2
:1003D000AE01475E5F4F0E9449000E94EE03A09667
:1003E000E6E00C94FC0CA0E2B0E0E9EFF1E00C9444
:1003F000D40C69837A838B839C832D833E834F83C4
:100400005887CE010196BE01675F7F4F0E94C304EB
:10041000CE010596BE016F5E7F4F0E94C304998591
:10042000923088F089898230C8F0943019F4823093
:1004300051F404C0843029F4923081F483E990E0CF
:10044000C6C0923049F420E09A858A89981321E049
:100450002A87CE010996BBC0823049F420E09A85F4
:100460008A89981321E02A8BCE014196B0C02D8451
:100470003E844F8458886D887E888F88988CEE24BF
:10048000FF248701AA24BB24650140E050E060E01E
:1004900070E0E0E0F0E0C10181709070892BE9F03C
:1004A000E60CF71C081D191D9A01AB012A0D3B1D16
:1004B0004C1D5D1D80E090E0A0E0B0E0E614F70484
:1004C0000805190520F481E090E0A0E0B0E0BA0151
:1004D000A901480F591F6A1F7B1FAA0CBB1CCC1C0B
:1004E000DD1C97FE08C081E090E0A0E0B0E0A82A03
:1004F000B92ACA2ADB2A3196E032F10549F0660CA6
:10050000771C881C991C5694479437942794C3CF22
:10051000FA85EA892B893C898B859C85280F391FB0
:100520002E5F3F4F17C0CA0181709070892B61F018
:1005300016950795F794E79480E090E0A0E0B0E886
:10054000E82AF92A0A2B1B2B76956795579547952C
:100550002F5F3F4F77FDE7CF0CC0440F551F661F3D
:10056000771F17FD4160EE0CFF1C001F111F21506B
:100570003040403090E0590790E0690790E47907F7
:1005800060F32B8F3C8FDB01CA018F779070A070D6
:10059000B07080349105A105B10561F447FD0AC032
:1005A000E114F1040105110529F0405C5F4F6F4F24
:1005B0007F4F40781A8EFE1711F081E08A8F4D8FA1
:1005C0005E8F6F8F78A383E0898FCE0149960E945A
:1005D000EE03A096E2E10C94F00CA8E0B0E0E3EFAB
:1005E000F2E00C94DD0C9B01AC0183E08983DA011D
:1005F000C9018827B7FD83959927AA27BB27B82E5D
:10060000211531054105510519F482E089833AC06D
:100610008823A9F0203080E0380780E0480780E890
:10062000580729F460E070E080E09FEC30C0EE24D1
:10063000FF248701E21AF30A040B150B02C07901AB
:100640008A018EE1C82ED12CDC82CB82ED82FE8223
:100650000F831887C801B7010E949F0301971816DE
:10066000190684F4082E04C0EE0CFF1C001F111F95
:100670000A94D2F7ED82FE820F831887C81AD90A2E
:10068000DC82CB82BA82CE0101960E94EE032896CC
:10069000E9E00C94F90CACE0B0E0E1E5F3E00C9497
:1006A000E40C69837A838B839C83CE010196BE011F
:1006B0006B5F7F4F0E94C3048D81823061F1823075
:1006C00050F1843021F48E81882351F12EC02F8186
:1006D000388537FD20C06E812F3131051CF066232F
:1006E000F9F023C08EE190E0821B930B29853A85B7
:1006F0004B855C8504C056954795379527958A9517
:10070000D2F76623B1F050954095309521953F4F33
:100710004F4F5F4F0EC020E030E040E050E009C096
:100720002FEF3FEF4FEF5FE704C020E030E040E005
:1007300050E8B901CA012C96E2E00C94000DEF924A
:10074000FF920F931F937B018C0180E0E81680E0FD
:10075000F80681E0080780E0180788F48FEFE816B4
:10076000F1040105110531F028F088E090E0A0E0E7
:10077000B0E017C080E090E0A0E0B0E012C080E000
:10078000E81680E0F80680E0080781E0180728F006
:1007900088E190E0A0E0B0E004C080E190E0A0E05B
:1007A000B0E020E230E040E050E0281B390B4A0B7B
:1007B0005B0B04C016950795F794E7948A95D2F7DA
:1007C000F701E556FF4F8081281B31094109510986
:1007D000C9011F910F91FF90EF900895DF92EF9262
:1007E000FF920F931F93FC01E480F580068117812F
:1007F000D1808081823048F480E090E0A0E1B0E0D8
:10080000E82AF92A0A2B1B2BA5C0843009F49FC0C3
:10081000823021F4EE24FF24870105C0E114F104A5
:100820000105110519F4E0E0F0E096C062817381E2
:100830009FEF623879070CF05BC022E83FEF261B80
:10084000370B2A3131052CF020E030E040E050E059
:100850002AC0B801A701022E04C076956795579566
:1008600047950A94D2F781E090E0A0E0B0E004C0A0
:10087000880F991FAA1FBB1F2A95D2F70197A109BC
:10088000B1098E219F21A023B1230097A105B105B5
:1008900021F081E090E0A0E0B0E09A01AB01282BCC
:1008A000392B4A2B5B2BDA01C9018F779070A0702E
:1008B000B07080349105A105B10539F427FF09C056
:1008C000205C3F4F4F4F5F4F04C0215C3F4F4F4F65
:1008D0005F4FE0E0F0E02030A0E03A07A0E04A07F8
:1008E000A0E45A0710F0E1E0F0E079018A0127C0A6
:1008F0006038710564F5FB01E158FF4FD801C7016D
:100900008F779070A070B07080349105A105B1050B
:1009100039F4E7FE0DC080E490E0A0E0B0E004C050
:100920008FE390E0A0E0B0E0E80EF91E0A1F1B1F65
:1009300017FF05C016950795F794E794319687E061
:1009400016950795F794E7948A95D1F705C0EE249C
:10095000FF248701EFEFF0E06E2F6795662767951C
:10096000902F9F77D794DD24D7948E2F8695492F8B
:10097000462B582F5D29B701CA011F910F91FF9097
:10098000EF90DF900895FC01DB01408151812281CD
:10099000622F6F7770E0221F2227221F9381892FF9
:1009A000880F822B282F30E0991F9927991F1196C5
:1009B0009C93119721153105A9F541155105610544
:1009C000710511F482E037C082E89FEF13969C9383
:1009D0008E9312979A01AB0167E0220F331F441FD9
:1009E000551F6A95D1F783E08C930DC0220F331FFA
:1009F000441F551F12968D919C9113970197139642
:100A00009C938E931297203080E0380780E048074F
:100A100080E4580758F314962D933D934D935C93BF
:100A2000179708952F3F310579F441155105610558
:100A3000710519F484E08C93089564FF03C081E08C
:100A40008C9312C01C9210C02F57304013963C93C9
:100A50002E93129783E08C9387E0440F551F661FF7
:100A6000771F8A95D1F7706414964D935D936D93BB
:100A70007C93179708954B325105C1F04C325105C4
:100A800024F44A32510539F409C04D32510591F030
:100A90004F32510599F020E030E013C0689F90017B
:100AA000699F300D789F300D11240BC09B01280FDA
:100AB000391F07C09C01261B370B03C00E94700C16
:100AC0009B01C90108958091DD019091DE01089597
:100AD000AC016115710509F069C08D33910509F00C
:100AE00044C0A091DB01B091DC018091D601882344
:100AF00019F0EFEFFFEF02C0E1E0F0E02091D90143
:100B00003091DA018091D501882319F08FEF9FEFA2
:100B100002C081E090E0829FB001839F700D929FA0
:100B2000700D11244091D401EA9FC001EB9F900DFC
:100B3000FA9F900D112450E00E943B059093DE0136
:100B40008093DD011092D8011092D7011092D60146
:100B50001092D5011092DC011092DB011092DA01A3
:100B60001092D9011092D40108958091D701882361
:100B700041F48091DD019091DE019093DC0180933E
:100B8000DB014093D40181E08093D80100D000D0F4
:100B9000EDB7FEB7319680E690E0ADB7BEB71296DE
:100BA0009C938E931197428313824DC0BFEF8F3F6A
:100BB0009B07D1F46F5F7F4FB9F41092D801109268
:100BC000D7011092D6011092D5011092DC0110923B
:100BD000DB011092DA011092D9011092D401109227
:100BE000DE011092DD0108958091D801882391F5EE
:100BF00081E08093D7014D32510519F48093D601DD
:100C000008958091DB019091DC019C01F3E0220FBB
:100C1000331FFA95E1F7880F991F280F391F240F0A
:100C2000351F3093DC012093DB0100D000D088E633
:100C300090E0ADB7BEB712969C938E931197149621
:100C40003C932E9313970E940B0D0F900F900F90D3
:100C50000F900895813051F54D32510519F480936C
:100C6000D50108958091D9019091DA019C0173E03A
:100C7000220F331F7A95E1F7880F991F280F391F2C
:100C8000240F351F3093DA012093D90100D000D012
:100C900081E790E0EDB7FEB79283818334832383AD
:100CA0000E940B0D0F900F900F900F900895CF9210
:100CB000DF92EF92FF920F931F93CF93DF930E94E7
:100CC0003F090E941A0B8BE991E00E94BB0A0E9427
:100CD000D60A8334E1F78AE790E00E94780A84EC30
:100CE00099E028EC30E0F9013197F1F70197D9F755
:100CF0000E941E09C0E0D0E088ECC82ED12C2196BD
:100D00000E94D60AE82EFF24E7FCF0940F2D1F2D39
:100D10008FEFE8168FEFF8068FEF08078FEF1807B1
:100D2000A1F08DE3E816F1040105110571F083E4EB
:100D3000E816F1040105110541F40E941E098FEF28
:100D40009FEF6FEF7FEF0E9468058FEFCF3FD807CF
:100D5000B1F60E941E0908C00E94D60AE82EFF24A0
:100D6000E7FCF0940F2D1F2D83E4E816F104010534
:100D7000110591F786E890E00E94780A84EC99E0EA
:100D8000F6013197F1F70197D9F70E941E09B7CF05
:100D9000DF92EF92FF920F931F93CF93DF93E82E92
:100DA000FF2400E010E0282F70E030E040E0DD2478
:100DB000C62FD0E021970BC0622F832F942FA8015C
:100DC00097010E94510C262F382F492FD3948D2D37
:100DD00090E08C179D0784F3622F832F942FDF916F
:100DE000CF911F910F91FF90EF90DF9008950F9397
:100DF0001F9382E067E040E00E94580B82E066E0CB
:100E000040E00E94580B82E065E040E00E94580BF1
:100E100082E064E040E00E94580B83E062E00E94C0
:100E2000E20B83E061E00E94CE0B12E0812F8A95F5
:100E3000F1F783E060E00E94CE0B812F8A95F1F7F5
:100E400082E00E94340C082F0295007F83E060E06E
:100E50000E94E20B8AE18A95F1F783E060E00E944C
:100E6000CE0B1A95F1F782E00E94340C082B83E038
:100E700060E00E94E20B82E067E04FEF0E94580BB7
:100E800082E066E04FEF0E94580B82E065E04FEF92
:100E90000E94580B82E064E04FEF0E94580B802FB5
:100EA0008F771F910F9108951F9382E060E00E9459
:100EB0003A0B84EF91E028EC30E0F9013197F1F73B
:100EC0000197D9F783E062E00E94E20B83E061E0E2
:100ED0000E94CE0B12E0812F8A95F1F783E060E04B
:100EE0000E94CE0B1A95F1F782E00E94340C182F65
:100EF00083E060E00E94E20B82E06FEF0E943A0B19
:100F0000812F8F771F9108950F931F93CF93DF93B6
:100F100083E062E00E94E20B83E061E00E94E20B6A
:100F200012E0812F8A95F1F783E060E00E94CE0BFA
:100F30001A95F1F7C0E0D0E002E010E0CE018C5F3E
:100F4000682FA8010C2E02C0559547950A94E2F728
:100F5000417082E00E940B0C2196C430D10571F7DC
:100F600083E060E00E94E20B8AE18A95F1F783E07A
:100F700060E00E94CE0B82E08A95F1F7C0E0D0E0FD
:100F800002E010E0CE018C5F682FA8010C2E02C099
:100F9000559547950A94E2F7417082E00E940B0C48
:100FA0002196C430D10571F783E060E00E94E20B26
:100FB0008AE18A95F1F783E060E00E94CE0B82E03F
:100FC0008A95F1F7C0E0D0E008E010E0CE018C5F38
:100FD000682FA8010C2E02C0559547950A94E2F798
:100FE000417082E00E940B0C2196C430D10571F74C
:100FF00083E060E00E94E20B8AE18A95F1F7DF91DD
:10100000CF911F910F910895EF92FF920F931F932D
:10101000CF93DF93082F83E062E00E94E20B83E02E
:1010200061E00E94E20B12E0812F8A95F1F783E0E4
:1010300060E00E94CE0B812F8A95F1F7E02EFF240D
:10104000A70134E0559547953A95E1F7417082E064
:1010500064E00E940B0CA70125E0559547952A9561
:10106000E1F7417082E065E00E940B0CA70196E079
:10107000559547959A95E1F7417082E066E00E94A8
:101080000B0CA701440F452F441F550B417082E004
:1010900067E00E940B0C83E060E00E94E20B8AE1B3
:1010A0008A95F1F783E060E00E94CE0B1A95F1F784
:1010B000C0E0D0E0CE018C5F682FA7010C2E02C0EB
:1010C000559547950A94E2F7417082E00E940B0C17
:1010D0002196C430D10571F783E060E00E94E20BF5
:1010E000DF91CF911F910F91FF90EF900895EF92B4
:1010F000FF920F931F93CF93DF93082F83E062E05B
:101100000E94CE0B83E061E00E94E20B12E0812F8F
:101110008A95F1F783E060E00E94CE0B812F8A95DB
:10112000F1F7E02EFF24A701F4E055954795FA95D5
:10113000E1F7417082E064E00E940B0CA701E5E05A
:1011400055954795EA95E1F7417082E065E00E9488
:101150000B0CA70176E0559547957A95E1F741701C
:1011600082E066E00E940B0CA701440F452F441F4C
:10117000550B417082E067E00E940B0C83E060E059
:101180000E94E20B8AE18A95F1F783E060E00E9419
:10119000CE0B1A95F1F7C0E0D0E0CE018C5F682F3E
:1011A000A7010C2E02C0559547950A94E2F74170AD
:1011B00082E00E940B0C2196C430D10571F783E0C8
:1011C00060E00E94E20BDF91CF911F910F91FF90A1
:1011D000EF9008950F931F93082F83E062E00E9421
:1011E000E20B83E061E00E94E20B12E0812F8A951E
:1011F000F1F783E060E00E94CE0B1A95F1F782E0F0
:10120000602F0E94C30B83E060E00E94E20B1F91FD
:101210000F9108958CE00E94EA0885E88A95F1F71D
:10122000089588E00E94EA0884EF91E028EC30E01D
:10123000F9013197F1F70197D9F708950F931F93AB
:1012400081E00E94EA0800EA1FE0C8010197F1F777
:1012500082E00E94EA08C8010197F1F71F910F91FF
:10126000089590E00296A6E0880F991FAA95E1F7ED
:10127000860F0E94EA0885E88A95F1F708951F9382
:1012800082E06FEF0E943A0B83E060E04FEF0E9434
:10129000580B83E061E04FEF0E94580B83E062E05F
:1012A0004FEF0E94580B84EF91E028EC30E0F901F9
:1012B0003197F1F70197D9F788E30E94EA0815E81A
:1012C000812F8A95F1F78CE00E94EA081A95F1F7D0
:1012D00081E00E94EA0880EA9FE00197F1F71F9100
:1012E00008950F931F93082F83E062E00E94CE0BB6
:1012F00083E061E00E94E20B12E0812F8A95F1F712
:1013000083E060E00E94CE0B1A95F1F782E0602F37
:101310000E94C30B83E060E00E94E20B1F910F91DB
:1013200008950E94710985E88A95F1F70895AF92B2
:10133000BF92CF92DF92EF92FF920F931F93DF93B2
:10134000CF93CDB7DEB72A970FB6F894DEBF0FBEA6
:10135000CDBF7B018C01611571058105910521F4DB
:1013600080E30E9491090DC097FF0BC08DE20E949F
:10137000910910950095F094E094E11CF11C011D79
:10138000111D5E010894A11CB11CDD2423C0C801FD
:10139000B7012AE030E040E050E00E94830CF50104
:1013A00061935F01D394FBE0DF1641F411E0ED2C73
:1013B000FF246E010894C11CD11C1CC0C801B701D8
:1013C0002AE030E040E050E00E94830CC901DA01DD
:1013D0007C018D01E114F10401051105C1F6E6CF90
:1013E000F701E81BF90BEC0DFD1D8081805D0E946B
:1013F00091091F5F812F90E0E816F9068CF72A9675
:101400000FB6F894DEBF0FBECDBFCF91DF911F9115
:101410000F91FF90EF90DF90CF90BF90AF90089525
:101420002F923F924F925F926F927F928F929F92F4
:10143000AF92BF92CF92DF92EF92FF920F931F93E2
:10144000CF93DF931B012C01142F0E944B033B0110
:101450004C0100E0BAE0AB2EB12CC12CD12CC12F35
:10146000D0E021970BC0C601B5012AE030E040E092
:1014700050E00E94510C5B016C010F5F802F90E0E7
:101480008C179D0784F3C401B3010E9497098EE273
:101490000E949109C401B3010E94ED029B01AC01BD
:1014A000C201B1010E9495017B018C01C601B50109
:1014B0000E94ED029B01AC01C801B7010E94F3013B
:1014C0000E944B036F770E949709DF91CF911F9184
:1014D0000F91FF90EF90DF90CF90BF90AF909F90D3
:1014E0008F907F906F905F904F903F902F900895D6
:1014F0001F93CF93DF93EC0110E003C00E9491098A
:101500001F5FFE01E10FF11D80818823B9F7DF9194
:10151000CF911F910895EF92FF920F931F93CF9356
:10152000DF937C01162F0E945407082F812F805CC7
:101530000E94EA0885E88A95F1F7C0E0D0E015E856
:10154000F701EC0FFD1F80810E947109812F8A95A0
:10155000F1F72196C830D10599F7802F80580E9465
:10156000EA0885E88A95F1F7DF91CF911F910F91F5
:10157000FF90EF900895BC0120E030E00CC08C910A
:10158000808314963496E417F507C9F72F5F3F4F11
:101590002430310551F0DB01A20FB31FF901E555ED
:1015A000FE4FA90145545E4FEACF08950F931F9354
:1015B00000E080E0602F0E94E20B80E064E00E9487
:1015C0003F0C882311F414E017C080E065E00E940E
:1015D0003F0C882311F415E00FC080E066E00E9404
:1015E0003F0C882311F416E007C080E067E00E94FA
:1015F0003F0C8823A1F417E080E0612F0E943F0C8C
:101600008823D1F3E12FF0E03497EE0FFF1FEE0FA8
:10161000FF1FE00FF11DE555FE4F808108C080E0FF
:10162000602F0E94CE0B0F5F043019F68FEF1F91D1
:101630000F9108951F9310E080E0612F4FEF0E94FB
:10164000580B80E0612F0E94CE0B1F5F1430A1F772
:1016500080E064E00E94810B80E065E00E94810BE5
:1016600080E066E00E94810B80E067E00E94810BD1
:101670001F910895E82FF0E0EE0FFF1FE553FE4F96
:101680000190F081E02D60830895E82FF0E0EE0FE7
:10169000FF1FDF01A553BE4F0D90BC91A02D1C92E2
:1016A000ED53FE4F0190F081E02D8FEF8083089580
:1016B000E82FF0E0442391F0EE0FFF1FE553FE4FBB
:1016C0000190F081E02D208181E090E002C0880F40
:1016D000991F6A95E2F7282B20830895EE0FFF1FCC
:1016E000E553FE4F0190F081E02D208181E090E0F4
:1016F00002C0880F991F6A95E2F780958223808344
:101700000895A82FB0E0AA0FBB1FFD01E553FE4FBF
:101710000190F081E02D908121E030E002C0220FA5
:10172000331F6A95E2F7822F809589238083AD531A
:10173000BE4FED91FC918081822B80830895E82F2C
:10174000F0E0EE0FFF1FED53FE4F0190F081E02D12
:101750008FEF80830895E82FF0E0EE0FFF1FED5329
:10176000FE4F0190F081E02D10820895E82FF0E007
:10177000EE0FFF1FED53FE4F0190F081E02D8081B1
:10178000809580830895E82FF0E0EE0FFF1FED5362
:10179000FE4F0190F081E02D60830895E82FF0E086
:1017A000EE0FFF1FED53FE4F0190F081E02D2081E1
:1017B00081E090E002C0880F991F6A95E2F7282B1C
:1017C00020830895E82FF0E0EE0FFF1FED53FE4F4A
:1017D0000190F081E02D208181E090E002C0880F2F
:1017E000991F6A95E2F78095822380830895E82FF8
:1017F000F0E0EE0FFF1FED53FE4F0190F081E02D62
:10180000208181E090E002C0880F991F6A95E2F77D
:10181000282720830895E82FF0E0442391F0EE0F6D
:10182000FF1FED53FE4F0190F081E02D208181E0FC
:1018300090E002C0880F991F6A95E2F7282B208359
:101840000895EE0FFF1FED53FE4F0190F081E02D44
:10185000208181E090E002C0880F991F6A95E2F72D
:101860008095822380830895E82FF0E0EE0FFF1F1C
:10187000E554FE4F0190F081E02D80810895E82F1E
:10188000F0E0EE0FFF1FE554FE4F0190F081E02DD8
:10189000808190E002C0959587956A95E2F7817006
:1018A0000895629FD001739FF001829FE00DF11DAA
:1018B000649FE00DF11D929FF00D839FF00D749FCA
:1018C000F00D659FF00D9927729FB00DE11DF91F76
:1018D000639FB00DE11DF91FBD01CF0111240895D3
:1018E00097FB092E07260AD077FD04D027D006D013
:1018F00000201AF4709561957F4F0895F6F7909542
:1019000081959F4F089597FB092E05260ED057FD10
:1019100004D028D00AD0001C38F45095409530955A
:1019200021953F4F4F4F5F4F0895F6F79095809563
:10193000709561957F4F8F4F9F4F0895AA1BBB1BDA
:1019400051E107C0AA1FBB1FA617B70710F0A61BBF
:10195000B70B881F991F5A95A9F780959095BC01E0
:10196000CD010895A1E21A2EAA1BBB1BFD010DC0DB
:10197000AA1FBB1FEE1FFF1FA217B307E407F5073F
:1019800020F0A21BB30BE40BF50B661F771F881F1B
:10199000991F1A9469F760957095809590959B01B1
:1019A000AC01BD01CF0108952F923F924F925F92FB
:1019B0006F927F928F929F92AF92BF92CF92DF925F
:1019C000EF92FF920F931F93CF93DF93CDB7DEB7C4
:1019D000CA1BDB0B0FB6F894DEBF0FBECDBF099458
:1019E0002A88398848885F846E847D848C849B84AF
:1019F000AA84B984C884DF80EE80FD800C811B81BD
:101A0000AA81B981CE0FD11D0FB6F894DEBF0FBEEB
:101A1000CDBFED010895A0E0B0E0E1E1FDE00C9460
:101A2000E40CFE013596619171918091E1019091F4
:101A3000E201AF010E94200D2096E2E00C94000D1F
:101A4000ABE0B0E0E6E2FDE00C94D40C3C012B01ED
:101A50005A01FC0117821682838181FD03C06FEF5A
:101A60007FEFC6C19AE0892E1E010894211C311C0B
:101A7000F3012381F20123FD859123FF81912F0141
:101A8000882309F4B2C1853239F423FD859123FFFF
:101A900081912F01853229F490E0B3010E94130F48
:101AA000E7CF982FFF24EE249924FFE1FF15D0F013
:101AB0009B3269F09C3228F4903259F0933291F4C1
:101AC0000EC09D3249F0903369F441E024C052E0E9
:101AD000F52A84E0F82A28C098E0F92A25C0E0E138
:101AE000FE2A22C0F7FC29C0892F80538A3070F467
:101AF000F6FE05C0989C902C1124980E15C0E89C09
:101B0000E02C1124E80EF0E2FF2A0EC09E3229F4E8
:101B1000F6FC6BC140E4F42A07C09C3619F450E887
:101B2000F52A02C0983649F4F20123FD959123FF6E
:101B300091912F01992309F0B8CF892F85548330D3
:101B400018F08052833038F444E050E0A40EB51E03
:101B50005FE359830FC0933631F0933779F09335B3
:101B600009F056C020C0F5018081898342E050E031
:101B7000A40EB51E610101E010E012C0F501C080A5
:101B8000D180F6FC03C06FEF7FEF02C0692D70E0DB
:101B900042E050E0A40EB51EC6010E94080F8C0161
:101BA0005FE7F52214C0F501C080D180F6FC03C0C8
:101BB0006FEF7FEF02C0692D70E042E050E0A40EAD
:101BC000B51EC6010E94FD0E8C0150E8F52AF3FEF9
:101BD00007C01AC080E290E0B3010E94130FEA949C
:101BE0008E2D90E008171907A8F30EC0F601F7FC38
:101BF0008591F7FE81916F0190E0B3010E94130F70
:101C0000E110EA94015010400115110579F7EAC07E
:101C1000943611F0993669F5F7FE08C0F501208178
:101C200031814281538184E090E00AC0F5018081D6
:101C300091819C01442737FD4095542F82E090E02C
:101C4000A80EB91E9FE6F92257FF09C0509540958E
:101C5000309521953F4F4F4F5F4FE0E8FE2ACA0174
:101C6000B901A1012AE030E00E943F0FD82ED2181E
:101C700040C0953729F41F2D1F7E2AE030E01DC09B
:101C80001F2D197F9F3661F0903720F4983509F0A9
:101C9000ACC00FC0903739F0983709F0A6C004C027
:101CA00028E030E00AC0106114FD146020E130E04B
:101CB00004C014FD166020E132E017FF08C0F501F2
:101CC000608171818281938144E050E008C0F50118
:101CD00080819181BC0180E090E042E050E0A40E60
:101CE000B51EA1010E943F0FD82ED2188FE7F82E03
:101CF000F122F6FE0BC05EEFF522D91438F4F4FEA3
:101D000007C0F2FC05C08FEEF82202C01D2D01C0F5
:101D1000192DF4FE0DC0FE01ED0DF11D8081803303
:101D200019F499EEF92208C01F5FF2FE05C003C046
:101D30008F2D867809F01F5F0F2DF3FC14C0F0FE85
:101D40000FC01E1510F09D2C0BC09D2C9E0C911ADF
:101D50001E2D06C080E290E0B3010E94130F1F5FAA
:101D60001E15C0F304C01E1510F4E11A01C0EE24C4
:101D700004FF0FC080E390E0B3010E94130F02FF45
:101D80001DC001FD03C088E790E00EC088E590E02B
:101D90000BC0802F867891F001FF02C08BE201C05A
:101DA00080E2F7FC8DE290E0B3010E94130F06C0C1
:101DB00080E390E0B3010E94130F9A94D914C0F30A
:101DC000DA94F101ED0DF11D808190E0B3010E94E4
:101DD000130FDD20A9F706C080E290E0B3010E9456
:101DE000130FEA94EE20C1F743CEF30166817781A9
:101DF000CB012B96E2E10C94F00CFC0105906150B4
:101E000070400110D8F7809590958E0F9F1F089510
:101E1000FC016150704001900110D8F780959095B9
:101E20008E0F9F1F08950F931F93CF93DF938C0105
:101E3000EB018B8181FF1BC082FF0DC02E813F8192
:101E40008C819D812817390764F4E881F981019319
:101E5000F983E88306C0E885F985802F0995892BE9
:101E600031F48E819F8101969F838E8302C00FEF94
:101E70001FEFC801DF91CF911F910F910895FA01D3
:101E8000AA27283051F1203181F1E8946F936E7FB9
:101E90006E5F7F4F8F4F9F4FAF4FB1E03ED0B4E0AA
:101EA0003CD0670F781F891F9A1FA11D680F791FEB
:101EB0008A1F911DA11D6A0F711D811D911DA11DFC
:101EC00020D009F468943F912AE0269F112430190C
:101ED000305D3193DEF6CF010895462F4770405DA7
:101EE0004193B3E00FD0C9F7F6CF462F4F70405D56
:101EF0004A3318F0495D31FD4052419302D0A9F7B1
:101F0000EACFB4E0A6959795879577956795BA95AA
:101F1000C9F700976105710508959B01AC010A2E70
:101F200006945795479537952795BA95C9F7620F47
:0E1F3000731F841F951FA01D0895F894FFCF06
:101F3E006F703D2025630A006F70313D2025640AC5
:101F4E00006F70323D2025640A005374617274690B
:101F5E006E672E2E2E00456E7465722076616C753E
:101F6E00652E0000000000000000000001020203C8
:101F7E000303030404040404040404050505050511
:101F8E0005050505050505050505050606060606EE
:101F9E0006060606060606060606060606060606D3
:101FAE0006060606060606060606060707070707BE
:101FBE0007070707070707070707070707070707A3
:101FCE000707070707070707070707070707070793
:101FDE000707070707070707070707070707070783
:101FEE00070707070707070707070708080808086E
:101FFE000808080808080808080808080808080853
:10200E000808080808080808080808080808080842
:10201E000808080808080808080808080808080832
:10202E000808080808080808080808080808080822
:10203E000808080808080808080808080808080812
:10204E000808080808080808080808080808080802
:10205E0008080808080808080808080808080808F2
:10206E0008080808080808080808080708092F04BF
:10207E000506780102032D43003D2B0102030405E2
:10208E00060708090A0B0C0D0E0F10390036003327
:10209E000030003B003800350032003A0037003483
:0420AE0000310000FD
:00000001FF
