:100000000C942A000C943F000C943F000C943F0089
:100010000C943F000C943F000C943F000C943F0064
:100020000C943F000C943F000C943F000C943F0054
:100030000C943F000C943F000C943F000C943F0044
:100040000C943F000C943F000C943F000C943F0034
:100050000C943F0011241FBECFE5D8E0DEBFCDBF1A
:1000600010E0A0E6B0E0E6EAF3E002C005900D92F1
:10007000A238B107D9F70E9441000C94D1010C9429
:1000800000008F929F92AF92BF92CF92DF92EF9239
:10009000FF920F931F93DF93CF93CDB7DEB72A97CD
:1000A0000FB6F894DEBF0FBECDBFDE011196E0E6BD
:1000B000F0E08AE001900D928150E1F783E06FEF6C
:1000C0000E94AE0082E060E04FEF0E94CC0082E030
:1000D00061E04FEF0E94CC00FF244E010894811C88
:1000E000911C80EAA82E8FE0B82E83E68F1508F4C5
:1000F000FF248F2D6AE00E94C501082F10E08F2D8C
:100100000E94C501EE24080D191D6401C90ED11C01
:1001100082E060E00E94420183E0F80160810E9479
:100120003701C5010197F1F782E060E00E945601B6
:1001300082E061E00E94420183E0F60160810E945A
:100140003701C5010197F1F782E061E00E94560195
:10015000E394F2E3EF16E1F6F394C7CFE82FF0E073
:10016000EE0FFF1FE658FF4F0190F081E02D6083F6
:100170000895E82FF0E0EE0FFF1FDF01A658BF4FF4
:100180000D90BC91A02D1C92EE58FF4F0190F08174
:10019000E02D8FEF80830895E82FF0E0442391F065
:1001A000EE0FFF1FE658FF4F0190F081E02D2081F8
:1001B00081E090E002C0880F991F6A95E2F7282B32
:1001C00020830895EE0FFF1FE658FF4F0190F08146
:1001D000E02D208181E090E002C0880F991F6A9590
:1001E000E2F78095822380830895A82FB0E0AA0FBC
:1001F000BB1FFD01E658FF4F0190F081E02D90817B
:1002000021E030E002C0220F331F6A95E2F7822F0F
:10021000809589238083AE58BF4FED91FC918081FA
:10022000822B80830895E82FF0E0EE0FFF1FEE5839
:10023000FF4F0190F081E02D8FEF80830895E82F2C
:10024000F0E0EE0FFF1FEE58FF4F0190F081E02D20
:1002500010820895E82FF0E0EE0FFF1FEE58FF4FD9
:100260000190F081E02D8081809580830895E82FB2
:10027000F0E0EE0FFF1FEE58FF4F0190F081E02DF0
:1002800060830895E82FF0E0EE0FFF1FEE58FF4F58
:100290000190F081E02D208181E090E002C0880F84
:1002A000991F6A95E2F7282B20830895E82FF0E044
:1002B000EE0FFF1FEE58FF4F0190F081E02D2081DF
:1002C00081E090E002C0880F991F6A95E2F780955F
:1002D000822380830895E82FF0E0EE0FFF1FEE5891
:1002E000FF4F0190F081E02D208181E090E002C07D
:1002F000880F991F6A95E2F7282720830895E82F31
:10030000F0E0442391F0EE0FFF1FEE58FF4F0190F5
:10031000F081E02D208181E090E002C0880F991FDC
:100320006A95E2F7282B20830895EE0FFF1FEE5801
:10033000FF4F0190F081E02D208181E090E002C02C
:10034000880F991F6A95E2F780958223808308952C
:10035000E82FF0E0EE0FFF1FE659FF4F0190F0810C
:10036000E02D80810895E82FF0E0EE0FFF1FE659A1
:10037000FF4F0190F081E02D808190E002C09595C3
:1003800087956A95E2F781700895991B79E004C01A
:10039000991F961708F0961B881F7A95C9F78095C4
:0603A0000895F894FFCF60
:1003A60040792430191202780018390036003300DB
:1003B60030003B003800350032003A003700340088
:0203C600310004
:00000001FF
